{"contracts/NFT.sol":{"TestNFT":{"abi":[{"inputs":[{"internalType":"string","name":"name","type":"string"},{"internalType":"string","name":"symbol","type":"string"},{"internalType":"address","name":"chadinu","type":"address"},{"internalType":"address","name":"dvda","type":"address"},{"internalType":"uint256","name":"nftPrice","type":"uint256"}],"stateMutability":"nonpayable","type":"constructor"},{"anonymous":false,"inputs":[{"indexed":true,"internalType":"address","name":"owner","type":"address"},{"indexed":true,"internalType":"address","name":"approved","type":"address"},{"indexed":true,"internalType":"uint256","name":"tokenId","type":"uint256"}],"name":"Approval","type":"event"},{"anonymous":false,"inputs":[{"indexed":true,"internalType":"address","name":"owner","type":"address"},{"indexed":true,"internalType":"address","name":"operator","type":"address"},{"indexed":false,"internalType":"bool","name":"approved","type":"bool"}],"name":"ApprovalForAll","type":"event"},{"anonymous":false,"inputs":[{"indexed":true,"internalType":"address","name":"previousOwner","type":"address"},{"indexed":true,"internalType":"address","name":"newOwner","type":"address"}],"name":"OwnershipTransferred","type":"event"},{"anonymous":false,"inputs":[{"indexed":false,"internalType":"address","name":"account","type":"address"}],"name":"Paused","type":"event"},{"anonymous":false,"inputs":[{"indexed":true,"internalType":"address","name":"from","type":"address"},{"indexed":true,"internalType":"address","name":"to","type":"address"},{"indexed":true,"internalType":"uint256","name":"tokenId","type":"uint256"}],"name":"Transfer","type":"event"},{"anonymous":false,"inputs":[{"indexed":false,"internalType":"address","name":"account","type":"address"}],"name":"Unpaused","type":"event"},{"inputs":[],"name":"ChadinuVip","outputs":[{"internalType":"contract IChadInuVIPClub","name":"","type":"address"}],"stateMutability":"view","type":"function"},{"inputs":[],"name":"DVDA","outputs":[{"internalType":"contract IERC721","name":"","type":"address"}],"stateMutability":"view","type":"function"},{"inputs":[],"name":"TOTAL_SUPPLY","outputs":[{"internalType":"uint256","name":"","type":"uint256"}],"stateMutability":"view","type":"function"},{"inputs":[{"internalType":"address[]","name":"_minters","type":"address[]"},{"internalType":"bool","name":"_flag","type":"bool"}],"name":"addEarlyMinters","outputs":[],"stateMutability":"nonpayable","type":"function"},{"inputs":[{"internalType":"address[]","name":"_minters","type":"address[]"},{"internalType":"uint32[]","name":"_amounts","type":"uint32[]"}],"name":"addFreeMinters","outputs":[],"stateMutability":"nonpayable","type":"function"},{"inputs":[{"internalType":"address","name":"to","type":"address"},{"internalType":"uint256","name":"tokenId","type":"uint256"}],"name":"approve","outputs":[],"stateMutability":"nonpayable","type":"function"},{"inputs":[{"internalType":"address","name":"owner","type":"address"}],"name":"balanceOf","outputs":[{"internalType":"uint256","name":"","type":"uint256"}],"stateMutability":"view","type":"function"},{"inputs":[],"name":"baseTokenURI","outputs":[{"internalType":"string","name":"","type":"string"}],"stateMutability":"view","type":"function"},{"inputs":[{"internalType":"uint32","name":"_amount","type":"uint32"}],"name":"buyNFTEarly","outputs":[],"stateMutability":"payable","type":"function"},{"inputs":[],"name":"buyNFTForFree","outputs":[],"stateMutability":"nonpayable","type":"function"},{"inputs":[],"name":"buyNFTWithChadinu","outputs":[],"stateMutability":"nonpayable","type":"function"},{"inputs":[{"internalType":"uint32","name":"_amount","type":"uint32"}],"name":"buyNFTsInPublic","outputs":[],"stateMutability":"payable","type":"function"},{"inputs":[],"name":"currentPhase","outputs":[{"internalType":"enum TestNFT.Phase","name":"","type":"uint8"}],"stateMutability":"view","type":"function"},{"inputs":[{"internalType":"address payable","name":"_to","type":"address"}],"name":"destroySmartContract","outputs":[],"stateMutability":"nonpayable","type":"function"},{"inputs":[{"internalType":"address","name":"","type":"address"}],"name":"freeMinters","outputs":[{"internalType":"uint32","name":"","type":"uint32"}],"stateMutability":"view","type":"function"},{"inputs":[{"internalType":"uint256","name":"tokenId","type":"uint256"}],"name":"getApproved","outputs":[{"internalType":"address","name":"","type":"address"}],"stateMutability":"view","type":"function"},{"inputs":[],"name":"getCurrentTokenId","outputs":[{"internalType":"uint256","name":"","type":"uint256"}],"stateMutability":"view","type":"function"},{"inputs":[],"name":"getPrice","outputs":[{"internalType":"uint256","name":"","type":"uint256"}],"stateMutability":"view","type":"function"},{"inputs":[{"internalType":"address","name":"owner","type":"address"}],"name":"getTokenIdsOf","outputs":[{"internalType":"uint256[]","name":"","type":"uint256[]"}],"stateMutability":"view","type":"function"},{"inputs":[],"name":"getTotalSupply","outputs":[{"internalType":"uint256","name":"","type":"uint256"}],"stateMutability":"pure","type":"function"},{"inputs":[{"internalType":"address","name":"owner","type":"address"},{"internalType":"address","name":"operator","type":"address"}],"name":"isApprovedForAll","outputs":[{"internalType":"bool","name":"","type":"bool"}],"stateMutability":"view","type":"function"},{"inputs":[{"internalType":"address","name":"","type":"address"}],"name":"isEarlyMinter","outputs":[{"internalType":"bool","name":"","type":"bool"}],"stateMutability":"view","type":"function"},{"inputs":[],"name":"name","outputs":[{"internalType":"string","name":"","type":"string"}],"stateMutability":"view","type":"function"},{"inputs":[],"name":"owner","outputs":[{"internalType":"address","name":"","type":"address"}],"stateMutability":"view","type":"function"},{"inputs":[{"internalType":"uint256","name":"tokenId","type":"uint256"}],"name":"ownerOf","outputs":[{"internalType":"address","name":"","type":"address"}],"stateMutability":"view","type":"function"},{"inputs":[],"name":"pause","outputs":[],"stateMutability":"nonpayable","type":"function"},{"inputs":[],"name":"paused","outputs":[{"internalType":"bool","name":"","type":"bool"}],"stateMutability":"view","type":"function"},{"inputs":[],"name":"renounceOwnership","outputs":[],"stateMutability":"nonpayable","type":"function"},{"inputs":[{"internalType":"address","name":"_from","type":"address"},{"internalType":"address","name":"_to","type":"address"},{"internalType":"uint256","name":"_tokenId","type":"uint256"}],"name":"safeTransferFrom","outputs":[],"stateMutability":"nonpayable","type":"function"},{"inputs":[{"internalType":"address","name":"_from","type":"address"},{"internalType":"address","name":"_to","type":"address"},{"internalType":"uint256","name":"_tokenId","type":"uint256"},{"internalType":"bytes","name":"_data","type":"bytes"}],"name":"safeTransferFrom","outputs":[],"stateMutability":"nonpayable","type":"function"},{"inputs":[{"internalType":"address","name":"operator","type":"address"},{"internalType":"bool","name":"approved","type":"bool"}],"name":"setApprovalForAll","outputs":[],"stateMutability":"nonpayable","type":"function"},{"inputs":[{"internalType":"string","name":"baseURI","type":"string"}],"name":"setBaseURI","outputs":[],"stateMutability":"nonpayable","type":"function"},{"inputs":[{"internalType":"uint32","name":"_phase","type":"uint32"}],"name":"setPhase","outputs":[],"stateMutability":"nonpayable","type":"function"},{"inputs":[{"internalType":"uint256","name":"_price","type":"uint256"}],"name":"setPrice","outputs":[],"stateMutability":"nonpayable","type":"function"},{"inputs":[{"internalType":"bytes4","name":"interfaceId","type":"bytes4"}],"name":"supportsInterface","outputs":[{"internalType":"bool","name":"","type":"bool"}],"stateMutability":"view","type":"function"},{"inputs":[],"name":"symbol","outputs":[{"internalType":"string","name":"","type":"string"}],"stateMutability":"view","type":"function"},{"inputs":[{"internalType":"uint256","name":"tokenId","type":"uint256"}],"name":"tokenURI","outputs":[{"internalType":"string","name":"","type":"string"}],"stateMutability":"view","type":"function"},{"inputs":[{"internalType":"address","name":"_from","type":"address"},{"internalType":"address","name":"_to","type":"address"},{"internalType":"uint256","name":"_tokenId","type":"uint256"}],"name":"transferFrom","outputs":[],"stateMutability":"nonpayable","type":"function"},{"inputs":[{"internalType":"address","name":"newOwner","type":"address"}],"name":"transferOwnership","outputs":[],"stateMutability":"nonpayable","type":"function"},{"inputs":[],"name":"unpause","outputs":[],"stateMutability":"nonpayable","type":"function"},{"inputs":[],"name":"withdraw","outputs":[],"stateMutability":"nonpayable","type":"function"},{"stateMutability":"payable","type":"receive"}],"evm":{"bytecode":{"linkReferences":{},"object":"60806040523480156200001157600080fd5b5060405162003182380380620031828339810160408190526200003491620002b5565b8451859085906200004d90600090602085019062000125565b5080516200006390600190602084019062000125565b505050620000806200007a620000cf60201b60201c565b620000d3565b6007805460ff60a01b19169055600955600a8054610100600160a81b0319166101006001600160a01b0394851602179055600b80546001600160a01b03191691909216179055506200038b9050565b3390565b600780546001600160a01b038381166001600160a01b0319831681179093556040519116919082907f8be0079c531659141344cd1fd0a4f28419497f9722a3daafe3b4186f6b6457e090600090a35050565b82805462000133906200034e565b90600052602060002090601f016020900481019282620001575760008555620001a2565b82601f106200017257805160ff1916838001178555620001a2565b82800160010185558215620001a2579182015b82811115620001a257825182559160200191906001019062000185565b50620001b0929150620001b4565b5090565b5b80821115620001b05760008155600101620001b5565b634e487b7160e01b600052604160045260246000fd5b600082601f830112620001f357600080fd5b81516001600160401b0380821115620002105762000210620001cb565b604051601f8301601f19908116603f011681019082821181831017156200023b576200023b620001cb565b816040528381526020925086838588010111156200025857600080fd5b600091505b838210156200027c57858201830151818301840152908201906200025d565b838211156200028e5760008385830101525b9695505050505050565b80516001600160a01b0381168114620002b057600080fd5b919050565b600080600080600060a08688031215620002ce57600080fd5b85516001600160401b0380821115620002e657600080fd5b620002f489838a01620001e1565b965060208801519150808211156200030b57600080fd5b506200031a88828901620001e1565b9450506200032b6040870162000298565b92506200033b6060870162000298565b9150608086015190509295509295909350565b600181811c908216806200036357607f821691505b602082108114156200038557634e487b7160e01b600052602260045260246000fd5b50919050565b612de7806200039b6000396000f3fe6080604052600436106102495760003560e01c80636352211e11610139578063a22cb465116100b6578063d547cfb71161007a578063d547cfb71461068c578063e985e9c5146106a1578063f2fde38b146106ea578063f6e8fe1f1461070a578063f7bb0f4b1461071f578063f8b087121461074457600080fd5b8063a22cb46514610605578063b88d4fde14610625578063c4e41b2214610645578063c87b56dd14610659578063c8866d941461067957600080fd5b80638da5cb5b116100fd5780638da5cb5b14610588578063902d55a5146105a657806391b7f5ed146105bb57806395d89b41146105db57806398d5fdca146105f057600080fd5b80636352211e1461050957806370a0823114610529578063715018a614610549578063821bca771461055e5780638456cb591461057357600080fd5b806323b872dd116101c757806342842e0e1161018b57806342842e0e1461045a5780635324f9aa1461047a57806355f804b3146104a757806356189236146104c75780635c975abb146104ea57600080fd5b806323b872dd146103d0578063278f1ffb146103f057806339df43ff146104105780633ccfd60b146104305780633f4ba83a1461044557600080fd5b8063095ea7b31161020e578063095ea7b31461033b57806317dc55c21461035d5780631f4730321461037d57806320aa8c1914610390578063214bb348146103b057600080fd5b8062453a981461025557806301ffc9a71461029a578063055ad42e146102ba57806306fdde03146102e1578063081812fc1461030357600080fd5b3661025057005b600080fd5b34801561026157600080fd5b50610285610270366004612591565b600f6020526000908152604090205460ff1681565b60405190151581526020015b60405180910390f35b3480156102a657600080fd5b506102856102b53660046125cb565b61078c565b3480156102c657600080fd5b50600a546102d49060ff1681565b60405161029191906125fe565b3480156102ed57600080fd5b506102f661079d565b604051610291919061267e565b34801561030f57600080fd5b5061032361031e366004612691565b61082f565b6040516001600160a01b039091168152602001610291565b34801561034757600080fd5b5061035b6103563660046126aa565b610856565b005b34801561036957600080fd5b5061035b610378366004612737565b610971565b61035b61038b36600461278b565b6109f0565b34801561039c57600080fd5b5061035b6103ab36600461278b565b610b63565b3480156103bc57600080fd5b50600b54610323906001600160a01b031681565b3480156103dc57600080fd5b5061035b6103eb3660046127b1565b610bd0565b3480156103fc57600080fd5b5061035b61040b3660046127f2565b610c15565b34801561041c57600080fd5b5061035b61042b366004612591565b610d04565b34801561043c57600080fd5b5061035b610d10565b34801561045157600080fd5b5061035b610d51565b34801561046657600080fd5b5061035b6104753660046127b1565b610d63565b34801561048657600080fd5b5061049a610495366004612591565b610d7e565b604051610291919061285e565b3480156104b357600080fd5b5061035b6104c236600461292e565b610dea565b3480156104d357600080fd5b506104dc610e09565b604051908152602001610291565b3480156104f657600080fd5b50600754600160a01b900460ff16610285565b34801561051557600080fd5b50610323610524366004612691565b610e19565b34801561053557600080fd5b506104dc610544366004612591565b610e79565b34801561055557600080fd5b5061035b610eff565b34801561056a57600080fd5b5061035b610f11565b34801561057f57600080fd5b5061035b611178565b34801561059457600080fd5b506007546001600160a01b0316610323565b3480156105b257600080fd5b506104dc601181565b3480156105c757600080fd5b5061035b6105d6366004612691565b611188565b3480156105e757600080fd5b506102f6611195565b3480156105fc57600080fd5b506009546104dc565b34801561061157600080fd5b5061035b610620366004612977565b6111a4565b34801561063157600080fd5b5061035b6106403660046129ac565b6111af565b34801561065157600080fd5b5060116104dc565b34801561066557600080fd5b506102f6610674366004612691565b6111cf565b61035b61068736600461278b565b611280565b34801561069857600080fd5b506102f66114b8565b3480156106ad57600080fd5b506102856106bc366004612a2c565b6001600160a01b03918216600090815260056020908152604080832093909416825291909152205460ff1690565b3480156106f657600080fd5b5061035b610705366004612591565b611546565b34801561071657600080fd5b5061035b6115bc565b34801561072b57600080fd5b50600a546103239061010090046001600160a01b031681565b34801561075057600080fd5b5061077761075f366004612591565b600e6020526000908152604090205463ffffffff1681565b60405163ffffffff9091168152602001610291565b6000610797826117a1565b92915050565b6060600080546107ac90612a65565b80601f01602080910402602001604051908101604052809291908181526020018280546107d890612a65565b80156108255780601f106107fa57610100808354040283529160200191610825565b820191906000526020600020905b81548152906001019060200180831161080857829003601f168201915b5050505050905090565b600061083a826117f1565b506000908152600460205260409020546001600160a01b031690565b600061086182610e19565b9050806001600160a01b0316836001600160a01b031614156108d45760405162461bcd60e51b815260206004820152602160248201527f4552433732313a20617070726f76616c20746f2063757272656e74206f776e656044820152603960f91b60648201526084015b60405180910390fd5b336001600160a01b03821614806108f057506108f081336106bc565b6109625760405162461bcd60e51b815260206004820152603d60248201527f4552433732313a20617070726f76652063616c6c6572206973206e6f7420746f60448201527f6b656e206f776e6572206f7220617070726f76656420666f7220616c6c00000060648201526084016108cb565b61096c8383611850565b505050565b6109796118be565b60005b828110156109ea5781600f600086868581811061099b5761099b612aa0565b90506020020160208101906109b09190612591565b6001600160a01b031681526020810191909152604001600020805460ff1916911515919091179055806109e281612acc565b91505061097c565b50505050565b8060038163ffffffff1611158015610a0e575060008163ffffffff16115b610a4b5760405162461bcd60e51b815260206004820152600e60248201526d125b9d985b1a5908185b5bdd5b9d60921b60448201526064016108cb565b6002600a5460ff166002811115610a6457610a646125e8565b14610aa25760405162461bcd60e51b815260206004820152600e60248201526d4e6f205075626c69632053616c6560901b60448201526064016108cb565b346009548363ffffffff16610ab79190612ae7565b14610af75760405162461bcd60e51b815260206004820152601060248201526f125b9cdd59999a58d95b9d08119d5b9960821b60448201526064016108cb565b60118263ffffffff16610b0960085490565b610b139190612b06565b1115610b315760405162461bcd60e51b81526004016108cb90612b1e565b60005b8263ffffffff168163ffffffff16101561096c57610b5133611918565b80610b5b81612b46565b915050610b34565b610b6b6118be565b63ffffffff8116610b8e57600a80546000919060ff19166001835b021790555050565b8063ffffffff1660011415610bb057600a80546001919060ff19168280610b86565b8063ffffffff1660021415610bcd57600a805460ff191660021790555b50565b6001600160a01b038316610be357600080fd5b6001600160a01b038216610bf657600080fd5b610c0183838361194a565b610c0b838261197b565b61096c8282611b2b565b610c1d6118be565b828114610c5d5760405162461bcd60e51b815260206004820152600e60248201526d496e76616c696420496e7075747360901b60448201526064016108cb565b60005b83811015610cfd57828282818110610c7a57610c7a612aa0565b9050602002016020810190610c8f919061278b565b600e6000878785818110610ca557610ca5612aa0565b9050602002016020810190610cba9190612591565b6001600160a01b031681526020810191909152604001600020805463ffffffff191663ffffffff9290921691909117905580610cf581612acc565b915050610c60565b5050505050565b806001600160a01b0316ff5b610d186118be565b6007546040516001600160a01b03909116904780156108fc02916000818181858888f19350505050158015610bcd573d6000803e3d6000fd5b610d596118be565b610d61611b57565b565b61096c838383604051806020016040528060008152506111af565b6001600160a01b0381166000908152600d6020908152604091829020805483518184028101840190945280845260609392830182828015610dde57602002820191906000526020600020905b815481526020019060010190808311610dca575b50505050509050919050565b610df26118be565b8051610e0590600c9060208401906124e3565b5050565b6000610e1460085490565b905090565b6000818152600260205260408120546001600160a01b0316806107975760405162461bcd60e51b8152602060048201526018602482015277115490cdcc8c4e881a5b9d985b1a59081d1bdad95b88125160421b60448201526064016108cb565b60006001600160a01b038216610ee35760405162461bcd60e51b815260206004820152602960248201527f4552433732313a2061646472657373207a65726f206973206e6f7420612076616044820152683634b21037bbb732b960b91b60648201526084016108cb565b506001600160a01b031660009081526003602052604090205490565b610f076118be565b610d616000611bac565b6000600a5460ff166002811115610f2a57610f2a6125e8565b14610f665760405162461bcd60e51b815260206004820152600c60248201526b4e6f20467265652053616c6560a01b60448201526064016108cb565b336000908152600e602052604090205460119063ffffffff16610f8860085490565b610f929190612b06565b1115610fb05760405162461bcd60e51b81526004016108cb90612b1e565b336000908152600e602052604090205463ffffffff166110045760405162461bcd60e51b815260206004820152600f60248201526e139bdd0815da1a5d195b1a5cdd1959608a1b60448201526064016108cb565b600a546040516370a0823160e01b815233600482015260009161010090046001600160a01b0316906370a0823190602401602060405180830381865afa158015611052573d6000803e3d6000fd5b505050506040513d601f19601f820116820180604052508101906110769190612b6a565b11611082576000611085565b60015b6040516370a0823160e01b815233600482015260ff919091169030906370a0823190602401602060405180830381865afa1580156110c7573d6000803e3d6000fd5b505050506040513d601f19601f820116820180604052508101906110eb9190612b6a565b11156111395760405162461bcd60e51b815260206004820152601860248201527f416c7265616479206d696e7465642066726565204e465473000000000000000060448201526064016108cb565b60005b336000908152600e602052604090205463ffffffff9081169082161015610bcd5761116633611918565b8061117081612b46565b91505061113c565b6111806118be565b610d61611bfe565b6111906118be565b600955565b6060600180546107ac90612a65565b610e05338383611c41565b6111bb84848484611d10565b6111c5848361197b565b6109ea8383611b2b565b6000818152600260205260409020546060906001600160a01b031661124e5760405162461bcd60e51b815260206004820152602f60248201527f4552433732314d657461646174613a2055524920717565727920666f72206e6f60448201526e3732bc34b9ba32b73a103a37b5b2b760891b60648201526084016108cb565b600c61125983611d42565b60405160200161126a929190612b9f565b6040516020818303038152906040529050919050565b8060038163ffffffff161115801561129e575060008163ffffffff16115b6112db5760405162461bcd60e51b815260206004820152600e60248201526d125b9d985b1a5908185b5bdd5b9d60921b60448201526064016108cb565b6001600a5460ff1660028111156112f4576112f46125e8565b146113315760405162461bcd60e51b815260206004820152600d60248201526c4e6f204561726c792053616c6560981b60448201526064016108cb565b346009548363ffffffff166113469190612ae7565b146113865760405162461bcd60e51b815260206004820152601060248201526f125b9cdd59999a58d95b9d08119d5b9960821b60448201526064016108cb565b60118263ffffffff1661139860085490565b6113a29190612b06565b11156113c05760405162461bcd60e51b81526004016108cb90612b1e565b600b546040516370a0823160e01b81523360048201526000916001600160a01b0316906370a0823190602401602060405180830381865afa158015611409573d6000803e3d6000fd5b505050506040513d601f19601f8201168201806040525081019061142d9190612b6a565b11806114485750336000908152600f602052604090205460ff165b6114865760405162461bcd60e51b815260206004820152600f60248201526e139bdd0815da1a5d195b1a5cdd1959608a1b60448201526064016108cb565b60005b8263ffffffff168163ffffffff16101561096c576114a633611918565b806114b081612b46565b915050611489565b600c80546114c590612a65565b80601f01602080910402602001604051908101604052809291908181526020018280546114f190612a65565b801561153e5780601f106115135761010080835404028352916020019161153e565b820191906000526020600020905b81548152906001019060200180831161152157829003601f168201915b505050505081565b61154e6118be565b6001600160a01b0381166115b35760405162461bcd60e51b815260206004820152602660248201527f4f776e61626c653a206e6577206f776e657220697320746865207a65726f206160448201526564647265737360d01b60648201526084016108cb565b610bcd81611bac565b6040516370a0823160e01b815233600482015230906370a0823190602401602060405180830381865afa1580156115f7573d6000803e3d6000fd5b505050506040513d601f19601f8201168201806040525081019061161b9190612b6a565b1561165f5760405162461bcd60e51b81526020600482015260146024820152734f6e6c79206f6e65204e4654206973206672656560601b60448201526064016108cb565b6000600a5460ff166002811115611678576116786125e8565b146116b45760405162461bcd60e51b815260206004820152600c60248201526b4e6f20467265652053616c6560a01b60448201526064016108cb565b60116116bf60085490565b6116ca906001612b06565b11156116e85760405162461bcd60e51b81526004016108cb90612b1e565b600a546040516370a0823160e01b815233600482015260009161010090046001600160a01b0316906370a0823190602401602060405180830381865afa158015611736573d6000803e3d6000fd5b505050506040513d601f19601f8201168201806040525081019061175a9190612b6a565b116117985760405162461bcd60e51b815260206004820152600e60248201526d04e6f2043686164696e75205649560941b60448201526064016108cb565b610d6133611918565b60006001600160e01b031982166380ac58cd60e01b14806117d257506001600160e01b03198216635b5e139f60e01b145b8061079757506301ffc9a760e01b6001600160e01b0319831614610797565b6000818152600260205260409020546001600160a01b0316610bcd5760405162461bcd60e51b8152602060048201526018602482015277115490cdcc8c4e881a5b9d985b1a59081d1bdad95b88125160421b60448201526064016108cb565b600081815260046020526040902080546001600160a01b0319166001600160a01b038416908117909155819061188582610e19565b6001600160a01b03167f8c5be1e5ebec7d5bd14f71427d1e84f3dd0314c0f7b2291e5b200ac8c7c3b92560405160405180910390a45050565b6007546001600160a01b03163314610d615760405162461bcd60e51b815260206004820181905260248201527f4f776e61626c653a2063616c6c6572206973206e6f7420746865206f776e657260448201526064016108cb565b61192a8161192560085490565b611ddf565b61193c3361193760085490565b611b2b565b610bcd600880546001019055565b6119543382611df9565b6119705760405162461bcd60e51b81526004016108cb90612c46565b61096c838383611e78565b6001600160a01b0382166000908152600d60209081526040808320805482518185028101850190935280835284938301828280156119d857602002820191906000526020600020905b8154815260200190600101908083116119c4575b5050505050905060005b81518163ffffffff161015611a385783828263ffffffff1681518110611a0a57611a0a612aa0565b60200260200101511415611a26578063ffffffff169250611a38565b80611a3081612b46565b9150506119e2565b50600060018251611a499190612c93565b90506000828281518110611a5f57611a5f612aa0565b6020026020010151905080600d6000886001600160a01b03166001600160a01b031681526020019081526020016000208581548110611aa057611aa0612aa0565b60009182526020808320909101929092556001600160a01b0388168152600d90915260408120805484908110611ad857611ad8612aa0565b60009182526020808320909101929092556001600160a01b0388168152600d90915260409020805480611b0d57611b0d612caa565b60019003818190600052602060002001600090559055505050505050565b6001600160a01b039091166000908152600d602090815260408220805460018101825590835291200155565b611b5f611fe9565b6007805460ff60a01b191690557f5db9ee0a495bf2e6ff9c91a7834c1ba4fdd244a5e8aa4e537bd38aeae4b073aa335b6040516001600160a01b03909116815260200160405180910390a1565b600780546001600160a01b038381166001600160a01b0319831681179093556040519116919082907f8be0079c531659141344cd1fd0a4f28419497f9722a3daafe3b4186f6b6457e090600090a35050565b611c06612039565b6007805460ff60a01b1916600160a01b1790557f62e78cea01bee320cd4e420270b5ea74000d11b0c9f74754ebdbfc544b05a258611b8f3390565b816001600160a01b0316836001600160a01b03161415611ca35760405162461bcd60e51b815260206004820152601960248201527f4552433732313a20617070726f766520746f2063616c6c65720000000000000060448201526064016108cb565b6001600160a01b03838116600081815260056020908152604080832094871680845294825291829020805460ff191686151590811790915591519182527f17307eab39ab6107e8899845ad3d59bd9653f200f220920489ca2b5937696c31910160405180910390a3505050565b611d1a3383611df9565b611d365760405162461bcd60e51b81526004016108cb90612c46565b6109ea84848484612086565b60606000611d4f836120b9565b600101905060008167ffffffffffffffff811115611d6f57611d6f6128a2565b6040519080825280601f01601f191660200182016040528015611d99576020820181803683370190505b5090508181016020015b600019016f181899199a1a9b1b9c1cb0b131b232b360811b600a86061a8153600a8504945084611dd257611dd7565b611da3565b509392505050565b610e05828260405180602001604052806000815250612191565b600080611e0583610e19565b9050806001600160a01b0316846001600160a01b03161480611e4c57506001600160a01b0380821660009081526005602090815260408083209388168352929052205460ff165b80611e705750836001600160a01b0316611e658461082f565b6001600160a01b0316145b949350505050565b826001600160a01b0316611e8b82610e19565b6001600160a01b031614611eb15760405162461bcd60e51b81526004016108cb90612cc0565b6001600160a01b038216611f135760405162461bcd60e51b8152602060048201526024808201527f4552433732313a207472616e7366657220746f20746865207a65726f206164646044820152637265737360e01b60648201526084016108cb565b611f2083838360016121c4565b826001600160a01b0316611f3382610e19565b6001600160a01b031614611f595760405162461bcd60e51b81526004016108cb90612cc0565b600081815260046020908152604080832080546001600160a01b03199081169091556001600160a01b0387811680865260038552838620805460001901905590871680865283862080546001019055868652600290945282852080549092168417909155905184937fddf252ad1be2c89b69c2b068fc378daa952ba7f163c4a11628f55a4df523b3ef91a4505050565b600754600160a01b900460ff16610d615760405162461bcd60e51b815260206004820152601460248201527314185d5cd8589b194e881b9bdd081c185d5cd95960621b60448201526064016108cb565b600754600160a01b900460ff1615610d615760405162461bcd60e51b815260206004820152601060248201526f14185d5cd8589b194e881c185d5cd95960821b60448201526064016108cb565b612091848484611e78565b61209d8484848461224c565b6109ea5760405162461bcd60e51b81526004016108cb90612d05565b60008072184f03e93ff9f4daa797ed6e38ed64bf6a1f0160401b83106120f85772184f03e93ff9f4daa797ed6e38ed64bf6a1f0160401b830492506040015b6d04ee2d6d415b85acef81000000008310612124576d04ee2d6d415b85acef8100000000830492506020015b662386f26fc10000831061214257662386f26fc10000830492506010015b6305f5e100831061215a576305f5e100830492506008015b612710831061216e57612710830492506004015b60648310612180576064830492506002015b600a83106107975760010192915050565b61219b838361234a565b6121a8600084848461224c565b61096c5760405162461bcd60e51b81526004016108cb90612d05565b60018111156109ea576001600160a01b0384161561220a576001600160a01b03841660009081526003602052604081208054839290612204908490612c93565b90915550505b6001600160a01b038316156109ea576001600160a01b03831660009081526003602052604081208054839290612241908490612b06565b909155505050505050565b60006001600160a01b0384163b1561233f57604051630a85bd0160e11b81526001600160a01b0385169063150b7a0290612290903390899088908890600401612d57565b6020604051808303816000875af19250505080156122cb575060408051601f3d908101601f191682019092526122c891810190612d94565b60015b612325573d8080156122f9576040519150601f19603f3d011682016040523d82523d6000602084013e6122fe565b606091505b50805161231d5760405162461bcd60e51b81526004016108cb90612d05565b805181602001fd5b6001600160e01b031916630a85bd0160e11b149050611e70565b506001949350505050565b6001600160a01b0382166123a05760405162461bcd60e51b815260206004820181905260248201527f4552433732313a206d696e7420746f20746865207a65726f206164647265737360448201526064016108cb565b6000818152600260205260409020546001600160a01b0316156124055760405162461bcd60e51b815260206004820152601c60248201527f4552433732313a20746f6b656e20616c7265616479206d696e7465640000000060448201526064016108cb565b6124136000838360016121c4565b6000818152600260205260409020546001600160a01b0316156124785760405162461bcd60e51b815260206004820152601c60248201527f4552433732313a20746f6b656e20616c7265616479206d696e7465640000000060448201526064016108cb565b6001600160a01b038216600081815260036020908152604080832080546001019055848352600290915280822080546001600160a01b0319168417905551839291907fddf252ad1be2c89b69c2b068fc378daa952ba7f163c4a11628f55a4df523b3ef908290a45050565b8280546124ef90612a65565b90600052602060002090601f0160209004810192826125115760008555612557565b82601f1061252a57805160ff1916838001178555612557565b82800160010185558215612557579182015b8281111561255757825182559160200191906001019061253c565b50612563929150612567565b5090565b5b808211156125635760008155600101612568565b6001600160a01b0381168114610bcd57600080fd5b6000602082840312156125a357600080fd5b81356125ae8161257c565b9392505050565b6001600160e01b031981168114610bcd57600080fd5b6000602082840312156125dd57600080fd5b81356125ae816125b5565b634e487b7160e01b600052602160045260246000fd5b602081016003831061262057634e487b7160e01b600052602160045260246000fd5b91905290565b60005b83811015612641578181015183820152602001612629565b838111156109ea5750506000910152565b6000815180845261266a816020860160208601612626565b601f01601f19169290920160200192915050565b6020815260006125ae6020830184612652565b6000602082840312156126a357600080fd5b5035919050565b600080604083850312156126bd57600080fd5b82356126c88161257c565b946020939093013593505050565b60008083601f8401126126e857600080fd5b50813567ffffffffffffffff81111561270057600080fd5b6020830191508360208260051b850101111561271b57600080fd5b9250929050565b8035801515811461273257600080fd5b919050565b60008060006040848603121561274c57600080fd5b833567ffffffffffffffff81111561276357600080fd5b61276f868287016126d6565b9094509250612782905060208501612722565b90509250925092565b60006020828403121561279d57600080fd5b813563ffffffff811681146125ae57600080fd5b6000806000606084860312156127c657600080fd5b83356127d18161257c565b925060208401356127e18161257c565b929592945050506040919091013590565b6000806000806040858703121561280857600080fd5b843567ffffffffffffffff8082111561282057600080fd5b61282c888389016126d6565b9096509450602087013591508082111561284557600080fd5b50612852878288016126d6565b95989497509550505050565b6020808252825182820181905260009190848201906040850190845b818110156128965783518352928401929184019160010161287a565b50909695505050505050565b634e487b7160e01b600052604160045260246000fd5b600067ffffffffffffffff808411156128d3576128d36128a2565b604051601f8501601f19908116603f011681019082821181831017156128fb576128fb6128a2565b8160405280935085815286868601111561291457600080fd5b858560208301376000602087830101525050509392505050565b60006020828403121561294057600080fd5b813567ffffffffffffffff81111561295757600080fd5b8201601f8101841361296857600080fd5b611e70848235602084016128b8565b6000806040838503121561298a57600080fd5b82356129958161257c565b91506129a360208401612722565b90509250929050565b600080600080608085870312156129c257600080fd5b84356129cd8161257c565b935060208501356129dd8161257c565b925060408501359150606085013567ffffffffffffffff811115612a0057600080fd5b8501601f81018713612a1157600080fd5b612a20878235602084016128b8565b91505092959194509250565b60008060408385031215612a3f57600080fd5b8235612a4a8161257c565b91506020830135612a5a8161257c565b809150509250929050565b600181811c90821680612a7957607f821691505b60208210811415612a9a57634e487b7160e01b600052602260045260246000fd5b50919050565b634e487b7160e01b600052603260045260246000fd5b634e487b7160e01b600052601160045260246000fd5b6000600019821415612ae057612ae0612ab6565b5060010190565b6000816000190483118215151615612b0157612b01612ab6565b500290565b60008219821115612b1957612b19612ab6565b500190565b6020808252600e908201526d4e6f20456e6f677568204e46547360901b604082015260600190565b600063ffffffff80831681811415612b6057612b60612ab6565b6001019392505050565b600060208284031215612b7c57600080fd5b5051919050565b60008151612b95818560208601612626565b9290920192915050565b600080845481600182811c915080831680612bbb57607f831692505b6020808410821415612bdb57634e487b7160e01b86526022600452602486fd5b818015612bef5760018114612c0057612c2d565b60ff19861689528489019650612c2d565b60008b81526020902060005b86811015612c255781548b820152908501908301612c0c565b505084890196505b505050505050612c3d8185612b83565b95945050505050565b6020808252602d908201527f4552433732313a2063616c6c6572206973206e6f7420746f6b656e206f776e6560408201526c1c881bdc88185c1c1c9bdd9959609a1b606082015260800190565b600082821015612ca557612ca5612ab6565b500390565b634e487b7160e01b600052603160045260246000fd5b60208082526025908201527f4552433732313a207472616e736665722066726f6d20696e636f72726563742060408201526437bbb732b960d91b606082015260800190565b60208082526032908201527f4552433732313a207472616e7366657220746f206e6f6e20455243373231526560408201527131b2b4bb32b91034b6b83632b6b2b73a32b960711b606082015260800190565b6001600160a01b0385811682528416602082015260408101839052608060608201819052600090612d8a90830184612652565b9695505050505050565b600060208284031215612da657600080fd5b81516125ae816125b556fea2646970667358221220898b541e4e637f510be3205ec91eca0e6c6d7646db8e020dff869a8e0ba5344b64736f6c634300080b0033","opcodes":"PUSH1 0x80 PUSH1 0x40 MSTORE CALLVALUE DUP1 ISZERO PUSH3 0x11 JUMPI PUSH1 0x0 DUP1 REVERT JUMPDEST POP PUSH1 0x40 MLOAD PUSH3 0x3182 CODESIZE SUB DUP1 PUSH3 0x3182 DUP4 CODECOPY DUP2 ADD PUSH1 0x40 DUP2 SWAP1 MSTORE PUSH3 0x34 SWAP2 PUSH3 0x2B5 JUMP JUMPDEST DUP5 MLOAD DUP6 SWAP1 DUP6 SWAP1 PUSH3 0x4D SWAP1 PUSH1 0x0 SWAP1 PUSH1 0x20 DUP6 ADD SWAP1 PUSH3 0x125 JUMP JUMPDEST POP DUP1 MLOAD PUSH3 0x63 SWAP1 PUSH1 0x1 SWAP1 PUSH1 0x20 DUP5 ADD SWAP1 PUSH3 0x125 JUMP JUMPDEST POP POP POP PUSH3 0x80 PUSH3 0x7A PUSH3 0xCF PUSH1 0x20 SHL PUSH1 0x20 SHR JUMP JUMPDEST PUSH3 0xD3 JUMP JUMPDEST PUSH1 0x7 DUP1 SLOAD PUSH1 0xFF PUSH1 0xA0 SHL NOT AND SWAP1 SSTORE PUSH1 0x9 SSTORE PUSH1 0xA DUP1 SLOAD PUSH2 0x100 PUSH1 0x1 PUSH1 0xA8 SHL SUB NOT AND PUSH2 0x100 PUSH1 0x1 PUSH1 0x1 PUSH1 0xA0 SHL SUB SWAP5 DUP6 AND MUL OR SWAP1 SSTORE PUSH1 0xB DUP1 SLOAD PUSH1 0x1 PUSH1 0x1 PUSH1 0xA0 SHL SUB NOT AND SWAP2 SWAP1 SWAP3 AND OR SWAP1 SSTORE POP PUSH3 0x38B SWAP1 POP JUMP JUMPDEST CALLER SWAP1 JUMP JUMPDEST PUSH1 0x7 DUP1 SLOAD PUSH1 0x1 PUSH1 0x1 PUSH1 0xA0 SHL SUB DUP4 DUP2 AND PUSH1 0x1 PUSH1 0x1 PUSH1 0xA0 SHL SUB NOT DUP4 AND DUP2 OR SWAP1 SWAP4 SSTORE PUSH1 0x40 MLOAD SWAP2 AND SWAP2 SWAP1 DUP3 SWAP1 PUSH32 0x8BE0079C531659141344CD1FD0A4F28419497F9722A3DAAFE3B4186F6B6457E0 SWAP1 PUSH1 0x0 SWAP1 LOG3 POP POP JUMP JUMPDEST DUP3 DUP1 SLOAD PUSH3 0x133 SWAP1 PUSH3 0x34E JUMP JUMPDEST SWAP1 PUSH1 0x0 MSTORE PUSH1 0x20 PUSH1 0x0 KECCAK256 SWAP1 PUSH1 0x1F ADD PUSH1 0x20 SWAP1 DIV DUP2 ADD SWAP3 DUP3 PUSH3 0x157 JUMPI PUSH1 0x0 DUP6 SSTORE PUSH3 0x1A2 JUMP JUMPDEST DUP3 PUSH1 0x1F LT PUSH3 0x172 JUMPI DUP1 MLOAD PUSH1 0xFF NOT AND DUP4 DUP1 ADD OR DUP6 SSTORE PUSH3 0x1A2 JUMP JUMPDEST DUP3 DUP1 ADD PUSH1 0x1 ADD DUP6 SSTORE DUP3 ISZERO PUSH3 0x1A2 JUMPI SWAP2 DUP3 ADD JUMPDEST DUP3 DUP2 GT ISZERO PUSH3 0x1A2 JUMPI DUP3 MLOAD DUP3 SSTORE SWAP2 PUSH1 0x20 ADD SWAP2 SWAP1 PUSH1 0x1 ADD SWAP1 PUSH3 0x185 JUMP JUMPDEST POP PUSH3 0x1B0 SWAP3 SWAP2 POP PUSH3 0x1B4 JUMP JUMPDEST POP SWAP1 JUMP JUMPDEST JUMPDEST DUP1 DUP3 GT ISZERO PUSH3 0x1B0 JUMPI PUSH1 0x0 DUP2 SSTORE PUSH1 0x1 ADD PUSH3 0x1B5 JUMP JUMPDEST PUSH4 0x4E487B71 PUSH1 0xE0 SHL PUSH1 0x0 MSTORE PUSH1 0x41 PUSH1 0x4 MSTORE PUSH1 0x24 PUSH1 0x0 REVERT JUMPDEST PUSH1 0x0 DUP3 PUSH1 0x1F DUP4 ADD SLT PUSH3 0x1F3 JUMPI PUSH1 0x0 DUP1 REVERT JUMPDEST DUP2 MLOAD PUSH1 0x1 PUSH1 0x1 PUSH1 0x40 SHL SUB DUP1 DUP3 GT ISZERO PUSH3 0x210 JUMPI PUSH3 0x210 PUSH3 0x1CB JUMP JUMPDEST PUSH1 0x40 MLOAD PUSH1 0x1F DUP4 ADD PUSH1 0x1F NOT SWAP1 DUP2 AND PUSH1 0x3F ADD AND DUP2 ADD SWAP1 DUP3 DUP3 GT DUP2 DUP4 LT OR ISZERO PUSH3 0x23B JUMPI PUSH3 0x23B PUSH3 0x1CB JUMP JUMPDEST DUP2 PUSH1 0x40 MSTORE DUP4 DUP2 MSTORE PUSH1 0x20 SWAP3 POP DUP7 DUP4 DUP6 DUP9 ADD ADD GT ISZERO PUSH3 0x258 JUMPI PUSH1 0x0 DUP1 REVERT JUMPDEST PUSH1 0x0 SWAP2 POP JUMPDEST DUP4 DUP3 LT ISZERO PUSH3 0x27C JUMPI DUP6 DUP3 ADD DUP4 ADD MLOAD DUP2 DUP4 ADD DUP5 ADD MSTORE SWAP1 DUP3 ADD SWAP1 PUSH3 0x25D JUMP JUMPDEST DUP4 DUP3 GT ISZERO PUSH3 0x28E JUMPI PUSH1 0x0 DUP4 DUP6 DUP4 ADD ADD MSTORE JUMPDEST SWAP7 SWAP6 POP POP POP POP POP POP JUMP JUMPDEST DUP1 MLOAD PUSH1 0x1 PUSH1 0x1 PUSH1 0xA0 SHL SUB DUP2 AND DUP2 EQ PUSH3 0x2B0 JUMPI PUSH1 0x0 DUP1 REVERT JUMPDEST SWAP2 SWAP1 POP JUMP JUMPDEST PUSH1 0x0 DUP1 PUSH1 0x0 DUP1 PUSH1 0x0 PUSH1 0xA0 DUP7 DUP9 SUB SLT ISZERO PUSH3 0x2CE JUMPI PUSH1 0x0 DUP1 REVERT JUMPDEST DUP6 MLOAD PUSH1 0x1 PUSH1 0x1 PUSH1 0x40 SHL SUB DUP1 DUP3 GT ISZERO PUSH3 0x2E6 JUMPI PUSH1 0x0 DUP1 REVERT JUMPDEST PUSH3 0x2F4 DUP10 DUP4 DUP11 ADD PUSH3 0x1E1 JUMP JUMPDEST SWAP7 POP PUSH1 0x20 DUP9 ADD MLOAD SWAP2 POP DUP1 DUP3 GT ISZERO PUSH3 0x30B JUMPI PUSH1 0x0 DUP1 REVERT JUMPDEST POP PUSH3 0x31A DUP9 DUP3 DUP10 ADD PUSH3 0x1E1 JUMP JUMPDEST SWAP5 POP POP PUSH3 0x32B PUSH1 0x40 DUP8 ADD PUSH3 0x298 JUMP JUMPDEST SWAP3 POP PUSH3 0x33B PUSH1 0x60 DUP8 ADD PUSH3 0x298 JUMP JUMPDEST SWAP2 POP PUSH1 0x80 DUP7 ADD MLOAD SWAP1 POP SWAP3 SWAP6 POP SWAP3 SWAP6 SWAP1 SWAP4 POP JUMP JUMPDEST PUSH1 0x1 DUP2 DUP2 SHR SWAP1 DUP3 AND DUP1 PUSH3 0x363 JUMPI PUSH1 0x7F DUP3 AND SWAP2 POP JUMPDEST PUSH1 0x20 DUP3 LT DUP2 EQ ISZERO PUSH3 0x385 JUMPI PUSH4 0x4E487B71 PUSH1 0xE0 SHL PUSH1 0x0 MSTORE PUSH1 0x22 PUSH1 0x4 MSTORE PUSH1 0x24 PUSH1 0x0 REVERT JUMPDEST POP SWAP2 SWAP1 POP JUMP JUMPDEST PUSH2 0x2DE7 DUP1 PUSH3 0x39B PUSH1 0x0 CODECOPY PUSH1 0x0 RETURN INVALID PUSH1 0x80 PUSH1 0x40 MSTORE PUSH1 0x4 CALLDATASIZE LT PUSH2 0x249 JUMPI PUSH1 0x0 CALLDATALOAD PUSH1 0xE0 SHR DUP1 PUSH4 0x6352211E GT PUSH2 0x139 JUMPI DUP1 PUSH4 0xA22CB465 GT PUSH2 0xB6 JUMPI DUP1 PUSH4 0xD547CFB7 GT PUSH2 0x7A JUMPI DUP1 PUSH4 0xD547CFB7 EQ PUSH2 0x68C JUMPI DUP1 PUSH4 0xE985E9C5 EQ PUSH2 0x6A1 JUMPI DUP1 PUSH4 0xF2FDE38B EQ PUSH2 0x6EA JUMPI DUP1 PUSH4 0xF6E8FE1F EQ PUSH2 0x70A JUMPI DUP1 PUSH4 0xF7BB0F4B EQ PUSH2 0x71F JUMPI DUP1 PUSH4 0xF8B08712 EQ PUSH2 0x744 JUMPI PUSH1 0x0 DUP1 REVERT JUMPDEST DUP1 PUSH4 0xA22CB465 EQ PUSH2 0x605 JUMPI DUP1 PUSH4 0xB88D4FDE EQ PUSH2 0x625 JUMPI DUP1 PUSH4 0xC4E41B22 EQ PUSH2 0x645 JUMPI DUP1 PUSH4 0xC87B56DD EQ PUSH2 0x659 JUMPI DUP1 PUSH4 0xC8866D94 EQ PUSH2 0x679 JUMPI PUSH1 0x0 DUP1 REVERT JUMPDEST DUP1 PUSH4 0x8DA5CB5B GT PUSH2 0xFD JUMPI DUP1 PUSH4 0x8DA5CB5B EQ PUSH2 0x588 JUMPI DUP1 PUSH4 0x902D55A5 EQ PUSH2 0x5A6 JUMPI DUP1 PUSH4 0x91B7F5ED EQ PUSH2 0x5BB JUMPI DUP1 PUSH4 0x95D89B41 EQ PUSH2 0x5DB JUMPI DUP1 PUSH4 0x98D5FDCA EQ PUSH2 0x5F0 JUMPI PUSH1 0x0 DUP1 REVERT JUMPDEST DUP1 PUSH4 0x6352211E EQ PUSH2 0x509 JUMPI DUP1 PUSH4 0x70A08231 EQ PUSH2 0x529 JUMPI DUP1 PUSH4 0x715018A6 EQ PUSH2 0x549 JUMPI DUP1 PUSH4 0x821BCA77 EQ PUSH2 0x55E JUMPI DUP1 PUSH4 0x8456CB59 EQ PUSH2 0x573 JUMPI PUSH1 0x0 DUP1 REVERT JUMPDEST DUP1 PUSH4 0x23B872DD GT PUSH2 0x1C7 JUMPI DUP1 PUSH4 0x42842E0E GT PUSH2 0x18B JUMPI DUP1 PUSH4 0x42842E0E EQ PUSH2 0x45A JUMPI DUP1 PUSH4 0x5324F9AA EQ PUSH2 0x47A JUMPI DUP1 PUSH4 0x55F804B3 EQ PUSH2 0x4A7 JUMPI DUP1 PUSH4 0x56189236 EQ PUSH2 0x4C7 JUMPI DUP1 PUSH4 0x5C975ABB EQ PUSH2 0x4EA JUMPI PUSH1 0x0 DUP1 REVERT JUMPDEST DUP1 PUSH4 0x23B872DD EQ PUSH2 0x3D0 JUMPI DUP1 PUSH4 0x278F1FFB EQ PUSH2 0x3F0 JUMPI DUP1 PUSH4 0x39DF43FF EQ PUSH2 0x410 JUMPI DUP1 PUSH4 0x3CCFD60B EQ PUSH2 0x430 JUMPI DUP1 PUSH4 0x3F4BA83A EQ PUSH2 0x445 JUMPI PUSH1 0x0 DUP1 REVERT JUMPDEST DUP1 PUSH4 0x95EA7B3 GT PUSH2 0x20E JUMPI DUP1 PUSH4 0x95EA7B3 EQ PUSH2 0x33B JUMPI DUP1 PUSH4 0x17DC55C2 EQ PUSH2 0x35D JUMPI DUP1 PUSH4 0x1F473032 EQ PUSH2 0x37D JUMPI DUP1 PUSH4 0x20AA8C19 EQ PUSH2 0x390 JUMPI DUP1 PUSH4 0x214BB348 EQ PUSH2 0x3B0 JUMPI PUSH1 0x0 DUP1 REVERT JUMPDEST DUP1 PUSH3 0x453A98 EQ PUSH2 0x255 JUMPI DUP1 PUSH4 0x1FFC9A7 EQ PUSH2 0x29A JUMPI DUP1 PUSH4 0x55AD42E EQ PUSH2 0x2BA JUMPI DUP1 PUSH4 0x6FDDE03 EQ PUSH2 0x2E1 JUMPI DUP1 PUSH4 0x81812FC EQ PUSH2 0x303 JUMPI PUSH1 0x0 DUP1 REVERT JUMPDEST CALLDATASIZE PUSH2 0x250 JUMPI STOP JUMPDEST PUSH1 0x0 DUP1 REVERT JUMPDEST CALLVALUE DUP1 ISZERO PUSH2 0x261 JUMPI PUSH1 0x0 DUP1 REVERT JUMPDEST POP PUSH2 0x285 PUSH2 0x270 CALLDATASIZE PUSH1 0x4 PUSH2 0x2591 JUMP JUMPDEST PUSH1 0xF PUSH1 0x20 MSTORE PUSH1 0x0 SWAP1 DUP2 MSTORE PUSH1 0x40 SWAP1 KECCAK256 SLOAD PUSH1 0xFF AND DUP2 JUMP JUMPDEST PUSH1 0x40 MLOAD SWAP1 ISZERO ISZERO DUP2 MSTORE PUSH1 0x20 ADD JUMPDEST PUSH1 0x40 MLOAD DUP1 SWAP2 SUB SWAP1 RETURN JUMPDEST CALLVALUE DUP1 ISZERO PUSH2 0x2A6 JUMPI PUSH1 0x0 DUP1 REVERT JUMPDEST POP PUSH2 0x285 PUSH2 0x2B5 CALLDATASIZE PUSH1 0x4 PUSH2 0x25CB JUMP JUMPDEST PUSH2 0x78C JUMP JUMPDEST CALLVALUE DUP1 ISZERO PUSH2 0x2C6 JUMPI PUSH1 0x0 DUP1 REVERT JUMPDEST POP PUSH1 0xA SLOAD PUSH2 0x2D4 SWAP1 PUSH1 0xFF AND DUP2 JUMP JUMPDEST PUSH1 0x40 MLOAD PUSH2 0x291 SWAP2 SWAP1 PUSH2 0x25FE JUMP JUMPDEST CALLVALUE DUP1 ISZERO PUSH2 0x2ED JUMPI PUSH1 0x0 DUP1 REVERT JUMPDEST POP PUSH2 0x2F6 PUSH2 0x79D JUMP JUMPDEST PUSH1 0x40 MLOAD PUSH2 0x291 SWAP2 SWAP1 PUSH2 0x267E JUMP JUMPDEST CALLVALUE DUP1 ISZERO PUSH2 0x30F JUMPI PUSH1 0x0 DUP1 REVERT JUMPDEST POP PUSH2 0x323 PUSH2 0x31E CALLDATASIZE PUSH1 0x4 PUSH2 0x2691 JUMP JUMPDEST PUSH2 0x82F JUMP JUMPDEST PUSH1 0x40 MLOAD PUSH1 0x1 PUSH1 0x1 PUSH1 0xA0 SHL SUB SWAP1 SWAP2 AND DUP2 MSTORE PUSH1 0x20 ADD PUSH2 0x291 JUMP JUMPDEST CALLVALUE DUP1 ISZERO PUSH2 0x347 JUMPI PUSH1 0x0 DUP1 REVERT JUMPDEST POP PUSH2 0x35B PUSH2 0x356 CALLDATASIZE PUSH1 0x4 PUSH2 0x26AA JUMP JUMPDEST PUSH2 0x856 JUMP JUMPDEST STOP JUMPDEST CALLVALUE DUP1 ISZERO PUSH2 0x369 JUMPI PUSH1 0x0 DUP1 REVERT JUMPDEST POP PUSH2 0x35B PUSH2 0x378 CALLDATASIZE PUSH1 0x4 PUSH2 0x2737 JUMP JUMPDEST PUSH2 0x971 JUMP JUMPDEST PUSH2 0x35B PUSH2 0x38B CALLDATASIZE PUSH1 0x4 PUSH2 0x278B JUMP JUMPDEST PUSH2 0x9F0 JUMP JUMPDEST CALLVALUE DUP1 ISZERO PUSH2 0x39C JUMPI PUSH1 0x0 DUP1 REVERT JUMPDEST POP PUSH2 0x35B PUSH2 0x3AB CALLDATASIZE PUSH1 0x4 PUSH2 0x278B JUMP JUMPDEST PUSH2 0xB63 JUMP JUMPDEST CALLVALUE DUP1 ISZERO PUSH2 0x3BC JUMPI PUSH1 0x0 DUP1 REVERT JUMPDEST POP PUSH1 0xB SLOAD PUSH2 0x323 SWAP1 PUSH1 0x1 PUSH1 0x1 PUSH1 0xA0 SHL SUB AND DUP2 JUMP JUMPDEST CALLVALUE DUP1 ISZERO PUSH2 0x3DC JUMPI PUSH1 0x0 DUP1 REVERT JUMPDEST POP PUSH2 0x35B PUSH2 0x3EB CALLDATASIZE PUSH1 0x4 PUSH2 0x27B1 JUMP JUMPDEST PUSH2 0xBD0 JUMP JUMPDEST CALLVALUE DUP1 ISZERO PUSH2 0x3FC JUMPI PUSH1 0x0 DUP1 REVERT JUMPDEST POP PUSH2 0x35B PUSH2 0x40B CALLDATASIZE PUSH1 0x4 PUSH2 0x27F2 JUMP JUMPDEST PUSH2 0xC15 JUMP JUMPDEST CALLVALUE DUP1 ISZERO PUSH2 0x41C JUMPI PUSH1 0x0 DUP1 REVERT JUMPDEST POP PUSH2 0x35B PUSH2 0x42B CALLDATASIZE PUSH1 0x4 PUSH2 0x2591 JUMP JUMPDEST PUSH2 0xD04 JUMP JUMPDEST CALLVALUE DUP1 ISZERO PUSH2 0x43C JUMPI PUSH1 0x0 DUP1 REVERT JUMPDEST POP PUSH2 0x35B PUSH2 0xD10 JUMP JUMPDEST CALLVALUE DUP1 ISZERO PUSH2 0x451 JUMPI PUSH1 0x0 DUP1 REVERT JUMPDEST POP PUSH2 0x35B PUSH2 0xD51 JUMP JUMPDEST CALLVALUE DUP1 ISZERO PUSH2 0x466 JUMPI PUSH1 0x0 DUP1 REVERT JUMPDEST POP PUSH2 0x35B PUSH2 0x475 CALLDATASIZE PUSH1 0x4 PUSH2 0x27B1 JUMP JUMPDEST PUSH2 0xD63 JUMP JUMPDEST CALLVALUE DUP1 ISZERO PUSH2 0x486 JUMPI PUSH1 0x0 DUP1 REVERT JUMPDEST POP PUSH2 0x49A PUSH2 0x495 CALLDATASIZE PUSH1 0x4 PUSH2 0x2591 JUMP JUMPDEST PUSH2 0xD7E JUMP JUMPDEST PUSH1 0x40 MLOAD PUSH2 0x291 SWAP2 SWAP1 PUSH2 0x285E JUMP JUMPDEST CALLVALUE DUP1 ISZERO PUSH2 0x4B3 JUMPI PUSH1 0x0 DUP1 REVERT JUMPDEST POP PUSH2 0x35B PUSH2 0x4C2 CALLDATASIZE PUSH1 0x4 PUSH2 0x292E JUMP JUMPDEST PUSH2 0xDEA JUMP JUMPDEST CALLVALUE DUP1 ISZERO PUSH2 0x4D3 JUMPI PUSH1 0x0 DUP1 REVERT JUMPDEST POP PUSH2 0x4DC PUSH2 0xE09 JUMP JUMPDEST PUSH1 0x40 MLOAD SWAP1 DUP2 MSTORE PUSH1 0x20 ADD PUSH2 0x291 JUMP JUMPDEST CALLVALUE DUP1 ISZERO PUSH2 0x4F6 JUMPI PUSH1 0x0 DUP1 REVERT JUMPDEST POP PUSH1 0x7 SLOAD PUSH1 0x1 PUSH1 0xA0 SHL SWAP1 DIV PUSH1 0xFF AND PUSH2 0x285 JUMP JUMPDEST CALLVALUE DUP1 ISZERO PUSH2 0x515 JUMPI PUSH1 0x0 DUP1 REVERT JUMPDEST POP PUSH2 0x323 PUSH2 0x524 CALLDATASIZE PUSH1 0x4 PUSH2 0x2691 JUMP JUMPDEST PUSH2 0xE19 JUMP JUMPDEST CALLVALUE DUP1 ISZERO PUSH2 0x535 JUMPI PUSH1 0x0 DUP1 REVERT JUMPDEST POP PUSH2 0x4DC PUSH2 0x544 CALLDATASIZE PUSH1 0x4 PUSH2 0x2591 JUMP JUMPDEST PUSH2 0xE79 JUMP JUMPDEST CALLVALUE DUP1 ISZERO PUSH2 0x555 JUMPI PUSH1 0x0 DUP1 REVERT JUMPDEST POP PUSH2 0x35B PUSH2 0xEFF JUMP JUMPDEST CALLVALUE DUP1 ISZERO PUSH2 0x56A JUMPI PUSH1 0x0 DUP1 REVERT JUMPDEST POP PUSH2 0x35B PUSH2 0xF11 JUMP JUMPDEST CALLVALUE DUP1 ISZERO PUSH2 0x57F JUMPI PUSH1 0x0 DUP1 REVERT JUMPDEST POP PUSH2 0x35B PUSH2 0x1178 JUMP JUMPDEST CALLVALUE DUP1 ISZERO PUSH2 0x594 JUMPI PUSH1 0x0 DUP1 REVERT JUMPDEST POP PUSH1 0x7 SLOAD PUSH1 0x1 PUSH1 0x1 PUSH1 0xA0 SHL SUB AND PUSH2 0x323 JUMP JUMPDEST CALLVALUE DUP1 ISZERO PUSH2 0x5B2 JUMPI PUSH1 0x0 DUP1 REVERT JUMPDEST POP PUSH2 0x4DC PUSH1 0x11 DUP2 JUMP JUMPDEST CALLVALUE DUP1 ISZERO PUSH2 0x5C7 JUMPI PUSH1 0x0 DUP1 REVERT JUMPDEST POP PUSH2 0x35B PUSH2 0x5D6 CALLDATASIZE PUSH1 0x4 PUSH2 0x2691 JUMP JUMPDEST PUSH2 0x1188 JUMP JUMPDEST CALLVALUE DUP1 ISZERO PUSH2 0x5E7 JUMPI PUSH1 0x0 DUP1 REVERT JUMPDEST POP PUSH2 0x2F6 PUSH2 0x1195 JUMP JUMPDEST CALLVALUE DUP1 ISZERO PUSH2 0x5FC JUMPI PUSH1 0x0 DUP1 REVERT JUMPDEST POP PUSH1 0x9 SLOAD PUSH2 0x4DC JUMP JUMPDEST CALLVALUE DUP1 ISZERO PUSH2 0x611 JUMPI PUSH1 0x0 DUP1 REVERT JUMPDEST POP PUSH2 0x35B PUSH2 0x620 CALLDATASIZE PUSH1 0x4 PUSH2 0x2977 JUMP JUMPDEST PUSH2 0x11A4 JUMP JUMPDEST CALLVALUE DUP1 ISZERO PUSH2 0x631 JUMPI PUSH1 0x0 DUP1 REVERT JUMPDEST POP PUSH2 0x35B PUSH2 0x640 CALLDATASIZE PUSH1 0x4 PUSH2 0x29AC JUMP JUMPDEST PUSH2 0x11AF JUMP JUMPDEST CALLVALUE DUP1 ISZERO PUSH2 0x651 JUMPI PUSH1 0x0 DUP1 REVERT JUMPDEST POP PUSH1 0x11 PUSH2 0x4DC JUMP JUMPDEST CALLVALUE DUP1 ISZERO PUSH2 0x665 JUMPI PUSH1 0x0 DUP1 REVERT JUMPDEST POP PUSH2 0x2F6 PUSH2 0x674 CALLDATASIZE PUSH1 0x4 PUSH2 0x2691 JUMP JUMPDEST PUSH2 0x11CF JUMP JUMPDEST PUSH2 0x35B PUSH2 0x687 CALLDATASIZE PUSH1 0x4 PUSH2 0x278B JUMP JUMPDEST PUSH2 0x1280 JUMP JUMPDEST CALLVALUE DUP1 ISZERO PUSH2 0x698 JUMPI PUSH1 0x0 DUP1 REVERT JUMPDEST POP PUSH2 0x2F6 PUSH2 0x14B8 JUMP JUMPDEST CALLVALUE DUP1 ISZERO PUSH2 0x6AD JUMPI PUSH1 0x0 DUP1 REVERT JUMPDEST POP PUSH2 0x285 PUSH2 0x6BC CALLDATASIZE PUSH1 0x4 PUSH2 0x2A2C JUMP JUMPDEST PUSH1 0x1 PUSH1 0x1 PUSH1 0xA0 SHL SUB SWAP2 DUP3 AND PUSH1 0x0 SWAP1 DUP2 MSTORE PUSH1 0x5 PUSH1 0x20 SWAP1 DUP2 MSTORE PUSH1 0x40 DUP1 DUP4 KECCAK256 SWAP4 SWAP1 SWAP5 AND DUP3 MSTORE SWAP2 SWAP1 SWAP2 MSTORE KECCAK256 SLOAD PUSH1 0xFF AND SWAP1 JUMP JUMPDEST CALLVALUE DUP1 ISZERO PUSH2 0x6F6 JUMPI PUSH1 0x0 DUP1 REVERT JUMPDEST POP PUSH2 0x35B PUSH2 0x705 CALLDATASIZE PUSH1 0x4 PUSH2 0x2591 JUMP JUMPDEST PUSH2 0x1546 JUMP JUMPDEST CALLVALUE DUP1 ISZERO PUSH2 0x716 JUMPI PUSH1 0x0 DUP1 REVERT JUMPDEST POP PUSH2 0x35B PUSH2 0x15BC JUMP JUMPDEST CALLVALUE DUP1 ISZERO PUSH2 0x72B JUMPI PUSH1 0x0 DUP1 REVERT JUMPDEST POP PUSH1 0xA SLOAD PUSH2 0x323 SWAP1 PUSH2 0x100 SWAP1 DIV PUSH1 0x1 PUSH1 0x1 PUSH1 0xA0 SHL SUB AND DUP2 JUMP JUMPDEST CALLVALUE DUP1 ISZERO PUSH2 0x750 JUMPI PUSH1 0x0 DUP1 REVERT JUMPDEST POP PUSH2 0x777 PUSH2 0x75F CALLDATASIZE PUSH1 0x4 PUSH2 0x2591 JUMP JUMPDEST PUSH1 0xE PUSH1 0x20 MSTORE PUSH1 0x0 SWAP1 DUP2 MSTORE PUSH1 0x40 SWAP1 KECCAK256 SLOAD PUSH4 0xFFFFFFFF AND DUP2 JUMP JUMPDEST PUSH1 0x40 MLOAD PUSH4 0xFFFFFFFF SWAP1 SWAP2 AND DUP2 MSTORE PUSH1 0x20 ADD PUSH2 0x291 JUMP JUMPDEST PUSH1 0x0 PUSH2 0x797 DUP3 PUSH2 0x17A1 JUMP JUMPDEST SWAP3 SWAP2 POP POP JUMP JUMPDEST PUSH1 0x60 PUSH1 0x0 DUP1 SLOAD PUSH2 0x7AC SWAP1 PUSH2 0x2A65 JUMP JUMPDEST DUP1 PUSH1 0x1F ADD PUSH1 0x20 DUP1 SWAP2 DIV MUL PUSH1 0x20 ADD PUSH1 0x40 MLOAD SWAP1 DUP2 ADD PUSH1 0x40 MSTORE DUP1 SWAP3 SWAP2 SWAP1 DUP2 DUP2 MSTORE PUSH1 0x20 ADD DUP3 DUP1 SLOAD PUSH2 0x7D8 SWAP1 PUSH2 0x2A65 JUMP JUMPDEST DUP1 ISZERO PUSH2 0x825 JUMPI DUP1 PUSH1 0x1F LT PUSH2 0x7FA JUMPI PUSH2 0x100 DUP1 DUP4 SLOAD DIV MUL DUP4 MSTORE SWAP2 PUSH1 0x20 ADD SWAP2 PUSH2 0x825 JUMP JUMPDEST DUP3 ADD SWAP2 SWAP1 PUSH1 0x0 MSTORE PUSH1 0x20 PUSH1 0x0 KECCAK256 SWAP1 JUMPDEST DUP2 SLOAD DUP2 MSTORE SWAP1 PUSH1 0x1 ADD SWAP1 PUSH1 0x20 ADD DUP1 DUP4 GT PUSH2 0x808 JUMPI DUP3 SWAP1 SUB PUSH1 0x1F AND DUP3 ADD SWAP2 JUMPDEST POP POP POP POP POP SWAP1 POP SWAP1 JUMP JUMPDEST PUSH1 0x0 PUSH2 0x83A DUP3 PUSH2 0x17F1 JUMP JUMPDEST POP PUSH1 0x0 SWAP1 DUP2 MSTORE PUSH1 0x4 PUSH1 0x20 MSTORE PUSH1 0x40 SWAP1 KECCAK256 SLOAD PUSH1 0x1 PUSH1 0x1 PUSH1 0xA0 SHL SUB AND SWAP1 JUMP JUMPDEST PUSH1 0x0 PUSH2 0x861 DUP3 PUSH2 0xE19 JUMP JUMPDEST SWAP1 POP DUP1 PUSH1 0x1 PUSH1 0x1 PUSH1 0xA0 SHL SUB AND DUP4 PUSH1 0x1 PUSH1 0x1 PUSH1 0xA0 SHL SUB AND EQ ISZERO PUSH2 0x8D4 JUMPI PUSH1 0x40 MLOAD PUSH3 0x461BCD PUSH1 0xE5 SHL DUP2 MSTORE PUSH1 0x20 PUSH1 0x4 DUP3 ADD MSTORE PUSH1 0x21 PUSH1 0x24 DUP3 ADD MSTORE PUSH32 0x4552433732313A20617070726F76616C20746F2063757272656E74206F776E65 PUSH1 0x44 DUP3 ADD MSTORE PUSH1 0x39 PUSH1 0xF9 SHL PUSH1 0x64 DUP3 ADD MSTORE PUSH1 0x84 ADD JUMPDEST PUSH1 0x40 MLOAD DUP1 SWAP2 SUB SWAP1 REVERT JUMPDEST CALLER PUSH1 0x1 PUSH1 0x1 PUSH1 0xA0 SHL SUB DUP3 AND EQ DUP1 PUSH2 0x8F0 JUMPI POP PUSH2 0x8F0 DUP2 CALLER PUSH2 0x6BC JUMP JUMPDEST PUSH2 0x962 JUMPI PUSH1 0x40 MLOAD PUSH3 0x461BCD PUSH1 0xE5 SHL DUP2 MSTORE PUSH1 0x20 PUSH1 0x4 DUP3 ADD MSTORE PUSH1 0x3D PUSH1 0x24 DUP3 ADD MSTORE PUSH32 0x4552433732313A20617070726F76652063616C6C6572206973206E6F7420746F PUSH1 0x44 DUP3 ADD MSTORE PUSH32 0x6B656E206F776E6572206F7220617070726F76656420666F7220616C6C000000 PUSH1 0x64 DUP3 ADD MSTORE PUSH1 0x84 ADD PUSH2 0x8CB JUMP JUMPDEST PUSH2 0x96C DUP4 DUP4 PUSH2 0x1850 JUMP JUMPDEST POP POP POP JUMP JUMPDEST PUSH2 0x979 PUSH2 0x18BE JUMP JUMPDEST PUSH1 0x0 JUMPDEST DUP3 DUP2 LT ISZERO PUSH2 0x9EA JUMPI DUP2 PUSH1 0xF PUSH1 0x0 DUP7 DUP7 DUP6 DUP2 DUP2 LT PUSH2 0x99B JUMPI PUSH2 0x99B PUSH2 0x2AA0 JUMP JUMPDEST SWAP1 POP PUSH1 0x20 MUL ADD PUSH1 0x20 DUP2 ADD SWAP1 PUSH2 0x9B0 SWAP2 SWAP1 PUSH2 0x2591 JUMP JUMPDEST PUSH1 0x1 PUSH1 0x1 PUSH1 0xA0 SHL SUB AND DUP2 MSTORE PUSH1 0x20 DUP2 ADD SWAP2 SWAP1 SWAP2 MSTORE PUSH1 0x40 ADD PUSH1 0x0 KECCAK256 DUP1 SLOAD PUSH1 0xFF NOT AND SWAP2 ISZERO ISZERO SWAP2 SWAP1 SWAP2 OR SWAP1 SSTORE DUP1 PUSH2 0x9E2 DUP2 PUSH2 0x2ACC JUMP JUMPDEST SWAP2 POP POP PUSH2 0x97C JUMP JUMPDEST POP POP POP POP JUMP JUMPDEST DUP1 PUSH1 0x3 DUP2 PUSH4 0xFFFFFFFF AND GT ISZERO DUP1 ISZERO PUSH2 0xA0E JUMPI POP PUSH1 0x0 DUP2 PUSH4 0xFFFFFFFF AND GT JUMPDEST PUSH2 0xA4B JUMPI PUSH1 0x40 MLOAD PUSH3 0x461BCD PUSH1 0xE5 SHL DUP2 MSTORE PUSH1 0x20 PUSH1 0x4 DUP3 ADD MSTORE PUSH1 0xE PUSH1 0x24 DUP3 ADD MSTORE PUSH14 0x125B9D985B1A5908185B5BDD5B9D PUSH1 0x92 SHL PUSH1 0x44 DUP3 ADD MSTORE PUSH1 0x64 ADD PUSH2 0x8CB JUMP JUMPDEST PUSH1 0x2 PUSH1 0xA SLOAD PUSH1 0xFF AND PUSH1 0x2 DUP2 GT ISZERO PUSH2 0xA64 JUMPI PUSH2 0xA64 PUSH2 0x25E8 JUMP JUMPDEST EQ PUSH2 0xAA2 JUMPI PUSH1 0x40 MLOAD PUSH3 0x461BCD PUSH1 0xE5 SHL DUP2 MSTORE PUSH1 0x20 PUSH1 0x4 DUP3 ADD MSTORE PUSH1 0xE PUSH1 0x24 DUP3 ADD MSTORE PUSH14 0x4E6F205075626C69632053616C65 PUSH1 0x90 SHL PUSH1 0x44 DUP3 ADD MSTORE PUSH1 0x64 ADD PUSH2 0x8CB JUMP JUMPDEST CALLVALUE PUSH1 0x9 SLOAD DUP4 PUSH4 0xFFFFFFFF AND PUSH2 0xAB7 SWAP2 SWAP1 PUSH2 0x2AE7 JUMP JUMPDEST EQ PUSH2 0xAF7 JUMPI PUSH1 0x40 MLOAD PUSH3 0x461BCD PUSH1 0xE5 SHL DUP2 MSTORE PUSH1 0x20 PUSH1 0x4 DUP3 ADD MSTORE PUSH1 0x10 PUSH1 0x24 DUP3 ADD MSTORE PUSH16 0x125B9CDD59999A58D95B9D08119D5B99 PUSH1 0x82 SHL PUSH1 0x44 DUP3 ADD MSTORE PUSH1 0x64 ADD PUSH2 0x8CB JUMP JUMPDEST PUSH1 0x11 DUP3 PUSH4 0xFFFFFFFF AND PUSH2 0xB09 PUSH1 0x8 SLOAD SWAP1 JUMP JUMPDEST PUSH2 0xB13 SWAP2 SWAP1 PUSH2 0x2B06 JUMP JUMPDEST GT ISZERO PUSH2 0xB31 JUMPI PUSH1 0x40 MLOAD PUSH3 0x461BCD PUSH1 0xE5 SHL DUP2 MSTORE PUSH1 0x4 ADD PUSH2 0x8CB SWAP1 PUSH2 0x2B1E JUMP JUMPDEST PUSH1 0x0 JUMPDEST DUP3 PUSH4 0xFFFFFFFF AND DUP2 PUSH4 0xFFFFFFFF AND LT ISZERO PUSH2 0x96C JUMPI PUSH2 0xB51 CALLER PUSH2 0x1918 JUMP JUMPDEST DUP1 PUSH2 0xB5B DUP2 PUSH2 0x2B46 JUMP JUMPDEST SWAP2 POP POP PUSH2 0xB34 JUMP JUMPDEST PUSH2 0xB6B PUSH2 0x18BE JUMP JUMPDEST PUSH4 0xFFFFFFFF DUP2 AND PUSH2 0xB8E JUMPI PUSH1 0xA DUP1 SLOAD PUSH1 0x0 SWAP2 SWAP1 PUSH1 0xFF NOT AND PUSH1 0x1 DUP4 JUMPDEST MUL OR SWAP1 SSTORE POP POP JUMP JUMPDEST DUP1 PUSH4 0xFFFFFFFF AND PUSH1 0x1 EQ ISZERO PUSH2 0xBB0 JUMPI PUSH1 0xA DUP1 SLOAD PUSH1 0x1 SWAP2 SWAP1 PUSH1 0xFF NOT AND DUP3 DUP1 PUSH2 0xB86 JUMP JUMPDEST DUP1 PUSH4 0xFFFFFFFF AND PUSH1 0x2 EQ ISZERO PUSH2 0xBCD JUMPI PUSH1 0xA DUP1 SLOAD PUSH1 0xFF NOT AND PUSH1 0x2 OR SWAP1 SSTORE JUMPDEST POP JUMP JUMPDEST PUSH1 0x1 PUSH1 0x1 PUSH1 0xA0 SHL SUB DUP4 AND PUSH2 0xBE3 JUMPI PUSH1 0x0 DUP1 REVERT JUMPDEST PUSH1 0x1 PUSH1 0x1 PUSH1 0xA0 SHL SUB DUP3 AND PUSH2 0xBF6 JUMPI PUSH1 0x0 DUP1 REVERT JUMPDEST PUSH2 0xC01 DUP4 DUP4 DUP4 PUSH2 0x194A JUMP JUMPDEST PUSH2 0xC0B DUP4 DUP3 PUSH2 0x197B JUMP JUMPDEST PUSH2 0x96C DUP3 DUP3 PUSH2 0x1B2B JUMP JUMPDEST PUSH2 0xC1D PUSH2 0x18BE JUMP JUMPDEST DUP3 DUP2 EQ PUSH2 0xC5D JUMPI PUSH1 0x40 MLOAD PUSH3 0x461BCD PUSH1 0xE5 SHL DUP2 MSTORE PUSH1 0x20 PUSH1 0x4 DUP3 ADD MSTORE PUSH1 0xE PUSH1 0x24 DUP3 ADD MSTORE PUSH14 0x496E76616C696420496E70757473 PUSH1 0x90 SHL PUSH1 0x44 DUP3 ADD MSTORE PUSH1 0x64 ADD PUSH2 0x8CB JUMP JUMPDEST PUSH1 0x0 JUMPDEST DUP4 DUP2 LT ISZERO PUSH2 0xCFD JUMPI DUP3 DUP3 DUP3 DUP2 DUP2 LT PUSH2 0xC7A JUMPI PUSH2 0xC7A PUSH2 0x2AA0 JUMP JUMPDEST SWAP1 POP PUSH1 0x20 MUL ADD PUSH1 0x20 DUP2 ADD SWAP1 PUSH2 0xC8F SWAP2 SWAP1 PUSH2 0x278B JUMP JUMPDEST PUSH1 0xE PUSH1 0x0 DUP8 DUP8 DUP6 DUP2 DUP2 LT PUSH2 0xCA5 JUMPI PUSH2 0xCA5 PUSH2 0x2AA0 JUMP JUMPDEST SWAP1 POP PUSH1 0x20 MUL ADD PUSH1 0x20 DUP2 ADD SWAP1 PUSH2 0xCBA SWAP2 SWAP1 PUSH2 0x2591 JUMP JUMPDEST PUSH1 0x1 PUSH1 0x1 PUSH1 0xA0 SHL SUB AND DUP2 MSTORE PUSH1 0x20 DUP2 ADD SWAP2 SWAP1 SWAP2 MSTORE PUSH1 0x40 ADD PUSH1 0x0 KECCAK256 DUP1 SLOAD PUSH4 0xFFFFFFFF NOT AND PUSH4 0xFFFFFFFF SWAP3 SWAP1 SWAP3 AND SWAP2 SWAP1 SWAP2 OR SWAP1 SSTORE DUP1 PUSH2 0xCF5 DUP2 PUSH2 0x2ACC JUMP JUMPDEST SWAP2 POP POP PUSH2 0xC60 JUMP JUMPDEST POP POP POP POP POP JUMP JUMPDEST DUP1 PUSH1 0x1 PUSH1 0x1 PUSH1 0xA0 SHL SUB AND SELFDESTRUCT JUMPDEST PUSH2 0xD18 PUSH2 0x18BE JUMP JUMPDEST PUSH1 0x7 SLOAD PUSH1 0x40 MLOAD PUSH1 0x1 PUSH1 0x1 PUSH1 0xA0 SHL SUB SWAP1 SWAP2 AND SWAP1 SELFBALANCE DUP1 ISZERO PUSH2 0x8FC MUL SWAP2 PUSH1 0x0 DUP2 DUP2 DUP2 DUP6 DUP9 DUP9 CALL SWAP4 POP POP POP POP ISZERO DUP1 ISZERO PUSH2 0xBCD JUMPI RETURNDATASIZE PUSH1 0x0 DUP1 RETURNDATACOPY RETURNDATASIZE PUSH1 0x0 REVERT JUMPDEST PUSH2 0xD59 PUSH2 0x18BE JUMP JUMPDEST PUSH2 0xD61 PUSH2 0x1B57 JUMP JUMPDEST JUMP JUMPDEST PUSH2 0x96C DUP4 DUP4 DUP4 PUSH1 0x40 MLOAD DUP1 PUSH1 0x20 ADD PUSH1 0x40 MSTORE DUP1 PUSH1 0x0 DUP2 MSTORE POP PUSH2 0x11AF JUMP JUMPDEST PUSH1 0x1 PUSH1 0x1 PUSH1 0xA0 SHL SUB DUP2 AND PUSH1 0x0 SWAP1 DUP2 MSTORE PUSH1 0xD PUSH1 0x20 SWAP1 DUP2 MSTORE PUSH1 0x40 SWAP2 DUP3 SWAP1 KECCAK256 DUP1 SLOAD DUP4 MLOAD DUP2 DUP5 MUL DUP2 ADD DUP5 ADD SWAP1 SWAP5 MSTORE DUP1 DUP5 MSTORE PUSH1 0x60 SWAP4 SWAP3 DUP4 ADD DUP3 DUP3 DUP1 ISZERO PUSH2 0xDDE JUMPI PUSH1 0x20 MUL DUP3 ADD SWAP2 SWAP1 PUSH1 0x0 MSTORE PUSH1 0x20 PUSH1 0x0 KECCAK256 SWAP1 JUMPDEST DUP2 SLOAD DUP2 MSTORE PUSH1 0x20 ADD SWAP1 PUSH1 0x1 ADD SWAP1 DUP1 DUP4 GT PUSH2 0xDCA JUMPI JUMPDEST POP POP POP POP POP SWAP1 POP SWAP2 SWAP1 POP JUMP JUMPDEST PUSH2 0xDF2 PUSH2 0x18BE JUMP JUMPDEST DUP1 MLOAD PUSH2 0xE05 SWAP1 PUSH1 0xC SWAP1 PUSH1 0x20 DUP5 ADD SWAP1 PUSH2 0x24E3 JUMP JUMPDEST POP POP JUMP JUMPDEST PUSH1 0x0 PUSH2 0xE14 PUSH1 0x8 SLOAD SWAP1 JUMP JUMPDEST SWAP1 POP SWAP1 JUMP JUMPDEST PUSH1 0x0 DUP2 DUP2 MSTORE PUSH1 0x2 PUSH1 0x20 MSTORE PUSH1 0x40 DUP2 KECCAK256 SLOAD PUSH1 0x1 PUSH1 0x1 PUSH1 0xA0 SHL SUB AND DUP1 PUSH2 0x797 JUMPI PUSH1 0x40 MLOAD PUSH3 0x461BCD PUSH1 0xE5 SHL DUP2 MSTORE PUSH1 0x20 PUSH1 0x4 DUP3 ADD MSTORE PUSH1 0x18 PUSH1 0x24 DUP3 ADD MSTORE PUSH24 0x115490CDCC8C4E881A5B9D985B1A59081D1BDAD95B881251 PUSH1 0x42 SHL PUSH1 0x44 DUP3 ADD MSTORE PUSH1 0x64 ADD PUSH2 0x8CB JUMP JUMPDEST PUSH1 0x0 PUSH1 0x1 PUSH1 0x1 PUSH1 0xA0 SHL SUB DUP3 AND PUSH2 0xEE3 JUMPI PUSH1 0x40 MLOAD PUSH3 0x461BCD PUSH1 0xE5 SHL DUP2 MSTORE PUSH1 0x20 PUSH1 0x4 DUP3 ADD MSTORE PUSH1 0x29 PUSH1 0x24 DUP3 ADD MSTORE PUSH32 0x4552433732313A2061646472657373207A65726F206973206E6F742061207661 PUSH1 0x44 DUP3 ADD MSTORE PUSH9 0x3634B21037BBB732B9 PUSH1 0xB9 SHL PUSH1 0x64 DUP3 ADD MSTORE PUSH1 0x84 ADD PUSH2 0x8CB JUMP JUMPDEST POP PUSH1 0x1 PUSH1 0x1 PUSH1 0xA0 SHL SUB AND PUSH1 0x0 SWAP1 DUP2 MSTORE PUSH1 0x3 PUSH1 0x20 MSTORE PUSH1 0x40 SWAP1 KECCAK256 SLOAD SWAP1 JUMP JUMPDEST PUSH2 0xF07 PUSH2 0x18BE JUMP JUMPDEST PUSH2 0xD61 PUSH1 0x0 PUSH2 0x1BAC JUMP JUMPDEST PUSH1 0x0 PUSH1 0xA SLOAD PUSH1 0xFF AND PUSH1 0x2 DUP2 GT ISZERO PUSH2 0xF2A JUMPI PUSH2 0xF2A PUSH2 0x25E8 JUMP JUMPDEST EQ PUSH2 0xF66 JUMPI PUSH1 0x40 MLOAD PUSH3 0x461BCD PUSH1 0xE5 SHL DUP2 MSTORE PUSH1 0x20 PUSH1 0x4 DUP3 ADD MSTORE PUSH1 0xC PUSH1 0x24 DUP3 ADD MSTORE PUSH12 0x4E6F20467265652053616C65 PUSH1 0xA0 SHL PUSH1 0x44 DUP3 ADD MSTORE PUSH1 0x64 ADD PUSH2 0x8CB JUMP JUMPDEST CALLER PUSH1 0x0 SWAP1 DUP2 MSTORE PUSH1 0xE PUSH1 0x20 MSTORE PUSH1 0x40 SWAP1 KECCAK256 SLOAD PUSH1 0x11 SWAP1 PUSH4 0xFFFFFFFF AND PUSH2 0xF88 PUSH1 0x8 SLOAD SWAP1 JUMP JUMPDEST PUSH2 0xF92 SWAP2 SWAP1 PUSH2 0x2B06 JUMP JUMPDEST GT ISZERO PUSH2 0xFB0 JUMPI PUSH1 0x40 MLOAD PUSH3 0x461BCD PUSH1 0xE5 SHL DUP2 MSTORE PUSH1 0x4 ADD PUSH2 0x8CB SWAP1 PUSH2 0x2B1E JUMP JUMPDEST CALLER PUSH1 0x0 SWAP1 DUP2 MSTORE PUSH1 0xE PUSH1 0x20 MSTORE PUSH1 0x40 SWAP1 KECCAK256 SLOAD PUSH4 0xFFFFFFFF AND PUSH2 0x1004 JUMPI PUSH1 0x40 MLOAD PUSH3 0x461BCD PUSH1 0xE5 SHL DUP2 MSTORE PUSH1 0x20 PUSH1 0x4 DUP3 ADD MSTORE PUSH1 0xF PUSH1 0x24 DUP3 ADD MSTORE PUSH15 0x139BDD0815DA1A5D195B1A5CDD1959 PUSH1 0x8A SHL PUSH1 0x44 DUP3 ADD MSTORE PUSH1 0x64 ADD PUSH2 0x8CB JUMP JUMPDEST PUSH1 0xA SLOAD PUSH1 0x40 MLOAD PUSH4 0x70A08231 PUSH1 0xE0 SHL DUP2 MSTORE CALLER PUSH1 0x4 DUP3 ADD MSTORE PUSH1 0x0 SWAP2 PUSH2 0x100 SWAP1 DIV PUSH1 0x1 PUSH1 0x1 PUSH1 0xA0 SHL SUB AND SWAP1 PUSH4 0x70A08231 SWAP1 PUSH1 0x24 ADD PUSH1 0x20 PUSH1 0x40 MLOAD DUP1 DUP4 SUB DUP2 DUP7 GAS STATICCALL ISZERO DUP1 ISZERO PUSH2 0x1052 JUMPI RETURNDATASIZE PUSH1 0x0 DUP1 RETURNDATACOPY RETURNDATASIZE PUSH1 0x0 REVERT JUMPDEST POP POP POP POP PUSH1 0x40 MLOAD RETURNDATASIZE PUSH1 0x1F NOT PUSH1 0x1F DUP3 ADD AND DUP3 ADD DUP1 PUSH1 0x40 MSTORE POP DUP2 ADD SWAP1 PUSH2 0x1076 SWAP2 SWAP1 PUSH2 0x2B6A JUMP JUMPDEST GT PUSH2 0x1082 JUMPI PUSH1 0x0 PUSH2 0x1085 JUMP JUMPDEST PUSH1 0x1 JUMPDEST PUSH1 0x40 MLOAD PUSH4 0x70A08231 PUSH1 0xE0 SHL DUP2 MSTORE CALLER PUSH1 0x4 DUP3 ADD MSTORE PUSH1 0xFF SWAP2 SWAP1 SWAP2 AND SWAP1 ADDRESS SWAP1 PUSH4 0x70A08231 SWAP1 PUSH1 0x24 ADD PUSH1 0x20 PUSH1 0x40 MLOAD DUP1 DUP4 SUB DUP2 DUP7 GAS STATICCALL ISZERO DUP1 ISZERO PUSH2 0x10C7 JUMPI RETURNDATASIZE PUSH1 0x0 DUP1 RETURNDATACOPY RETURNDATASIZE PUSH1 0x0 REVERT JUMPDEST POP POP POP POP PUSH1 0x40 MLOAD RETURNDATASIZE PUSH1 0x1F NOT PUSH1 0x1F DUP3 ADD AND DUP3 ADD DUP1 PUSH1 0x40 MSTORE POP DUP2 ADD SWAP1 PUSH2 0x10EB SWAP2 SWAP1 PUSH2 0x2B6A JUMP JUMPDEST GT ISZERO PUSH2 0x1139 JUMPI PUSH1 0x40 MLOAD PUSH3 0x461BCD PUSH1 0xE5 SHL DUP2 MSTORE PUSH1 0x20 PUSH1 0x4 DUP3 ADD MSTORE PUSH1 0x18 PUSH1 0x24 DUP3 ADD MSTORE PUSH32 0x416C7265616479206D696E7465642066726565204E4654730000000000000000 PUSH1 0x44 DUP3 ADD MSTORE PUSH1 0x64 ADD PUSH2 0x8CB JUMP JUMPDEST PUSH1 0x0 JUMPDEST CALLER PUSH1 0x0 SWAP1 DUP2 MSTORE PUSH1 0xE PUSH1 0x20 MSTORE PUSH1 0x40 SWAP1 KECCAK256 SLOAD PUSH4 0xFFFFFFFF SWAP1 DUP2 AND SWAP1 DUP3 AND LT ISZERO PUSH2 0xBCD JUMPI PUSH2 0x1166 CALLER PUSH2 0x1918 JUMP JUMPDEST DUP1 PUSH2 0x1170 DUP2 PUSH2 0x2B46 JUMP JUMPDEST SWAP2 POP POP PUSH2 0x113C JUMP JUMPDEST PUSH2 0x1180 PUSH2 0x18BE JUMP JUMPDEST PUSH2 0xD61 PUSH2 0x1BFE JUMP JUMPDEST PUSH2 0x1190 PUSH2 0x18BE JUMP JUMPDEST PUSH1 0x9 SSTORE JUMP JUMPDEST PUSH1 0x60 PUSH1 0x1 DUP1 SLOAD PUSH2 0x7AC SWAP1 PUSH2 0x2A65 JUMP JUMPDEST PUSH2 0xE05 CALLER DUP4 DUP4 PUSH2 0x1C41 JUMP JUMPDEST PUSH2 0x11BB DUP5 DUP5 DUP5 DUP5 PUSH2 0x1D10 JUMP JUMPDEST PUSH2 0x11C5 DUP5 DUP4 PUSH2 0x197B JUMP JUMPDEST PUSH2 0x9EA DUP4 DUP4 PUSH2 0x1B2B JUMP JUMPDEST PUSH1 0x0 DUP2 DUP2 MSTORE PUSH1 0x2 PUSH1 0x20 MSTORE PUSH1 0x40 SWAP1 KECCAK256 SLOAD PUSH1 0x60 SWAP1 PUSH1 0x1 PUSH1 0x1 PUSH1 0xA0 SHL SUB AND PUSH2 0x124E JUMPI PUSH1 0x40 MLOAD PUSH3 0x461BCD PUSH1 0xE5 SHL DUP2 MSTORE PUSH1 0x20 PUSH1 0x4 DUP3 ADD MSTORE PUSH1 0x2F PUSH1 0x24 DUP3 ADD MSTORE PUSH32 0x4552433732314D657461646174613A2055524920717565727920666F72206E6F PUSH1 0x44 DUP3 ADD MSTORE PUSH15 0x3732BC34B9BA32B73A103A37B5B2B7 PUSH1 0x89 SHL PUSH1 0x64 DUP3 ADD MSTORE PUSH1 0x84 ADD PUSH2 0x8CB JUMP JUMPDEST PUSH1 0xC PUSH2 0x1259 DUP4 PUSH2 0x1D42 JUMP JUMPDEST PUSH1 0x40 MLOAD PUSH1 0x20 ADD PUSH2 0x126A SWAP3 SWAP2 SWAP1 PUSH2 0x2B9F JUMP JUMPDEST PUSH1 0x40 MLOAD PUSH1 0x20 DUP2 DUP4 SUB SUB DUP2 MSTORE SWAP1 PUSH1 0x40 MSTORE SWAP1 POP SWAP2 SWAP1 POP JUMP JUMPDEST DUP1 PUSH1 0x3 DUP2 PUSH4 0xFFFFFFFF AND GT ISZERO DUP1 ISZERO PUSH2 0x129E JUMPI POP PUSH1 0x0 DUP2 PUSH4 0xFFFFFFFF AND GT JUMPDEST PUSH2 0x12DB JUMPI PUSH1 0x40 MLOAD PUSH3 0x461BCD PUSH1 0xE5 SHL DUP2 MSTORE PUSH1 0x20 PUSH1 0x4 DUP3 ADD MSTORE PUSH1 0xE PUSH1 0x24 DUP3 ADD MSTORE PUSH14 0x125B9D985B1A5908185B5BDD5B9D PUSH1 0x92 SHL PUSH1 0x44 DUP3 ADD MSTORE PUSH1 0x64 ADD PUSH2 0x8CB JUMP JUMPDEST PUSH1 0x1 PUSH1 0xA SLOAD PUSH1 0xFF AND PUSH1 0x2 DUP2 GT ISZERO PUSH2 0x12F4 JUMPI PUSH2 0x12F4 PUSH2 0x25E8 JUMP JUMPDEST EQ PUSH2 0x1331 JUMPI PUSH1 0x40 MLOAD PUSH3 0x461BCD PUSH1 0xE5 SHL DUP2 MSTORE PUSH1 0x20 PUSH1 0x4 DUP3 ADD MSTORE PUSH1 0xD PUSH1 0x24 DUP3 ADD MSTORE PUSH13 0x4E6F204561726C792053616C65 PUSH1 0x98 SHL PUSH1 0x44 DUP3 ADD MSTORE PUSH1 0x64 ADD PUSH2 0x8CB JUMP JUMPDEST CALLVALUE PUSH1 0x9 SLOAD DUP4 PUSH4 0xFFFFFFFF AND PUSH2 0x1346 SWAP2 SWAP1 PUSH2 0x2AE7 JUMP JUMPDEST EQ PUSH2 0x1386 JUMPI PUSH1 0x40 MLOAD PUSH3 0x461BCD PUSH1 0xE5 SHL DUP2 MSTORE PUSH1 0x20 PUSH1 0x4 DUP3 ADD MSTORE PUSH1 0x10 PUSH1 0x24 DUP3 ADD MSTORE PUSH16 0x125B9CDD59999A58D95B9D08119D5B99 PUSH1 0x82 SHL PUSH1 0x44 DUP3 ADD MSTORE PUSH1 0x64 ADD PUSH2 0x8CB JUMP JUMPDEST PUSH1 0x11 DUP3 PUSH4 0xFFFFFFFF AND PUSH2 0x1398 PUSH1 0x8 SLOAD SWAP1 JUMP JUMPDEST PUSH2 0x13A2 SWAP2 SWAP1 PUSH2 0x2B06 JUMP JUMPDEST GT ISZERO PUSH2 0x13C0 JUMPI PUSH1 0x40 MLOAD PUSH3 0x461BCD PUSH1 0xE5 SHL DUP2 MSTORE PUSH1 0x4 ADD PUSH2 0x8CB SWAP1 PUSH2 0x2B1E JUMP JUMPDEST PUSH1 0xB SLOAD PUSH1 0x40 MLOAD PUSH4 0x70A08231 PUSH1 0xE0 SHL DUP2 MSTORE CALLER PUSH1 0x4 DUP3 ADD MSTORE PUSH1 0x0 SWAP2 PUSH1 0x1 PUSH1 0x1 PUSH1 0xA0 SHL SUB AND SWAP1 PUSH4 0x70A08231 SWAP1 PUSH1 0x24 ADD PUSH1 0x20 PUSH1 0x40 MLOAD DUP1 DUP4 SUB DUP2 DUP7 GAS STATICCALL ISZERO DUP1 ISZERO PUSH2 0x1409 JUMPI RETURNDATASIZE PUSH1 0x0 DUP1 RETURNDATACOPY RETURNDATASIZE PUSH1 0x0 REVERT JUMPDEST POP POP POP POP PUSH1 0x40 MLOAD RETURNDATASIZE PUSH1 0x1F NOT PUSH1 0x1F DUP3 ADD AND DUP3 ADD DUP1 PUSH1 0x40 MSTORE POP DUP2 ADD SWAP1 PUSH2 0x142D SWAP2 SWAP1 PUSH2 0x2B6A JUMP JUMPDEST GT DUP1 PUSH2 0x1448 JUMPI POP CALLER PUSH1 0x0 SWAP1 DUP2 MSTORE PUSH1 0xF PUSH1 0x20 MSTORE PUSH1 0x40 SWAP1 KECCAK256 SLOAD PUSH1 0xFF AND JUMPDEST PUSH2 0x1486 JUMPI PUSH1 0x40 MLOAD PUSH3 0x461BCD PUSH1 0xE5 SHL DUP2 MSTORE PUSH1 0x20 PUSH1 0x4 DUP3 ADD MSTORE PUSH1 0xF PUSH1 0x24 DUP3 ADD MSTORE PUSH15 0x139BDD0815DA1A5D195B1A5CDD1959 PUSH1 0x8A SHL PUSH1 0x44 DUP3 ADD MSTORE PUSH1 0x64 ADD PUSH2 0x8CB JUMP JUMPDEST PUSH1 0x0 JUMPDEST DUP3 PUSH4 0xFFFFFFFF AND DUP2 PUSH4 0xFFFFFFFF AND LT ISZERO PUSH2 0x96C JUMPI PUSH2 0x14A6 CALLER PUSH2 0x1918 JUMP JUMPDEST DUP1 PUSH2 0x14B0 DUP2 PUSH2 0x2B46 JUMP JUMPDEST SWAP2 POP POP PUSH2 0x1489 JUMP JUMPDEST PUSH1 0xC DUP1 SLOAD PUSH2 0x14C5 SWAP1 PUSH2 0x2A65 JUMP JUMPDEST DUP1 PUSH1 0x1F ADD PUSH1 0x20 DUP1 SWAP2 DIV MUL PUSH1 0x20 ADD PUSH1 0x40 MLOAD SWAP1 DUP2 ADD PUSH1 0x40 MSTORE DUP1 SWAP3 SWAP2 SWAP1 DUP2 DUP2 MSTORE PUSH1 0x20 ADD DUP3 DUP1 SLOAD PUSH2 0x14F1 SWAP1 PUSH2 0x2A65 JUMP JUMPDEST DUP1 ISZERO PUSH2 0x153E JUMPI DUP1 PUSH1 0x1F LT PUSH2 0x1513 JUMPI PUSH2 0x100 DUP1 DUP4 SLOAD DIV MUL DUP4 MSTORE SWAP2 PUSH1 0x20 ADD SWAP2 PUSH2 0x153E JUMP JUMPDEST DUP3 ADD SWAP2 SWAP1 PUSH1 0x0 MSTORE PUSH1 0x20 PUSH1 0x0 KECCAK256 SWAP1 JUMPDEST DUP2 SLOAD DUP2 MSTORE SWAP1 PUSH1 0x1 ADD SWAP1 PUSH1 0x20 ADD DUP1 DUP4 GT PUSH2 0x1521 JUMPI DUP3 SWAP1 SUB PUSH1 0x1F AND DUP3 ADD SWAP2 JUMPDEST POP POP POP POP POP DUP2 JUMP JUMPDEST PUSH2 0x154E PUSH2 0x18BE JUMP JUMPDEST PUSH1 0x1 PUSH1 0x1 PUSH1 0xA0 SHL SUB DUP2 AND PUSH2 0x15B3 JUMPI PUSH1 0x40 MLOAD PUSH3 0x461BCD PUSH1 0xE5 SHL DUP2 MSTORE PUSH1 0x20 PUSH1 0x4 DUP3 ADD MSTORE PUSH1 0x26 PUSH1 0x24 DUP3 ADD MSTORE PUSH32 0x4F776E61626C653A206E6577206F776E657220697320746865207A65726F2061 PUSH1 0x44 DUP3 ADD MSTORE PUSH6 0x646472657373 PUSH1 0xD0 SHL PUSH1 0x64 DUP3 ADD MSTORE PUSH1 0x84 ADD PUSH2 0x8CB JUMP JUMPDEST PUSH2 0xBCD DUP2 PUSH2 0x1BAC JUMP JUMPDEST PUSH1 0x40 MLOAD PUSH4 0x70A08231 PUSH1 0xE0 SHL DUP2 MSTORE CALLER PUSH1 0x4 DUP3 ADD MSTORE ADDRESS SWAP1 PUSH4 0x70A08231 SWAP1 PUSH1 0x24 ADD PUSH1 0x20 PUSH1 0x40 MLOAD DUP1 DUP4 SUB DUP2 DUP7 GAS STATICCALL ISZERO DUP1 ISZERO PUSH2 0x15F7 JUMPI RETURNDATASIZE PUSH1 0x0 DUP1 RETURNDATACOPY RETURNDATASIZE PUSH1 0x0 REVERT JUMPDEST POP POP POP POP PUSH1 0x40 MLOAD RETURNDATASIZE PUSH1 0x1F NOT PUSH1 0x1F DUP3 ADD AND DUP3 ADD DUP1 PUSH1 0x40 MSTORE POP DUP2 ADD SWAP1 PUSH2 0x161B SWAP2 SWAP1 PUSH2 0x2B6A JUMP JUMPDEST ISZERO PUSH2 0x165F JUMPI PUSH1 0x40 MLOAD PUSH3 0x461BCD PUSH1 0xE5 SHL DUP2 MSTORE PUSH1 0x20 PUSH1 0x4 DUP3 ADD MSTORE PUSH1 0x14 PUSH1 0x24 DUP3 ADD MSTORE PUSH20 0x4F6E6C79206F6E65204E46542069732066726565 PUSH1 0x60 SHL PUSH1 0x44 DUP3 ADD MSTORE PUSH1 0x64 ADD PUSH2 0x8CB JUMP JUMPDEST PUSH1 0x0 PUSH1 0xA SLOAD PUSH1 0xFF AND PUSH1 0x2 DUP2 GT ISZERO PUSH2 0x1678 JUMPI PUSH2 0x1678 PUSH2 0x25E8 JUMP JUMPDEST EQ PUSH2 0x16B4 JUMPI PUSH1 0x40 MLOAD PUSH3 0x461BCD PUSH1 0xE5 SHL DUP2 MSTORE PUSH1 0x20 PUSH1 0x4 DUP3 ADD MSTORE PUSH1 0xC PUSH1 0x24 DUP3 ADD MSTORE PUSH12 0x4E6F20467265652053616C65 PUSH1 0xA0 SHL PUSH1 0x44 DUP3 ADD MSTORE PUSH1 0x64 ADD PUSH2 0x8CB JUMP JUMPDEST PUSH1 0x11 PUSH2 0x16BF PUSH1 0x8 SLOAD SWAP1 JUMP JUMPDEST PUSH2 0x16CA SWAP1 PUSH1 0x1 PUSH2 0x2B06 JUMP JUMPDEST GT ISZERO PUSH2 0x16E8 JUMPI PUSH1 0x40 MLOAD PUSH3 0x461BCD PUSH1 0xE5 SHL DUP2 MSTORE PUSH1 0x4 ADD PUSH2 0x8CB SWAP1 PUSH2 0x2B1E JUMP JUMPDEST PUSH1 0xA SLOAD PUSH1 0x40 MLOAD PUSH4 0x70A08231 PUSH1 0xE0 SHL DUP2 MSTORE CALLER PUSH1 0x4 DUP3 ADD MSTORE PUSH1 0x0 SWAP2 PUSH2 0x100 SWAP1 DIV PUSH1 0x1 PUSH1 0x1 PUSH1 0xA0 SHL SUB AND SWAP1 PUSH4 0x70A08231 SWAP1 PUSH1 0x24 ADD PUSH1 0x20 PUSH1 0x40 MLOAD DUP1 DUP4 SUB DUP2 DUP7 GAS STATICCALL ISZERO DUP1 ISZERO PUSH2 0x1736 JUMPI RETURNDATASIZE PUSH1 0x0 DUP1 RETURNDATACOPY RETURNDATASIZE PUSH1 0x0 REVERT JUMPDEST POP POP POP POP PUSH1 0x40 MLOAD RETURNDATASIZE PUSH1 0x1F NOT PUSH1 0x1F DUP3 ADD AND DUP3 ADD DUP1 PUSH1 0x40 MSTORE POP DUP2 ADD SWAP1 PUSH2 0x175A SWAP2 SWAP1 PUSH2 0x2B6A JUMP JUMPDEST GT PUSH2 0x1798 JUMPI PUSH1 0x40 MLOAD PUSH3 0x461BCD PUSH1 0xE5 SHL DUP2 MSTORE PUSH1 0x20 PUSH1 0x4 DUP3 ADD MSTORE PUSH1 0xE PUSH1 0x24 DUP3 ADD MSTORE PUSH14 0x4E6F2043686164696E752056495 PUSH1 0x94 SHL PUSH1 0x44 DUP3 ADD MSTORE PUSH1 0x64 ADD PUSH2 0x8CB JUMP JUMPDEST PUSH2 0xD61 CALLER PUSH2 0x1918 JUMP JUMPDEST PUSH1 0x0 PUSH1 0x1 PUSH1 0x1 PUSH1 0xE0 SHL SUB NOT DUP3 AND PUSH4 0x80AC58CD PUSH1 0xE0 SHL EQ DUP1 PUSH2 0x17D2 JUMPI POP PUSH1 0x1 PUSH1 0x1 PUSH1 0xE0 SHL SUB NOT DUP3 AND PUSH4 0x5B5E139F PUSH1 0xE0 SHL EQ JUMPDEST DUP1 PUSH2 0x797 JUMPI POP PUSH4 0x1FFC9A7 PUSH1 0xE0 SHL PUSH1 0x1 PUSH1 0x1 PUSH1 0xE0 SHL SUB NOT DUP4 AND EQ PUSH2 0x797 JUMP JUMPDEST PUSH1 0x0 DUP2 DUP2 MSTORE PUSH1 0x2 PUSH1 0x20 MSTORE PUSH1 0x40 SWAP1 KECCAK256 SLOAD PUSH1 0x1 PUSH1 0x1 PUSH1 0xA0 SHL SUB AND PUSH2 0xBCD JUMPI PUSH1 0x40 MLOAD PUSH3 0x461BCD PUSH1 0xE5 SHL DUP2 MSTORE PUSH1 0x20 PUSH1 0x4 DUP3 ADD MSTORE PUSH1 0x18 PUSH1 0x24 DUP3 ADD MSTORE PUSH24 0x115490CDCC8C4E881A5B9D985B1A59081D1BDAD95B881251 PUSH1 0x42 SHL PUSH1 0x44 DUP3 ADD MSTORE PUSH1 0x64 ADD PUSH2 0x8CB JUMP JUMPDEST PUSH1 0x0 DUP2 DUP2 MSTORE PUSH1 0x4 PUSH1 0x20 MSTORE PUSH1 0x40 SWAP1 KECCAK256 DUP1 SLOAD PUSH1 0x1 PUSH1 0x1 PUSH1 0xA0 SHL SUB NOT AND PUSH1 0x1 PUSH1 0x1 PUSH1 0xA0 SHL SUB DUP5 AND SWAP1 DUP2 OR SWAP1 SWAP2 SSTORE DUP2 SWAP1 PUSH2 0x1885 DUP3 PUSH2 0xE19 JUMP JUMPDEST PUSH1 0x1 PUSH1 0x1 PUSH1 0xA0 SHL SUB AND PUSH32 0x8C5BE1E5EBEC7D5BD14F71427D1E84F3DD0314C0F7B2291E5B200AC8C7C3B925 PUSH1 0x40 MLOAD PUSH1 0x40 MLOAD DUP1 SWAP2 SUB SWAP1 LOG4 POP POP JUMP JUMPDEST PUSH1 0x7 SLOAD PUSH1 0x1 PUSH1 0x1 PUSH1 0xA0 SHL SUB AND CALLER EQ PUSH2 0xD61 JUMPI PUSH1 0x40 MLOAD PUSH3 0x461BCD PUSH1 0xE5 SHL DUP2 MSTORE PUSH1 0x20 PUSH1 0x4 DUP3 ADD DUP2 SWAP1 MSTORE PUSH1 0x24 DUP3 ADD MSTORE PUSH32 0x4F776E61626C653A2063616C6C6572206973206E6F7420746865206F776E6572 PUSH1 0x44 DUP3 ADD MSTORE PUSH1 0x64 ADD PUSH2 0x8CB JUMP JUMPDEST PUSH2 0x192A DUP2 PUSH2 0x1925 PUSH1 0x8 SLOAD SWAP1 JUMP JUMPDEST PUSH2 0x1DDF JUMP JUMPDEST PUSH2 0x193C CALLER PUSH2 0x1937 PUSH1 0x8 SLOAD SWAP1 JUMP JUMPDEST PUSH2 0x1B2B JUMP JUMPDEST PUSH2 0xBCD PUSH1 0x8 DUP1 SLOAD PUSH1 0x1 ADD SWAP1 SSTORE JUMP JUMPDEST PUSH2 0x1954 CALLER DUP3 PUSH2 0x1DF9 JUMP JUMPDEST PUSH2 0x1970 JUMPI PUSH1 0x40 MLOAD PUSH3 0x461BCD PUSH1 0xE5 SHL DUP2 MSTORE PUSH1 0x4 ADD PUSH2 0x8CB SWAP1 PUSH2 0x2C46 JUMP JUMPDEST PUSH2 0x96C DUP4 DUP4 DUP4 PUSH2 0x1E78 JUMP JUMPDEST PUSH1 0x1 PUSH1 0x1 PUSH1 0xA0 SHL SUB DUP3 AND PUSH1 0x0 SWAP1 DUP2 MSTORE PUSH1 0xD PUSH1 0x20 SWAP1 DUP2 MSTORE PUSH1 0x40 DUP1 DUP4 KECCAK256 DUP1 SLOAD DUP3 MLOAD DUP2 DUP6 MUL DUP2 ADD DUP6 ADD SWAP1 SWAP4 MSTORE DUP1 DUP4 MSTORE DUP5 SWAP4 DUP4 ADD DUP3 DUP3 DUP1 ISZERO PUSH2 0x19D8 JUMPI PUSH1 0x20 MUL DUP3 ADD SWAP2 SWAP1 PUSH1 0x0 MSTORE PUSH1 0x20 PUSH1 0x0 KECCAK256 SWAP1 JUMPDEST DUP2 SLOAD DUP2 MSTORE PUSH1 0x20 ADD SWAP1 PUSH1 0x1 ADD SWAP1 DUP1 DUP4 GT PUSH2 0x19C4 JUMPI JUMPDEST POP POP POP POP POP SWAP1 POP PUSH1 0x0 JUMPDEST DUP2 MLOAD DUP2 PUSH4 0xFFFFFFFF AND LT ISZERO PUSH2 0x1A38 JUMPI DUP4 DUP3 DUP3 PUSH4 0xFFFFFFFF AND DUP2 MLOAD DUP2 LT PUSH2 0x1A0A JUMPI PUSH2 0x1A0A PUSH2 0x2AA0 JUMP JUMPDEST PUSH1 0x20 MUL PUSH1 0x20 ADD ADD MLOAD EQ ISZERO PUSH2 0x1A26 JUMPI DUP1 PUSH4 0xFFFFFFFF AND SWAP3 POP PUSH2 0x1A38 JUMP JUMPDEST DUP1 PUSH2 0x1A30 DUP2 PUSH2 0x2B46 JUMP JUMPDEST SWAP2 POP POP PUSH2 0x19E2 JUMP JUMPDEST POP PUSH1 0x0 PUSH1 0x1 DUP3 MLOAD PUSH2 0x1A49 SWAP2 SWAP1 PUSH2 0x2C93 JUMP JUMPDEST SWAP1 POP PUSH1 0x0 DUP3 DUP3 DUP2 MLOAD DUP2 LT PUSH2 0x1A5F JUMPI PUSH2 0x1A5F PUSH2 0x2AA0 JUMP JUMPDEST PUSH1 0x20 MUL PUSH1 0x20 ADD ADD MLOAD SWAP1 POP DUP1 PUSH1 0xD PUSH1 0x0 DUP9 PUSH1 0x1 PUSH1 0x1 PUSH1 0xA0 SHL SUB AND PUSH1 0x1 PUSH1 0x1 PUSH1 0xA0 SHL SUB AND DUP2 MSTORE PUSH1 0x20 ADD SWAP1 DUP2 MSTORE PUSH1 0x20 ADD PUSH1 0x0 KECCAK256 DUP6 DUP2 SLOAD DUP2 LT PUSH2 0x1AA0 JUMPI PUSH2 0x1AA0 PUSH2 0x2AA0 JUMP JUMPDEST PUSH1 0x0 SWAP2 DUP3 MSTORE PUSH1 0x20 DUP1 DUP4 KECCAK256 SWAP1 SWAP2 ADD SWAP3 SWAP1 SWAP3 SSTORE PUSH1 0x1 PUSH1 0x1 PUSH1 0xA0 SHL SUB DUP9 AND DUP2 MSTORE PUSH1 0xD SWAP1 SWAP2 MSTORE PUSH1 0x40 DUP2 KECCAK256 DUP1 SLOAD DUP5 SWAP1 DUP2 LT PUSH2 0x1AD8 JUMPI PUSH2 0x1AD8 PUSH2 0x2AA0 JUMP JUMPDEST PUSH1 0x0 SWAP2 DUP3 MSTORE PUSH1 0x20 DUP1 DUP4 KECCAK256 SWAP1 SWAP2 ADD SWAP3 SWAP1 SWAP3 SSTORE PUSH1 0x1 PUSH1 0x1 PUSH1 0xA0 SHL SUB DUP9 AND DUP2 MSTORE PUSH1 0xD SWAP1 SWAP2 MSTORE PUSH1 0x40 SWAP1 KECCAK256 DUP1 SLOAD DUP1 PUSH2 0x1B0D JUMPI PUSH2 0x1B0D PUSH2 0x2CAA JUMP JUMPDEST PUSH1 0x1 SWAP1 SUB DUP2 DUP2 SWAP1 PUSH1 0x0 MSTORE PUSH1 0x20 PUSH1 0x0 KECCAK256 ADD PUSH1 0x0 SWAP1 SSTORE SWAP1 SSTORE POP POP POP POP POP POP JUMP JUMPDEST PUSH1 0x1 PUSH1 0x1 PUSH1 0xA0 SHL SUB SWAP1 SWAP2 AND PUSH1 0x0 SWAP1 DUP2 MSTORE PUSH1 0xD PUSH1 0x20 SWAP1 DUP2 MSTORE PUSH1 0x40 DUP3 KECCAK256 DUP1 SLOAD PUSH1 0x1 DUP2 ADD DUP3 SSTORE SWAP1 DUP4 MSTORE SWAP2 KECCAK256 ADD SSTORE JUMP JUMPDEST PUSH2 0x1B5F PUSH2 0x1FE9 JUMP JUMPDEST PUSH1 0x7 DUP1 SLOAD PUSH1 0xFF PUSH1 0xA0 SHL NOT AND SWAP1 SSTORE PUSH32 0x5DB9EE0A495BF2E6FF9C91A7834C1BA4FDD244A5E8AA4E537BD38AEAE4B073AA CALLER JUMPDEST PUSH1 0x40 MLOAD PUSH1 0x1 PUSH1 0x1 PUSH1 0xA0 SHL SUB SWAP1 SWAP2 AND DUP2 MSTORE PUSH1 0x20 ADD PUSH1 0x40 MLOAD DUP1 SWAP2 SUB SWAP1 LOG1 JUMP JUMPDEST PUSH1 0x7 DUP1 SLOAD PUSH1 0x1 PUSH1 0x1 PUSH1 0xA0 SHL SUB DUP4 DUP2 AND PUSH1 0x1 PUSH1 0x1 PUSH1 0xA0 SHL SUB NOT DUP4 AND DUP2 OR SWAP1 SWAP4 SSTORE PUSH1 0x40 MLOAD SWAP2 AND SWAP2 SWAP1 DUP3 SWAP1 PUSH32 0x8BE0079C531659141344CD1FD0A4F28419497F9722A3DAAFE3B4186F6B6457E0 SWAP1 PUSH1 0x0 SWAP1 LOG3 POP POP JUMP JUMPDEST PUSH2 0x1C06 PUSH2 0x2039 JUMP JUMPDEST PUSH1 0x7 DUP1 SLOAD PUSH1 0xFF PUSH1 0xA0 SHL NOT AND PUSH1 0x1 PUSH1 0xA0 SHL OR SWAP1 SSTORE PUSH32 0x62E78CEA01BEE320CD4E420270B5EA74000D11B0C9F74754EBDBFC544B05A258 PUSH2 0x1B8F CALLER SWAP1 JUMP JUMPDEST DUP2 PUSH1 0x1 PUSH1 0x1 PUSH1 0xA0 SHL SUB AND DUP4 PUSH1 0x1 PUSH1 0x1 PUSH1 0xA0 SHL SUB AND EQ ISZERO PUSH2 0x1CA3 JUMPI PUSH1 0x40 MLOAD PUSH3 0x461BCD PUSH1 0xE5 SHL DUP2 MSTORE PUSH1 0x20 PUSH1 0x4 DUP3 ADD MSTORE PUSH1 0x19 PUSH1 0x24 DUP3 ADD MSTORE PUSH32 0x4552433732313A20617070726F766520746F2063616C6C657200000000000000 PUSH1 0x44 DUP3 ADD MSTORE PUSH1 0x64 ADD PUSH2 0x8CB JUMP JUMPDEST PUSH1 0x1 PUSH1 0x1 PUSH1 0xA0 SHL SUB DUP4 DUP2 AND PUSH1 0x0 DUP2 DUP2 MSTORE PUSH1 0x5 PUSH1 0x20 SWAP1 DUP2 MSTORE PUSH1 0x40 DUP1 DUP4 KECCAK256 SWAP5 DUP8 AND DUP1 DUP5 MSTORE SWAP5 DUP3 MSTORE SWAP2 DUP3 SWAP1 KECCAK256 DUP1 SLOAD PUSH1 0xFF NOT AND DUP7 ISZERO ISZERO SWAP1 DUP2 OR SWAP1 SWAP2 SSTORE SWAP2 MLOAD SWAP2 DUP3 MSTORE PUSH32 0x17307EAB39AB6107E8899845AD3D59BD9653F200F220920489CA2B5937696C31 SWAP2 ADD PUSH1 0x40 MLOAD DUP1 SWAP2 SUB SWAP1 LOG3 POP POP POP JUMP JUMPDEST PUSH2 0x1D1A CALLER DUP4 PUSH2 0x1DF9 JUMP JUMPDEST PUSH2 0x1D36 JUMPI PUSH1 0x40 MLOAD PUSH3 0x461BCD PUSH1 0xE5 SHL DUP2 MSTORE PUSH1 0x4 ADD PUSH2 0x8CB SWAP1 PUSH2 0x2C46 JUMP JUMPDEST PUSH2 0x9EA DUP5 DUP5 DUP5 DUP5 PUSH2 0x2086 JUMP JUMPDEST PUSH1 0x60 PUSH1 0x0 PUSH2 0x1D4F DUP4 PUSH2 0x20B9 JUMP JUMPDEST PUSH1 0x1 ADD SWAP1 POP PUSH1 0x0 DUP2 PUSH8 0xFFFFFFFFFFFFFFFF DUP2 GT ISZERO PUSH2 0x1D6F JUMPI PUSH2 0x1D6F PUSH2 0x28A2 JUMP JUMPDEST PUSH1 0x40 MLOAD SWAP1 DUP1 DUP3 MSTORE DUP1 PUSH1 0x1F ADD PUSH1 0x1F NOT AND PUSH1 0x20 ADD DUP3 ADD PUSH1 0x40 MSTORE DUP1 ISZERO PUSH2 0x1D99 JUMPI PUSH1 0x20 DUP3 ADD DUP2 DUP1 CALLDATASIZE DUP4 CALLDATACOPY ADD SWAP1 POP JUMPDEST POP SWAP1 POP DUP2 DUP2 ADD PUSH1 0x20 ADD JUMPDEST PUSH1 0x0 NOT ADD PUSH16 0x181899199A1A9B1B9C1CB0B131B232B3 PUSH1 0x81 SHL PUSH1 0xA DUP7 MOD BYTE DUP2 MSTORE8 PUSH1 0xA DUP6 DIV SWAP5 POP DUP5 PUSH2 0x1DD2 JUMPI PUSH2 0x1DD7 JUMP JUMPDEST PUSH2 0x1DA3 JUMP JUMPDEST POP SWAP4 SWAP3 POP POP POP JUMP JUMPDEST PUSH2 0xE05 DUP3 DUP3 PUSH1 0x40 MLOAD DUP1 PUSH1 0x20 ADD PUSH1 0x40 MSTORE DUP1 PUSH1 0x0 DUP2 MSTORE POP PUSH2 0x2191 JUMP JUMPDEST PUSH1 0x0 DUP1 PUSH2 0x1E05 DUP4 PUSH2 0xE19 JUMP JUMPDEST SWAP1 POP DUP1 PUSH1 0x1 PUSH1 0x1 PUSH1 0xA0 SHL SUB AND DUP5 PUSH1 0x1 PUSH1 0x1 PUSH1 0xA0 SHL SUB AND EQ DUP1 PUSH2 0x1E4C JUMPI POP PUSH1 0x1 PUSH1 0x1 PUSH1 0xA0 SHL SUB DUP1 DUP3 AND PUSH1 0x0 SWAP1 DUP2 MSTORE PUSH1 0x5 PUSH1 0x20 SWAP1 DUP2 MSTORE PUSH1 0x40 DUP1 DUP4 KECCAK256 SWAP4 DUP9 AND DUP4 MSTORE SWAP3 SWAP1 MSTORE KECCAK256 SLOAD PUSH1 0xFF AND JUMPDEST DUP1 PUSH2 0x1E70 JUMPI POP DUP4 PUSH1 0x1 PUSH1 0x1 PUSH1 0xA0 SHL SUB AND PUSH2 0x1E65 DUP5 PUSH2 0x82F JUMP JUMPDEST PUSH1 0x1 PUSH1 0x1 PUSH1 0xA0 SHL SUB AND EQ JUMPDEST SWAP5 SWAP4 POP POP POP POP JUMP JUMPDEST DUP3 PUSH1 0x1 PUSH1 0x1 PUSH1 0xA0 SHL SUB AND PUSH2 0x1E8B DUP3 PUSH2 0xE19 JUMP JUMPDEST PUSH1 0x1 PUSH1 0x1 PUSH1 0xA0 SHL SUB AND EQ PUSH2 0x1EB1 JUMPI PUSH1 0x40 MLOAD PUSH3 0x461BCD PUSH1 0xE5 SHL DUP2 MSTORE PUSH1 0x4 ADD PUSH2 0x8CB SWAP1 PUSH2 0x2CC0 JUMP JUMPDEST PUSH1 0x1 PUSH1 0x1 PUSH1 0xA0 SHL SUB DUP3 AND PUSH2 0x1F13 JUMPI PUSH1 0x40 MLOAD PUSH3 0x461BCD PUSH1 0xE5 SHL DUP2 MSTORE PUSH1 0x20 PUSH1 0x4 DUP3 ADD MSTORE PUSH1 0x24 DUP1 DUP3 ADD MSTORE PUSH32 0x4552433732313A207472616E7366657220746F20746865207A65726F20616464 PUSH1 0x44 DUP3 ADD MSTORE PUSH4 0x72657373 PUSH1 0xE0 SHL PUSH1 0x64 DUP3 ADD MSTORE PUSH1 0x84 ADD PUSH2 0x8CB JUMP JUMPDEST PUSH2 0x1F20 DUP4 DUP4 DUP4 PUSH1 0x1 PUSH2 0x21C4 JUMP JUMPDEST DUP3 PUSH1 0x1 PUSH1 0x1 PUSH1 0xA0 SHL SUB AND PUSH2 0x1F33 DUP3 PUSH2 0xE19 JUMP JUMPDEST PUSH1 0x1 PUSH1 0x1 PUSH1 0xA0 SHL SUB AND EQ PUSH2 0x1F59 JUMPI PUSH1 0x40 MLOAD PUSH3 0x461BCD PUSH1 0xE5 SHL DUP2 MSTORE PUSH1 0x4 ADD PUSH2 0x8CB SWAP1 PUSH2 0x2CC0 JUMP JUMPDEST PUSH1 0x0 DUP2 DUP2 MSTORE PUSH1 0x4 PUSH1 0x20 SWAP1 DUP2 MSTORE PUSH1 0x40 DUP1 DUP4 KECCAK256 DUP1 SLOAD PUSH1 0x1 PUSH1 0x1 PUSH1 0xA0 SHL SUB NOT SWAP1 DUP2 AND SWAP1 SWAP2 SSTORE PUSH1 0x1 PUSH1 0x1 PUSH1 0xA0 SHL SUB DUP8 DUP2 AND DUP1 DUP7 MSTORE PUSH1 0x3 DUP6 MSTORE DUP4 DUP7 KECCAK256 DUP1 SLOAD PUSH1 0x0 NOT ADD SWAP1 SSTORE SWAP1 DUP8 AND DUP1 DUP7 MSTORE DUP4 DUP7 KECCAK256 DUP1 SLOAD PUSH1 0x1 ADD SWAP1 SSTORE DUP7 DUP7 MSTORE PUSH1 0x2 SWAP1 SWAP5 MSTORE DUP3 DUP6 KECCAK256 DUP1 SLOAD SWAP1 SWAP3 AND DUP5 OR SWAP1 SWAP2 SSTORE SWAP1 MLOAD DUP5 SWAP4 PUSH32 0xDDF252AD1BE2C89B69C2B068FC378DAA952BA7F163C4A11628F55A4DF523B3EF SWAP2 LOG4 POP POP POP JUMP JUMPDEST PUSH1 0x7 SLOAD PUSH1 0x1 PUSH1 0xA0 SHL SWAP1 DIV PUSH1 0xFF AND PUSH2 0xD61 JUMPI PUSH1 0x40 MLOAD PUSH3 0x461BCD PUSH1 0xE5 SHL DUP2 MSTORE PUSH1 0x20 PUSH1 0x4 DUP3 ADD MSTORE PUSH1 0x14 PUSH1 0x24 DUP3 ADD MSTORE PUSH20 0x14185D5CD8589B194E881B9BDD081C185D5CD959 PUSH1 0x62 SHL PUSH1 0x44 DUP3 ADD MSTORE PUSH1 0x64 ADD PUSH2 0x8CB JUMP JUMPDEST PUSH1 0x7 SLOAD PUSH1 0x1 PUSH1 0xA0 SHL SWAP1 DIV PUSH1 0xFF AND ISZERO PUSH2 0xD61 JUMPI PUSH1 0x40 MLOAD PUSH3 0x461BCD PUSH1 0xE5 SHL DUP2 MSTORE PUSH1 0x20 PUSH1 0x4 DUP3 ADD MSTORE PUSH1 0x10 PUSH1 0x24 DUP3 ADD MSTORE PUSH16 0x14185D5CD8589B194E881C185D5CD959 PUSH1 0x82 SHL PUSH1 0x44 DUP3 ADD MSTORE PUSH1 0x64 ADD PUSH2 0x8CB JUMP JUMPDEST PUSH2 0x2091 DUP5 DUP5 DUP5 PUSH2 0x1E78 JUMP JUMPDEST PUSH2 0x209D DUP5 DUP5 DUP5 DUP5 PUSH2 0x224C JUMP JUMPDEST PUSH2 0x9EA JUMPI PUSH1 0x40 MLOAD PUSH3 0x461BCD PUSH1 0xE5 SHL DUP2 MSTORE PUSH1 0x4 ADD PUSH2 0x8CB SWAP1 PUSH2 0x2D05 JUMP JUMPDEST PUSH1 0x0 DUP1 PUSH19 0x184F03E93FF9F4DAA797ED6E38ED64BF6A1F01 PUSH1 0x40 SHL DUP4 LT PUSH2 0x20F8 JUMPI PUSH19 0x184F03E93FF9F4DAA797ED6E38ED64BF6A1F01 PUSH1 0x40 SHL DUP4 DIV SWAP3 POP PUSH1 0x40 ADD JUMPDEST PUSH14 0x4EE2D6D415B85ACEF8100000000 DUP4 LT PUSH2 0x2124 JUMPI PUSH14 0x4EE2D6D415B85ACEF8100000000 DUP4 DIV SWAP3 POP PUSH1 0x20 ADD JUMPDEST PUSH7 0x2386F26FC10000 DUP4 LT PUSH2 0x2142 JUMPI PUSH7 0x2386F26FC10000 DUP4 DIV SWAP3 POP PUSH1 0x10 ADD JUMPDEST PUSH4 0x5F5E100 DUP4 LT PUSH2 0x215A JUMPI PUSH4 0x5F5E100 DUP4 DIV SWAP3 POP PUSH1 0x8 ADD JUMPDEST PUSH2 0x2710 DUP4 LT PUSH2 0x216E JUMPI PUSH2 0x2710 DUP4 DIV SWAP3 POP PUSH1 0x4 ADD JUMPDEST PUSH1 0x64 DUP4 LT PUSH2 0x2180 JUMPI PUSH1 0x64 DUP4 DIV SWAP3 POP PUSH1 0x2 ADD JUMPDEST PUSH1 0xA DUP4 LT PUSH2 0x797 JUMPI PUSH1 0x1 ADD SWAP3 SWAP2 POP POP JUMP JUMPDEST PUSH2 0x219B DUP4 DUP4 PUSH2 0x234A JUMP JUMPDEST PUSH2 0x21A8 PUSH1 0x0 DUP5 DUP5 DUP5 PUSH2 0x224C JUMP JUMPDEST PUSH2 0x96C JUMPI PUSH1 0x40 MLOAD PUSH3 0x461BCD PUSH1 0xE5 SHL DUP2 MSTORE PUSH1 0x4 ADD PUSH2 0x8CB SWAP1 PUSH2 0x2D05 JUMP JUMPDEST PUSH1 0x1 DUP2 GT ISZERO PUSH2 0x9EA JUMPI PUSH1 0x1 PUSH1 0x1 PUSH1 0xA0 SHL SUB DUP5 AND ISZERO PUSH2 0x220A JUMPI PUSH1 0x1 PUSH1 0x1 PUSH1 0xA0 SHL SUB DUP5 AND PUSH1 0x0 SWAP1 DUP2 MSTORE PUSH1 0x3 PUSH1 0x20 MSTORE PUSH1 0x40 DUP2 KECCAK256 DUP1 SLOAD DUP4 SWAP3 SWAP1 PUSH2 0x2204 SWAP1 DUP5 SWAP1 PUSH2 0x2C93 JUMP JUMPDEST SWAP1 SWAP2 SSTORE POP POP JUMPDEST PUSH1 0x1 PUSH1 0x1 PUSH1 0xA0 SHL SUB DUP4 AND ISZERO PUSH2 0x9EA JUMPI PUSH1 0x1 PUSH1 0x1 PUSH1 0xA0 SHL SUB DUP4 AND PUSH1 0x0 SWAP1 DUP2 MSTORE PUSH1 0x3 PUSH1 0x20 MSTORE PUSH1 0x40 DUP2 KECCAK256 DUP1 SLOAD DUP4 SWAP3 SWAP1 PUSH2 0x2241 SWAP1 DUP5 SWAP1 PUSH2 0x2B06 JUMP JUMPDEST SWAP1 SWAP2 SSTORE POP POP POP POP POP POP JUMP JUMPDEST PUSH1 0x0 PUSH1 0x1 PUSH1 0x1 PUSH1 0xA0 SHL SUB DUP5 AND EXTCODESIZE ISZERO PUSH2 0x233F JUMPI PUSH1 0x40 MLOAD PUSH4 0xA85BD01 PUSH1 0xE1 SHL DUP2 MSTORE PUSH1 0x1 PUSH1 0x1 PUSH1 0xA0 SHL SUB DUP6 AND SWAP1 PUSH4 0x150B7A02 SWAP1 PUSH2 0x2290 SWAP1 CALLER SWAP1 DUP10 SWAP1 DUP9 SWAP1 DUP9 SWAP1 PUSH1 0x4 ADD PUSH2 0x2D57 JUMP JUMPDEST PUSH1 0x20 PUSH1 0x40 MLOAD DUP1 DUP4 SUB DUP2 PUSH1 0x0 DUP8 GAS CALL SWAP3 POP POP POP DUP1 ISZERO PUSH2 0x22CB JUMPI POP PUSH1 0x40 DUP1 MLOAD PUSH1 0x1F RETURNDATASIZE SWAP1 DUP2 ADD PUSH1 0x1F NOT AND DUP3 ADD SWAP1 SWAP3 MSTORE PUSH2 0x22C8 SWAP2 DUP2 ADD SWAP1 PUSH2 0x2D94 JUMP JUMPDEST PUSH1 0x1 JUMPDEST PUSH2 0x2325 JUMPI RETURNDATASIZE DUP1 DUP1 ISZERO PUSH2 0x22F9 JUMPI PUSH1 0x40 MLOAD SWAP2 POP PUSH1 0x1F NOT PUSH1 0x3F RETURNDATASIZE ADD AND DUP3 ADD PUSH1 0x40 MSTORE RETURNDATASIZE DUP3 MSTORE RETURNDATASIZE PUSH1 0x0 PUSH1 0x20 DUP5 ADD RETURNDATACOPY PUSH2 0x22FE JUMP JUMPDEST PUSH1 0x60 SWAP2 POP JUMPDEST POP DUP1 MLOAD PUSH2 0x231D JUMPI PUSH1 0x40 MLOAD PUSH3 0x461BCD PUSH1 0xE5 SHL DUP2 MSTORE PUSH1 0x4 ADD PUSH2 0x8CB SWAP1 PUSH2 0x2D05 JUMP JUMPDEST DUP1 MLOAD DUP2 PUSH1 0x20 ADD REVERT JUMPDEST PUSH1 0x1 PUSH1 0x1 PUSH1 0xE0 SHL SUB NOT AND PUSH4 0xA85BD01 PUSH1 0xE1 SHL EQ SWAP1 POP PUSH2 0x1E70 JUMP JUMPDEST POP PUSH1 0x1 SWAP5 SWAP4 POP POP POP POP JUMP JUMPDEST PUSH1 0x1 PUSH1 0x1 PUSH1 0xA0 SHL SUB DUP3 AND PUSH2 0x23A0 JUMPI PUSH1 0x40 MLOAD PUSH3 0x461BCD PUSH1 0xE5 SHL DUP2 MSTORE PUSH1 0x20 PUSH1 0x4 DUP3 ADD DUP2 SWAP1 MSTORE PUSH1 0x24 DUP3 ADD MSTORE PUSH32 0x4552433732313A206D696E7420746F20746865207A65726F2061646472657373 PUSH1 0x44 DUP3 ADD MSTORE PUSH1 0x64 ADD PUSH2 0x8CB JUMP JUMPDEST PUSH1 0x0 DUP2 DUP2 MSTORE PUSH1 0x2 PUSH1 0x20 MSTORE PUSH1 0x40 SWAP1 KECCAK256 SLOAD PUSH1 0x1 PUSH1 0x1 PUSH1 0xA0 SHL SUB AND ISZERO PUSH2 0x2405 JUMPI PUSH1 0x40 MLOAD PUSH3 0x461BCD PUSH1 0xE5 SHL DUP2 MSTORE PUSH1 0x20 PUSH1 0x4 DUP3 ADD MSTORE PUSH1 0x1C PUSH1 0x24 DUP3 ADD MSTORE PUSH32 0x4552433732313A20746F6B656E20616C7265616479206D696E74656400000000 PUSH1 0x44 DUP3 ADD MSTORE PUSH1 0x64 ADD PUSH2 0x8CB JUMP JUMPDEST PUSH2 0x2413 PUSH1 0x0 DUP4 DUP4 PUSH1 0x1 PUSH2 0x21C4 JUMP JUMPDEST PUSH1 0x0 DUP2 DUP2 MSTORE PUSH1 0x2 PUSH1 0x20 MSTORE PUSH1 0x40 SWAP1 KECCAK256 SLOAD PUSH1 0x1 PUSH1 0x1 PUSH1 0xA0 SHL SUB AND ISZERO PUSH2 0x2478 JUMPI PUSH1 0x40 MLOAD PUSH3 0x461BCD PUSH1 0xE5 SHL DUP2 MSTORE PUSH1 0x20 PUSH1 0x4 DUP3 ADD MSTORE PUSH1 0x1C PUSH1 0x24 DUP3 ADD MSTORE PUSH32 0x4552433732313A20746F6B656E20616C7265616479206D696E74656400000000 PUSH1 0x44 DUP3 ADD MSTORE PUSH1 0x64 ADD PUSH2 0x8CB JUMP JUMPDEST PUSH1 0x1 PUSH1 0x1 PUSH1 0xA0 SHL SUB DUP3 AND PUSH1 0x0 DUP2 DUP2 MSTORE PUSH1 0x3 PUSH1 0x20 SWAP1 DUP2 MSTORE PUSH1 0x40 DUP1 DUP4 KECCAK256 DUP1 SLOAD PUSH1 0x1 ADD SWAP1 SSTORE DUP5 DUP4 MSTORE PUSH1 0x2 SWAP1 SWAP2 MSTORE DUP1 DUP3 KECCAK256 DUP1 SLOAD PUSH1 0x1 PUSH1 0x1 PUSH1 0xA0 SHL SUB NOT AND DUP5 OR SWAP1 SSTORE MLOAD DUP4 SWAP3 SWAP2 SWAP1 PUSH32 0xDDF252AD1BE2C89B69C2B068FC378DAA952BA7F163C4A11628F55A4DF523B3EF SWAP1 DUP3 SWAP1 LOG4 POP POP JUMP JUMPDEST DUP3 DUP1 SLOAD PUSH2 0x24EF SWAP1 PUSH2 0x2A65 JUMP JUMPDEST SWAP1 PUSH1 0x0 MSTORE PUSH1 0x20 PUSH1 0x0 KECCAK256 SWAP1 PUSH1 0x1F ADD PUSH1 0x20 SWAP1 DIV DUP2 ADD SWAP3 DUP3 PUSH2 0x2511 JUMPI PUSH1 0x0 DUP6 SSTORE PUSH2 0x2557 JUMP JUMPDEST DUP3 PUSH1 0x1F LT PUSH2 0x252A JUMPI DUP1 MLOAD PUSH1 0xFF NOT AND DUP4 DUP1 ADD OR DUP6 SSTORE PUSH2 0x2557 JUMP JUMPDEST DUP3 DUP1 ADD PUSH1 0x1 ADD DUP6 SSTORE DUP3 ISZERO PUSH2 0x2557 JUMPI SWAP2 DUP3 ADD JUMPDEST DUP3 DUP2 GT ISZERO PUSH2 0x2557 JUMPI DUP3 MLOAD DUP3 SSTORE SWAP2 PUSH1 0x20 ADD SWAP2 SWAP1 PUSH1 0x1 ADD SWAP1 PUSH2 0x253C JUMP JUMPDEST POP PUSH2 0x2563 SWAP3 SWAP2 POP PUSH2 0x2567 JUMP JUMPDEST POP SWAP1 JUMP JUMPDEST JUMPDEST DUP1 DUP3 GT ISZERO PUSH2 0x2563 JUMPI PUSH1 0x0 DUP2 SSTORE PUSH1 0x1 ADD PUSH2 0x2568 JUMP JUMPDEST PUSH1 0x1 PUSH1 0x1 PUSH1 0xA0 SHL SUB DUP2 AND DUP2 EQ PUSH2 0xBCD JUMPI PUSH1 0x0 DUP1 REVERT JUMPDEST PUSH1 0x0 PUSH1 0x20 DUP3 DUP5 SUB SLT ISZERO PUSH2 0x25A3 JUMPI PUSH1 0x0 DUP1 REVERT JUMPDEST DUP2 CALLDATALOAD PUSH2 0x25AE DUP2 PUSH2 0x257C JUMP JUMPDEST SWAP4 SWAP3 POP POP POP JUMP JUMPDEST PUSH1 0x1 PUSH1 0x1 PUSH1 0xE0 SHL SUB NOT DUP2 AND DUP2 EQ PUSH2 0xBCD JUMPI PUSH1 0x0 DUP1 REVERT JUMPDEST PUSH1 0x0 PUSH1 0x20 DUP3 DUP5 SUB SLT ISZERO PUSH2 0x25DD JUMPI PUSH1 0x0 DUP1 REVERT JUMPDEST DUP2 CALLDATALOAD PUSH2 0x25AE DUP2 PUSH2 0x25B5 JUMP JUMPDEST PUSH4 0x4E487B71 PUSH1 0xE0 SHL PUSH1 0x0 MSTORE PUSH1 0x21 PUSH1 0x4 MSTORE PUSH1 0x24 PUSH1 0x0 REVERT JUMPDEST PUSH1 0x20 DUP2 ADD PUSH1 0x3 DUP4 LT PUSH2 0x2620 JUMPI PUSH4 0x4E487B71 PUSH1 0xE0 SHL PUSH1 0x0 MSTORE PUSH1 0x21 PUSH1 0x4 MSTORE PUSH1 0x24 PUSH1 0x0 REVERT JUMPDEST SWAP2 SWAP1 MSTORE SWAP1 JUMP JUMPDEST PUSH1 0x0 JUMPDEST DUP4 DUP2 LT ISZERO PUSH2 0x2641 JUMPI DUP2 DUP2 ADD MLOAD DUP4 DUP3 ADD MSTORE PUSH1 0x20 ADD PUSH2 0x2629 JUMP JUMPDEST DUP4 DUP2 GT ISZERO PUSH2 0x9EA JUMPI POP POP PUSH1 0x0 SWAP2 ADD MSTORE JUMP JUMPDEST PUSH1 0x0 DUP2 MLOAD DUP1 DUP5 MSTORE PUSH2 0x266A DUP2 PUSH1 0x20 DUP7 ADD PUSH1 0x20 DUP7 ADD PUSH2 0x2626 JUMP JUMPDEST PUSH1 0x1F ADD PUSH1 0x1F NOT AND SWAP3 SWAP1 SWAP3 ADD PUSH1 0x20 ADD SWAP3 SWAP2 POP POP JUMP JUMPDEST PUSH1 0x20 DUP2 MSTORE PUSH1 0x0 PUSH2 0x25AE PUSH1 0x20 DUP4 ADD DUP5 PUSH2 0x2652 JUMP JUMPDEST PUSH1 0x0 PUSH1 0x20 DUP3 DUP5 SUB SLT ISZERO PUSH2 0x26A3 JUMPI PUSH1 0x0 DUP1 REVERT JUMPDEST POP CALLDATALOAD SWAP2 SWAP1 POP JUMP JUMPDEST PUSH1 0x0 DUP1 PUSH1 0x40 DUP4 DUP6 SUB SLT ISZERO PUSH2 0x26BD JUMPI PUSH1 0x0 DUP1 REVERT JUMPDEST DUP3 CALLDATALOAD PUSH2 0x26C8 DUP2 PUSH2 0x257C JUMP JUMPDEST SWAP5 PUSH1 0x20 SWAP4 SWAP1 SWAP4 ADD CALLDATALOAD SWAP4 POP POP POP JUMP JUMPDEST PUSH1 0x0 DUP1 DUP4 PUSH1 0x1F DUP5 ADD SLT PUSH2 0x26E8 JUMPI PUSH1 0x0 DUP1 REVERT JUMPDEST POP DUP2 CALLDATALOAD PUSH8 0xFFFFFFFFFFFFFFFF DUP2 GT ISZERO PUSH2 0x2700 JUMPI PUSH1 0x0 DUP1 REVERT JUMPDEST PUSH1 0x20 DUP4 ADD SWAP2 POP DUP4 PUSH1 0x20 DUP3 PUSH1 0x5 SHL DUP6 ADD ADD GT ISZERO PUSH2 0x271B JUMPI PUSH1 0x0 DUP1 REVERT JUMPDEST SWAP3 POP SWAP3 SWAP1 POP JUMP JUMPDEST DUP1 CALLDATALOAD DUP1 ISZERO ISZERO DUP2 EQ PUSH2 0x2732 JUMPI PUSH1 0x0 DUP1 REVERT JUMPDEST SWAP2 SWAP1 POP JUMP JUMPDEST PUSH1 0x0 DUP1 PUSH1 0x0 PUSH1 0x40 DUP5 DUP7 SUB SLT ISZERO PUSH2 0x274C JUMPI PUSH1 0x0 DUP1 REVERT JUMPDEST DUP4 CALLDATALOAD PUSH8 0xFFFFFFFFFFFFFFFF DUP2 GT ISZERO PUSH2 0x2763 JUMPI PUSH1 0x0 DUP1 REVERT JUMPDEST PUSH2 0x276F DUP7 DUP3 DUP8 ADD PUSH2 0x26D6 JUMP JUMPDEST SWAP1 SWAP5 POP SWAP3 POP PUSH2 0x2782 SWAP1 POP PUSH1 0x20 DUP6 ADD PUSH2 0x2722 JUMP JUMPDEST SWAP1 POP SWAP3 POP SWAP3 POP SWAP3 JUMP JUMPDEST PUSH1 0x0 PUSH1 0x20 DUP3 DUP5 SUB SLT ISZERO PUSH2 0x279D JUMPI PUSH1 0x0 DUP1 REVERT JUMPDEST DUP2 CALLDATALOAD PUSH4 0xFFFFFFFF DUP2 AND DUP2 EQ PUSH2 0x25AE JUMPI PUSH1 0x0 DUP1 REVERT JUMPDEST PUSH1 0x0 DUP1 PUSH1 0x0 PUSH1 0x60 DUP5 DUP7 SUB SLT ISZERO PUSH2 0x27C6 JUMPI PUSH1 0x0 DUP1 REVERT JUMPDEST DUP4 CALLDATALOAD PUSH2 0x27D1 DUP2 PUSH2 0x257C JUMP JUMPDEST SWAP3 POP PUSH1 0x20 DUP5 ADD CALLDATALOAD PUSH2 0x27E1 DUP2 PUSH2 0x257C JUMP JUMPDEST SWAP3 SWAP6 SWAP3 SWAP5 POP POP POP PUSH1 0x40 SWAP2 SWAP1 SWAP2 ADD CALLDATALOAD SWAP1 JUMP JUMPDEST PUSH1 0x0 DUP1 PUSH1 0x0 DUP1 PUSH1 0x40 DUP6 DUP8 SUB SLT ISZERO PUSH2 0x2808 JUMPI PUSH1 0x0 DUP1 REVERT JUMPDEST DUP5 CALLDATALOAD PUSH8 0xFFFFFFFFFFFFFFFF DUP1 DUP3 GT ISZERO PUSH2 0x2820 JUMPI PUSH1 0x0 DUP1 REVERT JUMPDEST PUSH2 0x282C DUP9 DUP4 DUP10 ADD PUSH2 0x26D6 JUMP JUMPDEST SWAP1 SWAP7 POP SWAP5 POP PUSH1 0x20 DUP8 ADD CALLDATALOAD SWAP2 POP DUP1 DUP3 GT ISZERO PUSH2 0x2845 JUMPI PUSH1 0x0 DUP1 REVERT JUMPDEST POP PUSH2 0x2852 DUP8 DUP3 DUP9 ADD PUSH2 0x26D6 JUMP JUMPDEST SWAP6 SWAP9 SWAP5 SWAP8 POP SWAP6 POP POP POP POP JUMP JUMPDEST PUSH1 0x20 DUP1 DUP3 MSTORE DUP3 MLOAD DUP3 DUP3 ADD DUP2 SWAP1 MSTORE PUSH1 0x0 SWAP2 SWAP1 DUP5 DUP3 ADD SWAP1 PUSH1 0x40 DUP6 ADD SWAP1 DUP5 JUMPDEST DUP2 DUP2 LT ISZERO PUSH2 0x2896 JUMPI DUP4 MLOAD DUP4 MSTORE SWAP3 DUP5 ADD SWAP3 SWAP2 DUP5 ADD SWAP2 PUSH1 0x1 ADD PUSH2 0x287A JUMP JUMPDEST POP SWAP1 SWAP7 SWAP6 POP POP POP POP POP POP JUMP JUMPDEST PUSH4 0x4E487B71 PUSH1 0xE0 SHL PUSH1 0x0 MSTORE PUSH1 0x41 PUSH1 0x4 MSTORE PUSH1 0x24 PUSH1 0x0 REVERT JUMPDEST PUSH1 0x0 PUSH8 0xFFFFFFFFFFFFFFFF DUP1 DUP5 GT ISZERO PUSH2 0x28D3 JUMPI PUSH2 0x28D3 PUSH2 0x28A2 JUMP JUMPDEST PUSH1 0x40 MLOAD PUSH1 0x1F DUP6 ADD PUSH1 0x1F NOT SWAP1 DUP2 AND PUSH1 0x3F ADD AND DUP2 ADD SWAP1 DUP3 DUP3 GT DUP2 DUP4 LT OR ISZERO PUSH2 0x28FB JUMPI PUSH2 0x28FB PUSH2 0x28A2 JUMP JUMPDEST DUP2 PUSH1 0x40 MSTORE DUP1 SWAP4 POP DUP6 DUP2 MSTORE DUP7 DUP7 DUP7 ADD GT ISZERO PUSH2 0x2914 JUMPI PUSH1 0x0 DUP1 REVERT JUMPDEST DUP6 DUP6 PUSH1 0x20 DUP4 ADD CALLDATACOPY PUSH1 0x0 PUSH1 0x20 DUP8 DUP4 ADD ADD MSTORE POP POP POP SWAP4 SWAP3 POP POP POP JUMP JUMPDEST PUSH1 0x0 PUSH1 0x20 DUP3 DUP5 SUB SLT ISZERO PUSH2 0x2940 JUMPI PUSH1 0x0 DUP1 REVERT JUMPDEST DUP2 CALLDATALOAD PUSH8 0xFFFFFFFFFFFFFFFF DUP2 GT ISZERO PUSH2 0x2957 JUMPI PUSH1 0x0 DUP1 REVERT JUMPDEST DUP3 ADD PUSH1 0x1F DUP2 ADD DUP5 SGT PUSH2 0x2968 JUMPI PUSH1 0x0 DUP1 REVERT JUMPDEST PUSH2 0x1E70 DUP5 DUP3 CALLDATALOAD PUSH1 0x20 DUP5 ADD PUSH2 0x28B8 JUMP JUMPDEST PUSH1 0x0 DUP1 PUSH1 0x40 DUP4 DUP6 SUB SLT ISZERO PUSH2 0x298A JUMPI PUSH1 0x0 DUP1 REVERT JUMPDEST DUP3 CALLDATALOAD PUSH2 0x2995 DUP2 PUSH2 0x257C JUMP JUMPDEST SWAP2 POP PUSH2 0x29A3 PUSH1 0x20 DUP5 ADD PUSH2 0x2722 JUMP JUMPDEST SWAP1 POP SWAP3 POP SWAP3 SWAP1 POP JUMP JUMPDEST PUSH1 0x0 DUP1 PUSH1 0x0 DUP1 PUSH1 0x80 DUP6 DUP8 SUB SLT ISZERO PUSH2 0x29C2 JUMPI PUSH1 0x0 DUP1 REVERT JUMPDEST DUP5 CALLDATALOAD PUSH2 0x29CD DUP2 PUSH2 0x257C JUMP JUMPDEST SWAP4 POP PUSH1 0x20 DUP6 ADD CALLDATALOAD PUSH2 0x29DD DUP2 PUSH2 0x257C JUMP JUMPDEST SWAP3 POP PUSH1 0x40 DUP6 ADD CALLDATALOAD SWAP2 POP PUSH1 0x60 DUP6 ADD CALLDATALOAD PUSH8 0xFFFFFFFFFFFFFFFF DUP2 GT ISZERO PUSH2 0x2A00 JUMPI PUSH1 0x0 DUP1 REVERT JUMPDEST DUP6 ADD PUSH1 0x1F DUP2 ADD DUP8 SGT PUSH2 0x2A11 JUMPI PUSH1 0x0 DUP1 REVERT JUMPDEST PUSH2 0x2A20 DUP8 DUP3 CALLDATALOAD PUSH1 0x20 DUP5 ADD PUSH2 0x28B8 JUMP JUMPDEST SWAP2 POP POP SWAP3 SWAP6 SWAP2 SWAP5 POP SWAP3 POP JUMP JUMPDEST PUSH1 0x0 DUP1 PUSH1 0x40 DUP4 DUP6 SUB SLT ISZERO PUSH2 0x2A3F JUMPI PUSH1 0x0 DUP1 REVERT JUMPDEST DUP3 CALLDATALOAD PUSH2 0x2A4A DUP2 PUSH2 0x257C JUMP JUMPDEST SWAP2 POP PUSH1 0x20 DUP4 ADD CALLDATALOAD PUSH2 0x2A5A DUP2 PUSH2 0x257C JUMP JUMPDEST DUP1 SWAP2 POP POP SWAP3 POP SWAP3 SWAP1 POP JUMP JUMPDEST PUSH1 0x1 DUP2 DUP2 SHR SWAP1 DUP3 AND DUP1 PUSH2 0x2A79 JUMPI PUSH1 0x7F DUP3 AND SWAP2 POP JUMPDEST PUSH1 0x20 DUP3 LT DUP2 EQ ISZERO PUSH2 0x2A9A JUMPI PUSH4 0x4E487B71 PUSH1 0xE0 SHL PUSH1 0x0 MSTORE PUSH1 0x22 PUSH1 0x4 MSTORE PUSH1 0x24 PUSH1 0x0 REVERT JUMPDEST POP SWAP2 SWAP1 POP JUMP JUMPDEST PUSH4 0x4E487B71 PUSH1 0xE0 SHL PUSH1 0x0 MSTORE PUSH1 0x32 PUSH1 0x4 MSTORE PUSH1 0x24 PUSH1 0x0 REVERT JUMPDEST PUSH4 0x4E487B71 PUSH1 0xE0 SHL PUSH1 0x0 MSTORE PUSH1 0x11 PUSH1 0x4 MSTORE PUSH1 0x24 PUSH1 0x0 REVERT JUMPDEST PUSH1 0x0 PUSH1 0x0 NOT DUP3 EQ ISZERO PUSH2 0x2AE0 JUMPI PUSH2 0x2AE0 PUSH2 0x2AB6 JUMP JUMPDEST POP PUSH1 0x1 ADD SWAP1 JUMP JUMPDEST PUSH1 0x0 DUP2 PUSH1 0x0 NOT DIV DUP4 GT DUP3 ISZERO ISZERO AND ISZERO PUSH2 0x2B01 JUMPI PUSH2 0x2B01 PUSH2 0x2AB6 JUMP JUMPDEST POP MUL SWAP1 JUMP JUMPDEST PUSH1 0x0 DUP3 NOT DUP3 GT ISZERO PUSH2 0x2B19 JUMPI PUSH2 0x2B19 PUSH2 0x2AB6 JUMP JUMPDEST POP ADD SWAP1 JUMP JUMPDEST PUSH1 0x20 DUP1 DUP3 MSTORE PUSH1 0xE SWAP1 DUP3 ADD MSTORE PUSH14 0x4E6F20456E6F677568204E465473 PUSH1 0x90 SHL PUSH1 0x40 DUP3 ADD MSTORE PUSH1 0x60 ADD SWAP1 JUMP JUMPDEST PUSH1 0x0 PUSH4 0xFFFFFFFF DUP1 DUP4 AND DUP2 DUP2 EQ ISZERO PUSH2 0x2B60 JUMPI PUSH2 0x2B60 PUSH2 0x2AB6 JUMP JUMPDEST PUSH1 0x1 ADD SWAP4 SWAP3 POP POP POP JUMP JUMPDEST PUSH1 0x0 PUSH1 0x20 DUP3 DUP5 SUB SLT ISZERO PUSH2 0x2B7C JUMPI PUSH1 0x0 DUP1 REVERT JUMPDEST POP MLOAD SWAP2 SWAP1 POP JUMP JUMPDEST PUSH1 0x0 DUP2 MLOAD PUSH2 0x2B95 DUP2 DUP6 PUSH1 0x20 DUP7 ADD PUSH2 0x2626 JUMP JUMPDEST SWAP3 SWAP1 SWAP3 ADD SWAP3 SWAP2 POP POP JUMP JUMPDEST PUSH1 0x0 DUP1 DUP5 SLOAD DUP2 PUSH1 0x1 DUP3 DUP2 SHR SWAP2 POP DUP1 DUP4 AND DUP1 PUSH2 0x2BBB JUMPI PUSH1 0x7F DUP4 AND SWAP3 POP JUMPDEST PUSH1 0x20 DUP1 DUP5 LT DUP3 EQ ISZERO PUSH2 0x2BDB JUMPI PUSH4 0x4E487B71 PUSH1 0xE0 SHL DUP7 MSTORE PUSH1 0x22 PUSH1 0x4 MSTORE PUSH1 0x24 DUP7 REVERT JUMPDEST DUP2 DUP1 ISZERO PUSH2 0x2BEF JUMPI PUSH1 0x1 DUP2 EQ PUSH2 0x2C00 JUMPI PUSH2 0x2C2D JUMP JUMPDEST PUSH1 0xFF NOT DUP7 AND DUP10 MSTORE DUP5 DUP10 ADD SWAP7 POP PUSH2 0x2C2D JUMP JUMPDEST PUSH1 0x0 DUP12 DUP2 MSTORE PUSH1 0x20 SWAP1 KECCAK256 PUSH1 0x0 JUMPDEST DUP7 DUP2 LT ISZERO PUSH2 0x2C25 JUMPI DUP2 SLOAD DUP12 DUP3 ADD MSTORE SWAP1 DUP6 ADD SWAP1 DUP4 ADD PUSH2 0x2C0C JUMP JUMPDEST POP POP DUP5 DUP10 ADD SWAP7 POP JUMPDEST POP POP POP POP POP POP PUSH2 0x2C3D DUP2 DUP6 PUSH2 0x2B83 JUMP JUMPDEST SWAP6 SWAP5 POP POP POP POP POP JUMP JUMPDEST PUSH1 0x20 DUP1 DUP3 MSTORE PUSH1 0x2D SWAP1 DUP3 ADD MSTORE PUSH32 0x4552433732313A2063616C6C6572206973206E6F7420746F6B656E206F776E65 PUSH1 0x40 DUP3 ADD MSTORE PUSH13 0x1C881BDC88185C1C1C9BDD9959 PUSH1 0x9A SHL PUSH1 0x60 DUP3 ADD MSTORE PUSH1 0x80 ADD SWAP1 JUMP JUMPDEST PUSH1 0x0 DUP3 DUP3 LT ISZERO PUSH2 0x2CA5 JUMPI PUSH2 0x2CA5 PUSH2 0x2AB6 JUMP JUMPDEST POP SUB SWAP1 JUMP JUMPDEST PUSH4 0x4E487B71 PUSH1 0xE0 SHL PUSH1 0x0 MSTORE PUSH1 0x31 PUSH1 0x4 MSTORE PUSH1 0x24 PUSH1 0x0 REVERT JUMPDEST PUSH1 0x20 DUP1 DUP3 MSTORE PUSH1 0x25 SWAP1 DUP3 ADD MSTORE PUSH32 0x4552433732313A207472616E736665722066726F6D20696E636F727265637420 PUSH1 0x40 DUP3 ADD MSTORE PUSH5 0x37BBB732B9 PUSH1 0xD9 SHL PUSH1 0x60 DUP3 ADD MSTORE PUSH1 0x80 ADD SWAP1 JUMP JUMPDEST PUSH1 0x20 DUP1 DUP3 MSTORE PUSH1 0x32 SWAP1 DUP3 ADD MSTORE PUSH32 0x4552433732313A207472616E7366657220746F206E6F6E204552433732315265 PUSH1 0x40 DUP3 ADD MSTORE PUSH18 0x31B2B4BB32B91034B6B83632B6B2B73A32B9 PUSH1 0x71 SHL PUSH1 0x60 DUP3 ADD MSTORE PUSH1 0x80 ADD SWAP1 JUMP JUMPDEST PUSH1 0x1 PUSH1 0x1 PUSH1 0xA0 SHL SUB DUP6 DUP2 AND DUP3 MSTORE DUP5 AND PUSH1 0x20 DUP3 ADD MSTORE PUSH1 0x40 DUP2 ADD DUP4 SWAP1 MSTORE PUSH1 0x80 PUSH1 0x60 DUP3 ADD DUP2 SWAP1 MSTORE PUSH1 0x0 SWAP1 PUSH2 0x2D8A SWAP1 DUP4 ADD DUP5 PUSH2 0x2652 JUMP JUMPDEST SWAP7 SWAP6 POP POP POP POP POP POP JUMP JUMPDEST PUSH1 0x0 PUSH1 0x20 DUP3 DUP5 SUB SLT ISZERO PUSH2 0x2DA6 JUMPI PUSH1 0x0 DUP1 REVERT JUMPDEST DUP2 MLOAD PUSH2 0x25AE DUP2 PUSH2 0x25B5 JUMP INVALID LOG2 PUSH5 0x6970667358 0x22 SLT KECCAK256 DUP10 DUP12 SLOAD 0x1E 0x4E PUSH4 0x7F510BE3 KECCAK256 0x5E 0xC9 0x1E 0xCA 0xE PUSH13 0x6D7646DB8E020DFF869A8E0BA5 CALLVALUE 0x4B PUSH5 0x736F6C6343 STOP ADDMOD SIGNEXTEND STOP CALLER "},"methodIdentifiers":{"ChadinuVip()":"f7bb0f4b","DVDA()":"214bb348","TOTAL_SUPPLY()":"902d55a5","addEarlyMinters(address[],bool)":"17dc55c2","addFreeMinters(address[],uint32[])":"278f1ffb","approve(address,uint256)":"095ea7b3","balanceOf(address)":"70a08231","baseTokenURI()":"d547cfb7","buyNFTEarly(uint32)":"c8866d94","buyNFTForFree()":"821bca77","buyNFTWithChadinu()":"f6e8fe1f","buyNFTsInPublic(uint32)":"1f473032","currentPhase()":"055ad42e","destroySmartContract(address)":"39df43ff","freeMinters(address)":"f8b08712","getApproved(uint256)":"081812fc","getCurrentTokenId()":"56189236","getPrice()":"98d5fdca","getTokenIdsOf(address)":"5324f9aa","getTotalSupply()":"c4e41b22","isApprovedForAll(address,address)":"e985e9c5","isEarlyMinter(address)":"00453a98","name()":"06fdde03","owner()":"8da5cb5b","ownerOf(uint256)":"6352211e","pause()":"8456cb59","paused()":"5c975abb","renounceOwnership()":"715018a6","safeTransferFrom(address,address,uint256)":"42842e0e","safeTransferFrom(address,address,uint256,bytes)":"b88d4fde","setApprovalForAll(address,bool)":"a22cb465","setBaseURI(string)":"55f804b3","setPhase(uint32)":"20aa8c19","setPrice(uint256)":"91b7f5ed","supportsInterface(bytes4)":"01ffc9a7","symbol()":"95d89b41","tokenURI(uint256)":"c87b56dd","transferFrom(address,address,uint256)":"23b872dd","transferOwnership(address)":"f2fde38b","unpause()":"3f4ba83a","withdraw()":"3ccfd60b"}}}}}