{"contracts/AssetLock.sol":{"TestLock":{"abi":[{"inputs":[{"internalType":"address","name":"_sugarNFT","type":"address"}],"stateMutability":"nonpayable","type":"constructor"},{"anonymous":false,"inputs":[{"indexed":false,"internalType":"address","name":"asset","type":"address"},{"indexed":false,"internalType":"uint256","name":"amount","type":"uint256"}],"name":"AssetDeposited","type":"event"},{"anonymous":false,"inputs":[{"indexed":true,"internalType":"address","name":"previousOwner","type":"address"},{"indexed":true,"internalType":"address","name":"newOwner","type":"address"}],"name":"OwnershipTransferred","type":"event"},{"anonymous":false,"inputs":[{"indexed":false,"internalType":"address","name":"account","type":"address"}],"name":"Paused","type":"event"},{"anonymous":false,"inputs":[{"indexed":false,"internalType":"address","name":"account","type":"address"}],"name":"Unpaused","type":"event"},{"inputs":[{"internalType":"address","name":"_asset","type":"address"}],"name":"approveAsset","outputs":[],"stateMutability":"nonpayable","type":"function"},{"inputs":[{"internalType":"uint256[]","name":"tokenIds","type":"uint256[]"}],"name":"claim","outputs":[],"stateMutability":"nonpayable","type":"function"},{"inputs":[{"internalType":"address","name":"_asset","type":"address"},{"internalType":"uint256","name":"_amount","type":"uint256"}],"name":"deposit","outputs":[],"stateMutability":"nonpayable","type":"function"},{"inputs":[{"internalType":"address payable","name":"_to","type":"address"}],"name":"destroySmartContract","outputs":[],"stateMutability":"nonpayable","type":"function"},{"inputs":[{"internalType":"address","name":"_asset","type":"address"}],"name":"disapproveAsset","outputs":[],"stateMutability":"nonpayable","type":"function"},{"inputs":[{"internalType":"address","name":"_asset","type":"address"}],"name":"getAssetBalance","outputs":[{"internalType":"uint256","name":"","type":"uint256"}],"stateMutability":"view","type":"function"},{"inputs":[{"internalType":"address","name":"_asset","type":"address"}],"name":"isAssetApproved","outputs":[{"internalType":"bool","name":"","type":"bool"}],"stateMutability":"view","type":"function"},{"inputs":[],"name":"lockTime","outputs":[{"internalType":"uint256","name":"","type":"uint256"}],"stateMutability":"view","type":"function"},{"inputs":[],"name":"owner","outputs":[{"internalType":"address","name":"","type":"address"}],"stateMutability":"view","type":"function"},{"inputs":[],"name":"pause","outputs":[],"stateMutability":"nonpayable","type":"function"},{"inputs":[],"name":"paused","outputs":[{"internalType":"bool","name":"","type":"bool"}],"stateMutability":"view","type":"function"},{"inputs":[],"name":"renounceOwnership","outputs":[],"stateMutability":"nonpayable","type":"function"},{"inputs":[{"internalType":"uint256","name":"timeInDay","type":"uint256"}],"name":"setLockTime","outputs":[],"stateMutability":"nonpayable","type":"function"},{"inputs":[{"internalType":"address","name":"_sugarNFT","type":"address"}],"name":"setSugarNFT","outputs":[],"stateMutability":"nonpayable","type":"function"},{"inputs":[],"name":"sugarNFT","outputs":[{"internalType":"contract ISugarNFT","name":"","type":"address"}],"stateMutability":"view","type":"function"},{"inputs":[{"internalType":"address","name":"newOwner","type":"address"}],"name":"transferOwnership","outputs":[],"stateMutability":"nonpayable","type":"function"},{"inputs":[],"name":"unpause","outputs":[],"stateMutability":"nonpayable","type":"function"},{"inputs":[],"name":"withdraw","outputs":[],"stateMutability":"nonpayable","type":"function"}],"evm":{"bytecode":{"linkReferences":{"contracts/AssetLock.sol":{"IterableMapping":[{"length":20,"start":1264},{"length":20,"start":1397},{"length":20,"start":1543},{"length":20,"start":2308},{"length":20,"start":2721},{"length":20,"start":3467},{"length":20,"start":3713},{"length":20,"start":3863},{"length":20,"start":4172},{"length":20,"start":4800},{"length":20,"start":4933},{"length":20,"start":5079}]}},"object":"608060405234801561001057600080fd5b506040516118c13803806118c183398101604081905261002f916100ba565b6100383361006a565b6000805460ff60a01b19169055600680546001600160a01b0319166001600160a01b03929092169190911790556100ea565b600080546001600160a01b038381166001600160a01b0319831681178455604051919092169283917f8be0079c531659141344cd1fd0a4f28419497f9722a3daafe3b4186f6b6457e09190a35050565b6000602082840312156100cc57600080fd5b81516001600160a01b03811681146100e357600080fd5b9392505050565b6117c8806100f96000396000f3fe608060405234801561001057600080fd5b50600436106101165760003560e01c80636ba4c138116100a25780638da5cb5b116100715780638da5cb5b1461022d578063a75995e41461023e578063ae04d45d14610251578063ba3a0f6c14610264578063f2fde38b1461027757600080fd5b80636ba4c138146101de578063715018a6146101f15780638456cb59146101f95780638a009e951461020157600080fd5b80633f4ba83a116100e95780633f4ba83a1461017f57806347e7ef24146101875780635373433f1461019a5780635c975abb146101ad57806366cc4177146101cb57600080fd5b80630d6680871461011b57806334563f2b1461013757806339df43ff146101625780633ccfd60b14610177575b600080fd5b61012460055481565b6040519081526020015b60405180910390f35b60065461014a906001600160a01b031681565b6040516001600160a01b03909116815260200161012e565b6101756101703660046114d1565b61028a565b005b610175610296565b61017561060a565b6101756101953660046114f5565b61061c565b6101246101a83660046114d1565b61092c565b600054600160a01b900460ff165b604051901515815260200161012e565b6101756101d93660046114d1565b610a0c565b6101756101ec366004611521565b610a36565b610175610c3c565b610175610c4e565b6101bb61020f3660046114d1565b6001600160a01b031660009081526004602052604090205460ff1690565b6000546001600160a01b031661014a565b61017561024c3660046114d1565b610c5e565b61017561025f366004611596565b610ce3565b6101756102723660046114d1565b610d58565b6101756102853660046114d1565b610f75565b806001600160a01b0316ff5b61029e610fee565b60055442116102e55760405162461bcd60e51b815260206004820152600e60248201526d131bd8dada5b99c814195c9a5bd960921b60448201526064015b60405180910390fd5b600654604080516362720d9160e11b815290516000926001600160a01b03169163c4e41b229160048083019260209291908290030181865afa15801561032f573d6000803e3d6000fd5b505050506040513d601f19601f8201168201806040525081019061035391906115af565b90506000600660009054906101000a90046001600160a01b03166001600160a01b031663561892366040518163ffffffff1660e01b8152600401602060405180830381865afa1580156103aa573d6000803e3d6000fd5b505050506040513d601f19601f820116820180604052508101906103ce91906115af565b905060006103dc82846115de565b905060005b604051636f59ec4b60e11b81526001600482015273__$9fb44ff2c34f190f83e05881311175c942$__9063deb3d89690602401602060405180830381865af4158015610431573d6000803e3d6000fd5b505050506040513d601f19601f8201168201806040525081019061045591906115af565b811015610604576040516368d54f3f60e11b8152600160048201526024810182905260009073__$9fb44ff2c34f190f83e05881311175c942$__9063d1aa9e7e90604401602060405180830381865af41580156104b6573d6000803e3d6000fd5b505050506040513d601f19601f820116820180604052508101906104da91906115f5565b60405163732a2ccf60e01b8152600160048201526001600160a01b0382166024820181905291925063a9059cbb903390889073__$9fb44ff2c34f190f83e05881311175c942$__9063732a2ccf90604401602060405180830381865af4158015610548573d6000803e3d6000fd5b505050506040513d601f19601f8201168201806040525081019061056c91906115af565b6105769190611612565b6105809087611634565b6040516001600160e01b031960e085901b1681526001600160a01b03909216600483015260248201526044016020604051808303816000875af11580156105cb573d6000803e3d6000fd5b505050506040513d601f19601f820116820180604052508101906105ef9190611653565b505080806105fc90611675565b9150506103e1565b50505050565b610612610fee565b61061a611048565b565b6001600160a01b03821660009081526004602052604090205460ff1661067c5760405162461bcd60e51b8152602060048201526015602482015274105cdcd95d081a5cc81b9bdd08185c1c1c9bdd9959605a1b60448201526064016102dc565b6040516370a0823160e01b815233600482015281906001600160a01b038416906370a0823190602401602060405180830381865afa1580156106c2573d6000803e3d6000fd5b505050506040513d601f19601f820116820180604052508101906106e691906115af565b10156107295760405162461bcd60e51b8152602060048201526012602482015271125b9cdd59999a58da595b9d08105cdcd95d60721b60448201526064016102dc565b6040516323b872dd60e01b8152336004820152306024820152604481018290526000906001600160a01b038416906323b872dd906064016020604051808303816000875af115801561077f573d6000803e3d6000fd5b505050506040513d601f19601f820116820180604052508101906107a39190611653565b9050806107e45760405162461bcd60e51b815260206004820152600f60248201526e151c985b9cd9995c8811985a5b1959608a1b60448201526064016102dc565b60405163732a2ccf60e01b81526001600482018190526001600160a01b038516602483015273__$9fb44ff2c34f190f83e05881311175c942$__9163bc2b405c919086908690859063732a2ccf90604401602060405180830381865af4158015610852573d6000803e3d6000fd5b505050506040513d601f19601f8201168201806040525081019061087691906115af565b6108809190611690565b6040516001600160e01b031960e086901b16815260048101939093526001600160a01b039091166024830152604482015260640160006040518083038186803b1580156108cc57600080fd5b505af41580156108e0573d6000803e3d6000fd5b5050604080516001600160a01b0387168152602081018690527fddc69a07b5bfcee2b68a56a2e28e712c83e6b1372b06f80aaab04dbaca91020f935001905060405180910390a1505050565b6001600160a01b03811660009081526004602052604081205460ff166109835760405162461bcd60e51b815260206004820152600c60248201526b139bdd08185c1c1c9bdd995960a21b60448201526064016102dc565b60405163732a2ccf60e01b8152600160048201526001600160a01b038316602482015273__$9fb44ff2c34f190f83e05881311175c942$__9063732a2ccf90604401602060405180830381865af41580156109e2573d6000803e3d6000fd5b505050506040513d601f19601f82011682018060405250810190610a0691906115af565b92915050565b610a14610fee565b600680546001600160a01b0319166001600160a01b0392909216919091179055565b610a3e61109d565b6005544211610a805760405162461bcd60e51b815260206004820152600e60248201526d131bd8dada5b99c814195c9a5bd960921b60448201526064016102dc565b60005b81811015610bcb576006546040516329927cd560e11b81523360048201526000916001600160a01b031690635324f9aa90602401600060405180830381865afa158015610ad4573d6000803e3d6000fd5b505050506040513d6000823e601f3d908101601f19168201604052610afc91908101906116be565b905060076000858585818110610b1457610b1461177c565b602090810292909201358352508101919091526040016000205460ff16158015610b5b5750610b5b81858585818110610b4f57610b4f61177c565b905060200201356110ea565b610bb85760405162461bcd60e51b815260206004820152602860248201527f4e6f74206f776e6572206f6620746f6b656e206964206f7220616c72656164796044820152670818db185a5b595960c21b60648201526084016102dc565b5080610bc381611675565b915050610a83565b5060005b81811015610c2e57600160076000858585818110610bef57610bef61177c565b90506020020135815260200190815260200160002060006101000a81548160ff0219169083151502179055508080610c2690611675565b915050610bcf565b50610c388161113e565b5050565b610c44610fee565b61061a60006113d9565b610c56610fee565b61061a611429565b610c66610fee565b604051632f0ad01760e21b8152600160048201526001600160a01b03821660248201526000604482015273__$9fb44ff2c34f190f83e05881311175c942$__9063bc2b405c906064015b60006040518083038186803b158015610cc857600080fd5b505af4158015610cdc573d6000803e3d6000fd5b5050505050565b610ceb610fee565b60055415610d3b5760405162461bcd60e51b815260206004820152601860248201527f4c6f636b2074696d6520697320616c726561647920736574000000000000000060448201526064016102dc565b610d488162015180611634565b610d529042611690565b60055550565b610d60610fee565b60405163732a2ccf60e01b8152600160048201526001600160a01b038216602482015260009073__$9fb44ff2c34f190f83e05881311175c942$__9063732a2ccf90604401602060405180830381865af4158015610dc2573d6000803e3d6000fd5b505050506040513d601f19601f82011682018060405250810190610de691906115af565b1115610f2e5760405163732a2ccf60e01b8152600160048201526001600160a01b0382166024820181905260009163a9059cbb90339073__$9fb44ff2c34f190f83e05881311175c942$__9063732a2ccf90604401602060405180830381865af4158015610e58573d6000803e3d6000fd5b505050506040513d601f19601f82011682018060405250810190610e7c91906115af565b6040516001600160e01b031960e085901b1681526001600160a01b03909216600483015260248201526044016020604051808303816000875af1158015610ec7573d6000803e3d6000fd5b505050506040513d601f19601f82011682018060405250810190610eeb9190611653565b905080610f2c5760405162461bcd60e51b815260206004820152600f60248201526e151c985b9cd9995c8811985a5b1959608a1b60448201526064016102dc565b505b60405163131836e760e21b8152600160048201526001600160a01b038216602482015273__$9fb44ff2c34f190f83e05881311175c942$__90634c60db9c90604401610cb0565b610f7d610fee565b6001600160a01b038116610fe25760405162461bcd60e51b815260206004820152602660248201527f4f776e61626c653a206e6577206f776e657220697320746865207a65726f206160448201526564647265737360d01b60648201526084016102dc565b610feb816113d9565b50565b6000546001600160a01b0316331461061a5760405162461bcd60e51b815260206004820181905260248201527f4f776e61626c653a2063616c6c6572206973206e6f7420746865206f776e657260448201526064016102dc565b61105061146c565b6000805460ff60a01b191690557f5db9ee0a495bf2e6ff9c91a7834c1ba4fdd244a5e8aa4e537bd38aeae4b073aa335b6040516001600160a01b03909116815260200160405180910390a1565b600054600160a01b900460ff161561061a5760405162461bcd60e51b815260206004820152601060248201526f14185d5cd8589b194e881c185d5cd95960821b60448201526064016102dc565b6000805b8351811015611134578284828151811061110a5761110a61177c565b60200260200101511415611122576001915050610a06565b8061112c81611675565b9150506110ee565b5060009392505050565b600654604080516362720d9160e11b815290516000926001600160a01b03169163c4e41b229160048083019260209291908290030181865afa158015611188573d6000803e3d6000fd5b505050506040513d601f19601f820116820180604052508101906111ac91906115af565b905060005b604051636f59ec4b60e11b81526001600482015273__$9fb44ff2c34f190f83e05881311175c942$__9063deb3d89690602401602060405180830381865af4158015611201573d6000803e3d6000fd5b505050506040513d601f19601f8201168201806040525081019061122591906115af565b8110156113d4576040516368d54f3f60e11b8152600160048201526024810182905260009073__$9fb44ff2c34f190f83e05881311175c942$__9063d1aa9e7e90604401602060405180830381865af4158015611286573d6000803e3d6000fd5b505050506040513d601f19601f820116820180604052508101906112aa91906115f5565b60405163732a2ccf60e01b8152600160048201526001600160a01b0382166024820181905291925063a9059cbb903390869073__$9fb44ff2c34f190f83e05881311175c942$__9063732a2ccf90604401602060405180830381865af4158015611318573d6000803e3d6000fd5b505050506040513d601f19601f8201168201806040525081019061133c91906115af565b6113469190611612565b6113509088611634565b6040516001600160e01b031960e085901b1681526001600160a01b03909216600483015260248201526044016020604051808303816000875af115801561139b573d6000803e3d6000fd5b505050506040513d601f19601f820116820180604052508101906113bf9190611653565b505080806113cc90611675565b9150506111b1565b505050565b600080546001600160a01b038381166001600160a01b0319831681178455604051919092169283917f8be0079c531659141344cd1fd0a4f28419497f9722a3daafe3b4186f6b6457e09190a35050565b61143161109d565b6000805460ff60a01b1916600160a01b1790557f62e78cea01bee320cd4e420270b5ea74000d11b0c9f74754ebdbfc544b05a2586110803390565b600054600160a01b900460ff1661061a5760405162461bcd60e51b815260206004820152601460248201527314185d5cd8589b194e881b9bdd081c185d5cd95960621b60448201526064016102dc565b6001600160a01b0381168114610feb57600080fd5b6000602082840312156114e357600080fd5b81356114ee816114bc565b9392505050565b6000806040838503121561150857600080fd5b8235611513816114bc565b946020939093013593505050565b6000806020838503121561153457600080fd5b823567ffffffffffffffff8082111561154c57600080fd5b818501915085601f83011261156057600080fd5b81358181111561156f57600080fd5b8660208260051b850101111561158457600080fd5b60209290920196919550909350505050565b6000602082840312156115a857600080fd5b5035919050565b6000602082840312156115c157600080fd5b5051919050565b634e487b7160e01b600052601160045260246000fd5b6000828210156115f0576115f06115c8565b500390565b60006020828403121561160757600080fd5b81516114ee816114bc565b60008261162f57634e487b7160e01b600052601260045260246000fd5b500490565b600081600019048311821515161561164e5761164e6115c8565b500290565b60006020828403121561166557600080fd5b815180151581146114ee57600080fd5b6000600019821415611689576116896115c8565b5060010190565b600082198211156116a3576116a36115c8565b500190565b634e487b7160e01b600052604160045260246000fd5b600060208083850312156116d157600080fd5b825167ffffffffffffffff808211156116e957600080fd5b818501915085601f8301126116fd57600080fd5b81518181111561170f5761170f6116a8565b8060051b604051601f19603f83011681018181108582111715611734576117346116a8565b60405291825284820192508381018501918883111561175257600080fd5b938501935b8285101561177057845184529385019392850192611757565b98975050505050505050565b634e487b7160e01b600052603260045260246000fdfea2646970667358221220bdfd5b5352f00c781e0bbedb000112f3cf20fa082502bc8e9d504d76792a02c064736f6c634300080b0033","opcodes":"PUSH1 0x80 PUSH1 0x40 MSTORE CALLVALUE DUP1 ISZERO PUSH2 0x10 JUMPI PUSH1 0x0 DUP1 REVERT JUMPDEST POP PUSH1 0x40 MLOAD PUSH2 0x18C1 CODESIZE SUB DUP1 PUSH2 0x18C1 DUP4 CODECOPY DUP2 ADD PUSH1 0x40 DUP2 SWAP1 MSTORE PUSH2 0x2F SWAP2 PUSH2 0xBA JUMP JUMPDEST PUSH2 0x38 CALLER PUSH2 0x6A JUMP JUMPDEST PUSH1 0x0 DUP1 SLOAD PUSH1 0xFF PUSH1 0xA0 SHL NOT AND SWAP1 SSTORE PUSH1 0x6 DUP1 SLOAD PUSH1 0x1 PUSH1 0x1 PUSH1 0xA0 SHL SUB NOT AND PUSH1 0x1 PUSH1 0x1 PUSH1 0xA0 SHL SUB SWAP3 SWAP1 SWAP3 AND SWAP2 SWAP1 SWAP2 OR SWAP1 SSTORE PUSH2 0xEA JUMP JUMPDEST PUSH1 0x0 DUP1 SLOAD PUSH1 0x1 PUSH1 0x1 PUSH1 0xA0 SHL SUB DUP4 DUP2 AND PUSH1 0x1 PUSH1 0x1 PUSH1 0xA0 SHL SUB NOT DUP4 AND DUP2 OR DUP5 SSTORE PUSH1 0x40 MLOAD SWAP2 SWAP1 SWAP3 AND SWAP3 DUP4 SWAP2 PUSH32 0x8BE0079C531659141344CD1FD0A4F28419497F9722A3DAAFE3B4186F6B6457E0 SWAP2 SWAP1 LOG3 POP POP JUMP JUMPDEST PUSH1 0x0 PUSH1 0x20 DUP3 DUP5 SUB SLT ISZERO PUSH2 0xCC JUMPI PUSH1 0x0 DUP1 REVERT JUMPDEST DUP2 MLOAD PUSH1 0x1 PUSH1 0x1 PUSH1 0xA0 SHL SUB DUP2 AND DUP2 EQ PUSH2 0xE3 JUMPI PUSH1 0x0 DUP1 REVERT JUMPDEST SWAP4 SWAP3 POP POP POP JUMP JUMPDEST PUSH2 0x17C8 DUP1 PUSH2 0xF9 PUSH1 0x0 CODECOPY PUSH1 0x0 RETURN INVALID PUSH1 0x80 PUSH1 0x40 MSTORE CALLVALUE DUP1 ISZERO PUSH2 0x10 JUMPI PUSH1 0x0 DUP1 REVERT JUMPDEST POP PUSH1 0x4 CALLDATASIZE LT PUSH2 0x116 JUMPI PUSH1 0x0 CALLDATALOAD PUSH1 0xE0 SHR DUP1 PUSH4 0x6BA4C138 GT PUSH2 0xA2 JUMPI DUP1 PUSH4 0x8DA5CB5B GT PUSH2 0x71 JUMPI DUP1 PUSH4 0x8DA5CB5B EQ PUSH2 0x22D JUMPI DUP1 PUSH4 0xA75995E4 EQ PUSH2 0x23E JUMPI DUP1 PUSH4 0xAE04D45D EQ PUSH2 0x251 JUMPI DUP1 PUSH4 0xBA3A0F6C EQ PUSH2 0x264 JUMPI DUP1 PUSH4 0xF2FDE38B EQ PUSH2 0x277 JUMPI PUSH1 0x0 DUP1 REVERT JUMPDEST DUP1 PUSH4 0x6BA4C138 EQ PUSH2 0x1DE JUMPI DUP1 PUSH4 0x715018A6 EQ PUSH2 0x1F1 JUMPI DUP1 PUSH4 0x8456CB59 EQ PUSH2 0x1F9 JUMPI DUP1 PUSH4 0x8A009E95 EQ PUSH2 0x201 JUMPI PUSH1 0x0 DUP1 REVERT JUMPDEST DUP1 PUSH4 0x3F4BA83A GT PUSH2 0xE9 JUMPI DUP1 PUSH4 0x3F4BA83A EQ PUSH2 0x17F JUMPI DUP1 PUSH4 0x47E7EF24 EQ PUSH2 0x187 JUMPI DUP1 PUSH4 0x5373433F EQ PUSH2 0x19A JUMPI DUP1 PUSH4 0x5C975ABB EQ PUSH2 0x1AD JUMPI DUP1 PUSH4 0x66CC4177 EQ PUSH2 0x1CB JUMPI PUSH1 0x0 DUP1 REVERT JUMPDEST DUP1 PUSH4 0xD668087 EQ PUSH2 0x11B JUMPI DUP1 PUSH4 0x34563F2B EQ PUSH2 0x137 JUMPI DUP1 PUSH4 0x39DF43FF EQ PUSH2 0x162 JUMPI DUP1 PUSH4 0x3CCFD60B EQ PUSH2 0x177 JUMPI JUMPDEST PUSH1 0x0 DUP1 REVERT JUMPDEST PUSH2 0x124 PUSH1 0x5 SLOAD DUP2 JUMP JUMPDEST PUSH1 0x40 MLOAD SWAP1 DUP2 MSTORE PUSH1 0x20 ADD JUMPDEST PUSH1 0x40 MLOAD DUP1 SWAP2 SUB SWAP1 RETURN JUMPDEST PUSH1 0x6 SLOAD PUSH2 0x14A SWAP1 PUSH1 0x1 PUSH1 0x1 PUSH1 0xA0 SHL SUB AND DUP2 JUMP JUMPDEST PUSH1 0x40 MLOAD PUSH1 0x1 PUSH1 0x1 PUSH1 0xA0 SHL SUB SWAP1 SWAP2 AND DUP2 MSTORE PUSH1 0x20 ADD PUSH2 0x12E JUMP JUMPDEST PUSH2 0x175 PUSH2 0x170 CALLDATASIZE PUSH1 0x4 PUSH2 0x14D1 JUMP JUMPDEST PUSH2 0x28A JUMP JUMPDEST STOP JUMPDEST PUSH2 0x175 PUSH2 0x296 JUMP JUMPDEST PUSH2 0x175 PUSH2 0x60A JUMP JUMPDEST PUSH2 0x175 PUSH2 0x195 CALLDATASIZE PUSH1 0x4 PUSH2 0x14F5 JUMP JUMPDEST PUSH2 0x61C JUMP JUMPDEST PUSH2 0x124 PUSH2 0x1A8 CALLDATASIZE PUSH1 0x4 PUSH2 0x14D1 JUMP JUMPDEST PUSH2 0x92C JUMP JUMPDEST PUSH1 0x0 SLOAD PUSH1 0x1 PUSH1 0xA0 SHL SWAP1 DIV PUSH1 0xFF AND JUMPDEST PUSH1 0x40 MLOAD SWAP1 ISZERO ISZERO DUP2 MSTORE PUSH1 0x20 ADD PUSH2 0x12E JUMP JUMPDEST PUSH2 0x175 PUSH2 0x1D9 CALLDATASIZE PUSH1 0x4 PUSH2 0x14D1 JUMP JUMPDEST PUSH2 0xA0C JUMP JUMPDEST PUSH2 0x175 PUSH2 0x1EC CALLDATASIZE PUSH1 0x4 PUSH2 0x1521 JUMP JUMPDEST PUSH2 0xA36 JUMP JUMPDEST PUSH2 0x175 PUSH2 0xC3C JUMP JUMPDEST PUSH2 0x175 PUSH2 0xC4E JUMP JUMPDEST PUSH2 0x1BB PUSH2 0x20F CALLDATASIZE PUSH1 0x4 PUSH2 0x14D1 JUMP JUMPDEST PUSH1 0x1 PUSH1 0x1 PUSH1 0xA0 SHL SUB AND PUSH1 0x0 SWAP1 DUP2 MSTORE PUSH1 0x4 PUSH1 0x20 MSTORE PUSH1 0x40 SWAP1 KECCAK256 SLOAD PUSH1 0xFF AND SWAP1 JUMP JUMPDEST PUSH1 0x0 SLOAD PUSH1 0x1 PUSH1 0x1 PUSH1 0xA0 SHL SUB AND PUSH2 0x14A JUMP JUMPDEST PUSH2 0x175 PUSH2 0x24C CALLDATASIZE PUSH1 0x4 PUSH2 0x14D1 JUMP JUMPDEST PUSH2 0xC5E JUMP JUMPDEST PUSH2 0x175 PUSH2 0x25F CALLDATASIZE PUSH1 0x4 PUSH2 0x1596 JUMP JUMPDEST PUSH2 0xCE3 JUMP JUMPDEST PUSH2 0x175 PUSH2 0x272 CALLDATASIZE PUSH1 0x4 PUSH2 0x14D1 JUMP JUMPDEST PUSH2 0xD58 JUMP JUMPDEST PUSH2 0x175 PUSH2 0x285 CALLDATASIZE PUSH1 0x4 PUSH2 0x14D1 JUMP JUMPDEST PUSH2 0xF75 JUMP JUMPDEST DUP1 PUSH1 0x1 PUSH1 0x1 PUSH1 0xA0 SHL SUB AND SELFDESTRUCT JUMPDEST PUSH2 0x29E PUSH2 0xFEE JUMP JUMPDEST PUSH1 0x5 SLOAD TIMESTAMP GT PUSH2 0x2E5 JUMPI PUSH1 0x40 MLOAD PUSH3 0x461BCD PUSH1 0xE5 SHL DUP2 MSTORE PUSH1 0x20 PUSH1 0x4 DUP3 ADD MSTORE PUSH1 0xE PUSH1 0x24 DUP3 ADD MSTORE PUSH14 0x131BD8DADA5B99C814195C9A5BD9 PUSH1 0x92 SHL PUSH1 0x44 DUP3 ADD MSTORE PUSH1 0x64 ADD JUMPDEST PUSH1 0x40 MLOAD DUP1 SWAP2 SUB SWAP1 REVERT JUMPDEST PUSH1 0x6 SLOAD PUSH1 0x40 DUP1 MLOAD PUSH4 0x62720D91 PUSH1 0xE1 SHL DUP2 MSTORE SWAP1 MLOAD PUSH1 0x0 SWAP3 PUSH1 0x1 PUSH1 0x1 PUSH1 0xA0 SHL SUB AND SWAP2 PUSH4 0xC4E41B22 SWAP2 PUSH1 0x4 DUP1 DUP4 ADD SWAP3 PUSH1 0x20 SWAP3 SWAP2 SWAP1 DUP3 SWAP1 SUB ADD DUP2 DUP7 GAS STATICCALL ISZERO DUP1 ISZERO PUSH2 0x32F JUMPI RETURNDATASIZE PUSH1 0x0 DUP1 RETURNDATACOPY RETURNDATASIZE PUSH1 0x0 REVERT JUMPDEST POP POP POP POP PUSH1 0x40 MLOAD RETURNDATASIZE PUSH1 0x1F NOT PUSH1 0x1F DUP3 ADD AND DUP3 ADD DUP1 PUSH1 0x40 MSTORE POP DUP2 ADD SWAP1 PUSH2 0x353 SWAP2 SWAP1 PUSH2 0x15AF JUMP JUMPDEST SWAP1 POP PUSH1 0x0 PUSH1 0x6 PUSH1 0x0 SWAP1 SLOAD SWAP1 PUSH2 0x100 EXP SWAP1 DIV PUSH1 0x1 PUSH1 0x1 PUSH1 0xA0 SHL SUB AND PUSH1 0x1 PUSH1 0x1 PUSH1 0xA0 SHL SUB AND PUSH4 0x56189236 PUSH1 0x40 MLOAD DUP2 PUSH4 0xFFFFFFFF AND PUSH1 0xE0 SHL DUP2 MSTORE PUSH1 0x4 ADD PUSH1 0x20 PUSH1 0x40 MLOAD DUP1 DUP4 SUB DUP2 DUP7 GAS STATICCALL ISZERO DUP1 ISZERO PUSH2 0x3AA JUMPI RETURNDATASIZE PUSH1 0x0 DUP1 RETURNDATACOPY RETURNDATASIZE PUSH1 0x0 REVERT JUMPDEST POP POP POP POP PUSH1 0x40 MLOAD RETURNDATASIZE PUSH1 0x1F NOT PUSH1 0x1F DUP3 ADD AND DUP3 ADD DUP1 PUSH1 0x40 MSTORE POP DUP2 ADD SWAP1 PUSH2 0x3CE SWAP2 SWAP1 PUSH2 0x15AF JUMP JUMPDEST SWAP1 POP PUSH1 0x0 PUSH2 0x3DC DUP3 DUP5 PUSH2 0x15DE JUMP JUMPDEST SWAP1 POP PUSH1 0x0 JUMPDEST PUSH1 0x40 MLOAD PUSH4 0x6F59EC4B PUSH1 0xE1 SHL DUP2 MSTORE PUSH1 0x1 PUSH1 0x4 DUP3 ADD MSTORE PUSH20 0x0 SWAP1 PUSH4 0xDEB3D896 SWAP1 PUSH1 0x24 ADD PUSH1 0x20 PUSH1 0x40 MLOAD DUP1 DUP4 SUB DUP2 DUP7 GAS DELEGATECALL ISZERO DUP1 ISZERO PUSH2 0x431 JUMPI RETURNDATASIZE PUSH1 0x0 DUP1 RETURNDATACOPY RETURNDATASIZE PUSH1 0x0 REVERT JUMPDEST POP POP POP POP PUSH1 0x40 MLOAD RETURNDATASIZE PUSH1 0x1F NOT PUSH1 0x1F DUP3 ADD AND DUP3 ADD DUP1 PUSH1 0x40 MSTORE POP DUP2 ADD SWAP1 PUSH2 0x455 SWAP2 SWAP1 PUSH2 0x15AF JUMP JUMPDEST DUP2 LT ISZERO PUSH2 0x604 JUMPI PUSH1 0x40 MLOAD PUSH4 0x68D54F3F PUSH1 0xE1 SHL DUP2 MSTORE PUSH1 0x1 PUSH1 0x4 DUP3 ADD MSTORE PUSH1 0x24 DUP2 ADD DUP3 SWAP1 MSTORE PUSH1 0x0 SWAP1 PUSH20 0x0 SWAP1 PUSH4 0xD1AA9E7E SWAP1 PUSH1 0x44 ADD PUSH1 0x20 PUSH1 0x40 MLOAD DUP1 DUP4 SUB DUP2 DUP7 GAS DELEGATECALL ISZERO DUP1 ISZERO PUSH2 0x4B6 JUMPI RETURNDATASIZE PUSH1 0x0 DUP1 RETURNDATACOPY RETURNDATASIZE PUSH1 0x0 REVERT JUMPDEST POP POP POP POP PUSH1 0x40 MLOAD RETURNDATASIZE PUSH1 0x1F NOT PUSH1 0x1F DUP3 ADD AND DUP3 ADD DUP1 PUSH1 0x40 MSTORE POP DUP2 ADD SWAP1 PUSH2 0x4DA SWAP2 SWAP1 PUSH2 0x15F5 JUMP JUMPDEST PUSH1 0x40 MLOAD PUSH4 0x732A2CCF PUSH1 0xE0 SHL DUP2 MSTORE PUSH1 0x1 PUSH1 0x4 DUP3 ADD MSTORE PUSH1 0x1 PUSH1 0x1 PUSH1 0xA0 SHL SUB DUP3 AND PUSH1 0x24 DUP3 ADD DUP2 SWAP1 MSTORE SWAP2 SWAP3 POP PUSH4 0xA9059CBB SWAP1 CALLER SWAP1 DUP9 SWAP1 PUSH20 0x0 SWAP1 PUSH4 0x732A2CCF SWAP1 PUSH1 0x44 ADD PUSH1 0x20 PUSH1 0x40 MLOAD DUP1 DUP4 SUB DUP2 DUP7 GAS DELEGATECALL ISZERO DUP1 ISZERO PUSH2 0x548 JUMPI RETURNDATASIZE PUSH1 0x0 DUP1 RETURNDATACOPY RETURNDATASIZE PUSH1 0x0 REVERT JUMPDEST POP POP POP POP PUSH1 0x40 MLOAD RETURNDATASIZE PUSH1 0x1F NOT PUSH1 0x1F DUP3 ADD AND DUP3 ADD DUP1 PUSH1 0x40 MSTORE POP DUP2 ADD SWAP1 PUSH2 0x56C SWAP2 SWAP1 PUSH2 0x15AF JUMP JUMPDEST PUSH2 0x576 SWAP2 SWAP1 PUSH2 0x1612 JUMP JUMPDEST PUSH2 0x580 SWAP1 DUP8 PUSH2 0x1634 JUMP JUMPDEST PUSH1 0x40 MLOAD PUSH1 0x1 PUSH1 0x1 PUSH1 0xE0 SHL SUB NOT PUSH1 0xE0 DUP6 SWAP1 SHL AND DUP2 MSTORE PUSH1 0x1 PUSH1 0x1 PUSH1 0xA0 SHL SUB SWAP1 SWAP3 AND PUSH1 0x4 DUP4 ADD MSTORE PUSH1 0x24 DUP3 ADD MSTORE PUSH1 0x44 ADD PUSH1 0x20 PUSH1 0x40 MLOAD DUP1 DUP4 SUB DUP2 PUSH1 0x0 DUP8 GAS CALL ISZERO DUP1 ISZERO PUSH2 0x5CB JUMPI RETURNDATASIZE PUSH1 0x0 DUP1 RETURNDATACOPY RETURNDATASIZE PUSH1 0x0 REVERT JUMPDEST POP POP POP POP PUSH1 0x40 MLOAD RETURNDATASIZE PUSH1 0x1F NOT PUSH1 0x1F DUP3 ADD AND DUP3 ADD DUP1 PUSH1 0x40 MSTORE POP DUP2 ADD SWAP1 PUSH2 0x5EF SWAP2 SWAP1 PUSH2 0x1653 JUMP JUMPDEST POP POP DUP1 DUP1 PUSH2 0x5FC SWAP1 PUSH2 0x1675 JUMP JUMPDEST SWAP2 POP POP PUSH2 0x3E1 JUMP JUMPDEST POP POP POP POP JUMP JUMPDEST PUSH2 0x612 PUSH2 0xFEE JUMP JUMPDEST PUSH2 0x61A PUSH2 0x1048 JUMP JUMPDEST JUMP JUMPDEST PUSH1 0x1 PUSH1 0x1 PUSH1 0xA0 SHL SUB DUP3 AND PUSH1 0x0 SWAP1 DUP2 MSTORE PUSH1 0x4 PUSH1 0x20 MSTORE PUSH1 0x40 SWAP1 KECCAK256 SLOAD PUSH1 0xFF AND PUSH2 0x67C JUMPI PUSH1 0x40 MLOAD PUSH3 0x461BCD PUSH1 0xE5 SHL DUP2 MSTORE PUSH1 0x20 PUSH1 0x4 DUP3 ADD MSTORE PUSH1 0x15 PUSH1 0x24 DUP3 ADD MSTORE PUSH21 0x105CDCD95D081A5CC81B9BDD08185C1C1C9BDD9959 PUSH1 0x5A SHL PUSH1 0x44 DUP3 ADD MSTORE PUSH1 0x64 ADD PUSH2 0x2DC JUMP JUMPDEST PUSH1 0x40 MLOAD PUSH4 0x70A08231 PUSH1 0xE0 SHL DUP2 MSTORE CALLER PUSH1 0x4 DUP3 ADD MSTORE DUP2 SWAP1 PUSH1 0x1 PUSH1 0x1 PUSH1 0xA0 SHL SUB DUP5 AND SWAP1 PUSH4 0x70A08231 SWAP1 PUSH1 0x24 ADD PUSH1 0x20 PUSH1 0x40 MLOAD DUP1 DUP4 SUB DUP2 DUP7 GAS STATICCALL ISZERO DUP1 ISZERO PUSH2 0x6C2 JUMPI RETURNDATASIZE PUSH1 0x0 DUP1 RETURNDATACOPY RETURNDATASIZE PUSH1 0x0 REVERT JUMPDEST POP POP POP POP PUSH1 0x40 MLOAD RETURNDATASIZE PUSH1 0x1F NOT PUSH1 0x1F DUP3 ADD AND DUP3 ADD DUP1 PUSH1 0x40 MSTORE POP DUP2 ADD SWAP1 PUSH2 0x6E6 SWAP2 SWAP1 PUSH2 0x15AF JUMP JUMPDEST LT ISZERO PUSH2 0x729 JUMPI PUSH1 0x40 MLOAD PUSH3 0x461BCD PUSH1 0xE5 SHL DUP2 MSTORE PUSH1 0x20 PUSH1 0x4 DUP3 ADD MSTORE PUSH1 0x12 PUSH1 0x24 DUP3 ADD MSTORE PUSH18 0x125B9CDD59999A58DA595B9D08105CDCD95D PUSH1 0x72 SHL PUSH1 0x44 DUP3 ADD MSTORE PUSH1 0x64 ADD PUSH2 0x2DC JUMP JUMPDEST PUSH1 0x40 MLOAD PUSH4 0x23B872DD PUSH1 0xE0 SHL DUP2 MSTORE CALLER PUSH1 0x4 DUP3 ADD MSTORE ADDRESS PUSH1 0x24 DUP3 ADD MSTORE PUSH1 0x44 DUP2 ADD DUP3 SWAP1 MSTORE PUSH1 0x0 SWAP1 PUSH1 0x1 PUSH1 0x1 PUSH1 0xA0 SHL SUB DUP5 AND SWAP1 PUSH4 0x23B872DD SWAP1 PUSH1 0x64 ADD PUSH1 0x20 PUSH1 0x40 MLOAD DUP1 DUP4 SUB DUP2 PUSH1 0x0 DUP8 GAS CALL ISZERO DUP1 ISZERO PUSH2 0x77F JUMPI RETURNDATASIZE PUSH1 0x0 DUP1 RETURNDATACOPY RETURNDATASIZE PUSH1 0x0 REVERT JUMPDEST POP POP POP POP PUSH1 0x40 MLOAD RETURNDATASIZE PUSH1 0x1F NOT PUSH1 0x1F DUP3 ADD AND DUP3 ADD DUP1 PUSH1 0x40 MSTORE POP DUP2 ADD SWAP1 PUSH2 0x7A3 SWAP2 SWAP1 PUSH2 0x1653 JUMP JUMPDEST SWAP1 POP DUP1 PUSH2 0x7E4 JUMPI PUSH1 0x40 MLOAD PUSH3 0x461BCD PUSH1 0xE5 SHL DUP2 MSTORE PUSH1 0x20 PUSH1 0x4 DUP3 ADD MSTORE PUSH1 0xF PUSH1 0x24 DUP3 ADD MSTORE PUSH15 0x151C985B9CD9995C8811985A5B1959 PUSH1 0x8A SHL PUSH1 0x44 DUP3 ADD MSTORE PUSH1 0x64 ADD PUSH2 0x2DC JUMP JUMPDEST PUSH1 0x40 MLOAD PUSH4 0x732A2CCF PUSH1 0xE0 SHL DUP2 MSTORE PUSH1 0x1 PUSH1 0x4 DUP3 ADD DUP2 SWAP1 MSTORE PUSH1 0x1 PUSH1 0x1 PUSH1 0xA0 SHL SUB DUP6 AND PUSH1 0x24 DUP4 ADD MSTORE PUSH20 0x0 SWAP2 PUSH4 0xBC2B405C SWAP2 SWAP1 DUP7 SWAP1 DUP7 SWAP1 DUP6 SWAP1 PUSH4 0x732A2CCF SWAP1 PUSH1 0x44 ADD PUSH1 0x20 PUSH1 0x40 MLOAD DUP1 DUP4 SUB DUP2 DUP7 GAS DELEGATECALL ISZERO DUP1 ISZERO PUSH2 0x852 JUMPI RETURNDATASIZE PUSH1 0x0 DUP1 RETURNDATACOPY RETURNDATASIZE PUSH1 0x0 REVERT JUMPDEST POP POP POP POP PUSH1 0x40 MLOAD RETURNDATASIZE PUSH1 0x1F NOT PUSH1 0x1F DUP3 ADD AND DUP3 ADD DUP1 PUSH1 0x40 MSTORE POP DUP2 ADD SWAP1 PUSH2 0x876 SWAP2 SWAP1 PUSH2 0x15AF JUMP JUMPDEST PUSH2 0x880 SWAP2 SWAP1 PUSH2 0x1690 JUMP JUMPDEST PUSH1 0x40 MLOAD PUSH1 0x1 PUSH1 0x1 PUSH1 0xE0 SHL SUB NOT PUSH1 0xE0 DUP7 SWAP1 SHL AND DUP2 MSTORE PUSH1 0x4 DUP2 ADD SWAP4 SWAP1 SWAP4 MSTORE PUSH1 0x1 PUSH1 0x1 PUSH1 0xA0 SHL SUB SWAP1 SWAP2 AND PUSH1 0x24 DUP4 ADD MSTORE PUSH1 0x44 DUP3 ADD MSTORE PUSH1 0x64 ADD PUSH1 0x0 PUSH1 0x40 MLOAD DUP1 DUP4 SUB DUP2 DUP7 DUP1 EXTCODESIZE ISZERO DUP1 ISZERO PUSH2 0x8CC JUMPI PUSH1 0x0 DUP1 REVERT JUMPDEST POP GAS DELEGATECALL ISZERO DUP1 ISZERO PUSH2 0x8E0 JUMPI RETURNDATASIZE PUSH1 0x0 DUP1 RETURNDATACOPY RETURNDATASIZE PUSH1 0x0 REVERT JUMPDEST POP POP PUSH1 0x40 DUP1 MLOAD PUSH1 0x1 PUSH1 0x1 PUSH1 0xA0 SHL SUB DUP8 AND DUP2 MSTORE PUSH1 0x20 DUP2 ADD DUP7 SWAP1 MSTORE PUSH32 0xDDC69A07B5BFCEE2B68A56A2E28E712C83E6B1372B06F80AAAB04DBACA91020F SWAP4 POP ADD SWAP1 POP PUSH1 0x40 MLOAD DUP1 SWAP2 SUB SWAP1 LOG1 POP POP POP JUMP JUMPDEST PUSH1 0x1 PUSH1 0x1 PUSH1 0xA0 SHL SUB DUP2 AND PUSH1 0x0 SWAP1 DUP2 MSTORE PUSH1 0x4 PUSH1 0x20 MSTORE PUSH1 0x40 DUP2 KECCAK256 SLOAD PUSH1 0xFF AND PUSH2 0x983 JUMPI PUSH1 0x40 MLOAD PUSH3 0x461BCD PUSH1 0xE5 SHL DUP2 MSTORE PUSH1 0x20 PUSH1 0x4 DUP3 ADD MSTORE PUSH1 0xC PUSH1 0x24 DUP3 ADD MSTORE PUSH12 0x139BDD08185C1C1C9BDD9959 PUSH1 0xA2 SHL PUSH1 0x44 DUP3 ADD MSTORE PUSH1 0x64 ADD PUSH2 0x2DC JUMP JUMPDEST PUSH1 0x40 MLOAD PUSH4 0x732A2CCF PUSH1 0xE0 SHL DUP2 MSTORE PUSH1 0x1 PUSH1 0x4 DUP3 ADD MSTORE PUSH1 0x1 PUSH1 0x1 PUSH1 0xA0 SHL SUB DUP4 AND PUSH1 0x24 DUP3 ADD MSTORE PUSH20 0x0 SWAP1 PUSH4 0x732A2CCF SWAP1 PUSH1 0x44 ADD PUSH1 0x20 PUSH1 0x40 MLOAD DUP1 DUP4 SUB DUP2 DUP7 GAS DELEGATECALL ISZERO DUP1 ISZERO PUSH2 0x9E2 JUMPI RETURNDATASIZE PUSH1 0x0 DUP1 RETURNDATACOPY RETURNDATASIZE PUSH1 0x0 REVERT JUMPDEST POP POP POP POP PUSH1 0x40 MLOAD RETURNDATASIZE PUSH1 0x1F NOT PUSH1 0x1F DUP3 ADD AND DUP3 ADD DUP1 PUSH1 0x40 MSTORE POP DUP2 ADD SWAP1 PUSH2 0xA06 SWAP2 SWAP1 PUSH2 0x15AF JUMP JUMPDEST SWAP3 SWAP2 POP POP JUMP JUMPDEST PUSH2 0xA14 PUSH2 0xFEE JUMP JUMPDEST PUSH1 0x6 DUP1 SLOAD PUSH1 0x1 PUSH1 0x1 PUSH1 0xA0 SHL SUB NOT AND PUSH1 0x1 PUSH1 0x1 PUSH1 0xA0 SHL SUB SWAP3 SWAP1 SWAP3 AND SWAP2 SWAP1 SWAP2 OR SWAP1 SSTORE JUMP JUMPDEST PUSH2 0xA3E PUSH2 0x109D JUMP JUMPDEST PUSH1 0x5 SLOAD TIMESTAMP GT PUSH2 0xA80 JUMPI PUSH1 0x40 MLOAD PUSH3 0x461BCD PUSH1 0xE5 SHL DUP2 MSTORE PUSH1 0x20 PUSH1 0x4 DUP3 ADD MSTORE PUSH1 0xE PUSH1 0x24 DUP3 ADD MSTORE PUSH14 0x131BD8DADA5B99C814195C9A5BD9 PUSH1 0x92 SHL PUSH1 0x44 DUP3 ADD MSTORE PUSH1 0x64 ADD PUSH2 0x2DC JUMP JUMPDEST PUSH1 0x0 JUMPDEST DUP2 DUP2 LT ISZERO PUSH2 0xBCB JUMPI PUSH1 0x6 SLOAD PUSH1 0x40 MLOAD PUSH4 0x29927CD5 PUSH1 0xE1 SHL DUP2 MSTORE CALLER PUSH1 0x4 DUP3 ADD MSTORE PUSH1 0x0 SWAP2 PUSH1 0x1 PUSH1 0x1 PUSH1 0xA0 SHL SUB AND SWAP1 PUSH4 0x5324F9AA SWAP1 PUSH1 0x24 ADD PUSH1 0x0 PUSH1 0x40 MLOAD DUP1 DUP4 SUB DUP2 DUP7 GAS STATICCALL ISZERO DUP1 ISZERO PUSH2 0xAD4 JUMPI RETURNDATASIZE PUSH1 0x0 DUP1 RETURNDATACOPY RETURNDATASIZE PUSH1 0x0 REVERT JUMPDEST POP POP POP POP PUSH1 0x40 MLOAD RETURNDATASIZE PUSH1 0x0 DUP3 RETURNDATACOPY PUSH1 0x1F RETURNDATASIZE SWAP1 DUP2 ADD PUSH1 0x1F NOT AND DUP3 ADD PUSH1 0x40 MSTORE PUSH2 0xAFC SWAP2 SWAP1 DUP2 ADD SWAP1 PUSH2 0x16BE JUMP JUMPDEST SWAP1 POP PUSH1 0x7 PUSH1 0x0 DUP6 DUP6 DUP6 DUP2 DUP2 LT PUSH2 0xB14 JUMPI PUSH2 0xB14 PUSH2 0x177C JUMP JUMPDEST PUSH1 0x20 SWAP1 DUP2 MUL SWAP3 SWAP1 SWAP3 ADD CALLDATALOAD DUP4 MSTORE POP DUP2 ADD SWAP2 SWAP1 SWAP2 MSTORE PUSH1 0x40 ADD PUSH1 0x0 KECCAK256 SLOAD PUSH1 0xFF AND ISZERO DUP1 ISZERO PUSH2 0xB5B JUMPI POP PUSH2 0xB5B DUP2 DUP6 DUP6 DUP6 DUP2 DUP2 LT PUSH2 0xB4F JUMPI PUSH2 0xB4F PUSH2 0x177C JUMP JUMPDEST SWAP1 POP PUSH1 0x20 MUL ADD CALLDATALOAD PUSH2 0x10EA JUMP JUMPDEST PUSH2 0xBB8 JUMPI PUSH1 0x40 MLOAD PUSH3 0x461BCD PUSH1 0xE5 SHL DUP2 MSTORE PUSH1 0x20 PUSH1 0x4 DUP3 ADD MSTORE PUSH1 0x28 PUSH1 0x24 DUP3 ADD MSTORE PUSH32 0x4E6F74206F776E6572206F6620746F6B656E206964206F7220616C7265616479 PUSH1 0x44 DUP3 ADD MSTORE PUSH8 0x818DB185A5B5959 PUSH1 0xC2 SHL PUSH1 0x64 DUP3 ADD MSTORE PUSH1 0x84 ADD PUSH2 0x2DC JUMP JUMPDEST POP DUP1 PUSH2 0xBC3 DUP2 PUSH2 0x1675 JUMP JUMPDEST SWAP2 POP POP PUSH2 0xA83 JUMP JUMPDEST POP PUSH1 0x0 JUMPDEST DUP2 DUP2 LT ISZERO PUSH2 0xC2E JUMPI PUSH1 0x1 PUSH1 0x7 PUSH1 0x0 DUP6 DUP6 DUP6 DUP2 DUP2 LT PUSH2 0xBEF JUMPI PUSH2 0xBEF PUSH2 0x177C JUMP JUMPDEST SWAP1 POP PUSH1 0x20 MUL ADD CALLDATALOAD DUP2 MSTORE PUSH1 0x20 ADD SWAP1 DUP2 MSTORE PUSH1 0x20 ADD PUSH1 0x0 KECCAK256 PUSH1 0x0 PUSH2 0x100 EXP DUP2 SLOAD DUP2 PUSH1 0xFF MUL NOT AND SWAP1 DUP4 ISZERO ISZERO MUL OR SWAP1 SSTORE POP DUP1 DUP1 PUSH2 0xC26 SWAP1 PUSH2 0x1675 JUMP JUMPDEST SWAP2 POP POP PUSH2 0xBCF JUMP JUMPDEST POP PUSH2 0xC38 DUP2 PUSH2 0x113E JUMP JUMPDEST POP POP JUMP JUMPDEST PUSH2 0xC44 PUSH2 0xFEE JUMP JUMPDEST PUSH2 0x61A PUSH1 0x0 PUSH2 0x13D9 JUMP JUMPDEST PUSH2 0xC56 PUSH2 0xFEE JUMP JUMPDEST PUSH2 0x61A PUSH2 0x1429 JUMP JUMPDEST PUSH2 0xC66 PUSH2 0xFEE JUMP JUMPDEST PUSH1 0x40 MLOAD PUSH4 0x2F0AD017 PUSH1 0xE2 SHL DUP2 MSTORE PUSH1 0x1 PUSH1 0x4 DUP3 ADD MSTORE PUSH1 0x1 PUSH1 0x1 PUSH1 0xA0 SHL SUB DUP3 AND PUSH1 0x24 DUP3 ADD MSTORE PUSH1 0x0 PUSH1 0x44 DUP3 ADD MSTORE PUSH20 0x0 SWAP1 PUSH4 0xBC2B405C SWAP1 PUSH1 0x64 ADD JUMPDEST PUSH1 0x0 PUSH1 0x40 MLOAD DUP1 DUP4 SUB DUP2 DUP7 DUP1 EXTCODESIZE ISZERO DUP1 ISZERO PUSH2 0xCC8 JUMPI PUSH1 0x0 DUP1 REVERT JUMPDEST POP GAS DELEGATECALL ISZERO DUP1 ISZERO PUSH2 0xCDC JUMPI RETURNDATASIZE PUSH1 0x0 DUP1 RETURNDATACOPY RETURNDATASIZE PUSH1 0x0 REVERT JUMPDEST POP POP POP POP POP JUMP JUMPDEST PUSH2 0xCEB PUSH2 0xFEE JUMP JUMPDEST PUSH1 0x5 SLOAD ISZERO PUSH2 0xD3B JUMPI PUSH1 0x40 MLOAD PUSH3 0x461BCD PUSH1 0xE5 SHL DUP2 MSTORE PUSH1 0x20 PUSH1 0x4 DUP3 ADD MSTORE PUSH1 0x18 PUSH1 0x24 DUP3 ADD MSTORE PUSH32 0x4C6F636B2074696D6520697320616C7265616479207365740000000000000000 PUSH1 0x44 DUP3 ADD MSTORE PUSH1 0x64 ADD PUSH2 0x2DC JUMP JUMPDEST PUSH2 0xD48 DUP2 PUSH3 0x15180 PUSH2 0x1634 JUMP JUMPDEST PUSH2 0xD52 SWAP1 TIMESTAMP PUSH2 0x1690 JUMP JUMPDEST PUSH1 0x5 SSTORE POP JUMP JUMPDEST PUSH2 0xD60 PUSH2 0xFEE JUMP JUMPDEST PUSH1 0x40 MLOAD PUSH4 0x732A2CCF PUSH1 0xE0 SHL DUP2 MSTORE PUSH1 0x1 PUSH1 0x4 DUP3 ADD MSTORE PUSH1 0x1 PUSH1 0x1 PUSH1 0xA0 SHL SUB DUP3 AND PUSH1 0x24 DUP3 ADD MSTORE PUSH1 0x0 SWAP1 PUSH20 0x0 SWAP1 PUSH4 0x732A2CCF SWAP1 PUSH1 0x44 ADD PUSH1 0x20 PUSH1 0x40 MLOAD DUP1 DUP4 SUB DUP2 DUP7 GAS DELEGATECALL ISZERO DUP1 ISZERO PUSH2 0xDC2 JUMPI RETURNDATASIZE PUSH1 0x0 DUP1 RETURNDATACOPY RETURNDATASIZE PUSH1 0x0 REVERT JUMPDEST POP POP POP POP PUSH1 0x40 MLOAD RETURNDATASIZE PUSH1 0x1F NOT PUSH1 0x1F DUP3 ADD AND DUP3 ADD DUP1 PUSH1 0x40 MSTORE POP DUP2 ADD SWAP1 PUSH2 0xDE6 SWAP2 SWAP1 PUSH2 0x15AF JUMP JUMPDEST GT ISZERO PUSH2 0xF2E JUMPI PUSH1 0x40 MLOAD PUSH4 0x732A2CCF PUSH1 0xE0 SHL DUP2 MSTORE PUSH1 0x1 PUSH1 0x4 DUP3 ADD MSTORE PUSH1 0x1 PUSH1 0x1 PUSH1 0xA0 SHL SUB DUP3 AND PUSH1 0x24 DUP3 ADD DUP2 SWAP1 MSTORE PUSH1 0x0 SWAP2 PUSH4 0xA9059CBB SWAP1 CALLER SWAP1 PUSH20 0x0 SWAP1 PUSH4 0x732A2CCF SWAP1 PUSH1 0x44 ADD PUSH1 0x20 PUSH1 0x40 MLOAD DUP1 DUP4 SUB DUP2 DUP7 GAS DELEGATECALL ISZERO DUP1 ISZERO PUSH2 0xE58 JUMPI RETURNDATASIZE PUSH1 0x0 DUP1 RETURNDATACOPY RETURNDATASIZE PUSH1 0x0 REVERT JUMPDEST POP POP POP POP PUSH1 0x40 MLOAD RETURNDATASIZE PUSH1 0x1F NOT PUSH1 0x1F DUP3 ADD AND DUP3 ADD DUP1 PUSH1 0x40 MSTORE POP DUP2 ADD SWAP1 PUSH2 0xE7C SWAP2 SWAP1 PUSH2 0x15AF JUMP JUMPDEST PUSH1 0x40 MLOAD PUSH1 0x1 PUSH1 0x1 PUSH1 0xE0 SHL SUB NOT PUSH1 0xE0 DUP6 SWAP1 SHL AND DUP2 MSTORE PUSH1 0x1 PUSH1 0x1 PUSH1 0xA0 SHL SUB SWAP1 SWAP3 AND PUSH1 0x4 DUP4 ADD MSTORE PUSH1 0x24 DUP3 ADD MSTORE PUSH1 0x44 ADD PUSH1 0x20 PUSH1 0x40 MLOAD DUP1 DUP4 SUB DUP2 PUSH1 0x0 DUP8 GAS CALL ISZERO DUP1 ISZERO PUSH2 0xEC7 JUMPI RETURNDATASIZE PUSH1 0x0 DUP1 RETURNDATACOPY RETURNDATASIZE PUSH1 0x0 REVERT JUMPDEST POP POP POP POP PUSH1 0x40 MLOAD RETURNDATASIZE PUSH1 0x1F NOT PUSH1 0x1F DUP3 ADD AND DUP3 ADD DUP1 PUSH1 0x40 MSTORE POP DUP2 ADD SWAP1 PUSH2 0xEEB SWAP2 SWAP1 PUSH2 0x1653 JUMP JUMPDEST SWAP1 POP DUP1 PUSH2 0xF2C JUMPI PUSH1 0x40 MLOAD PUSH3 0x461BCD PUSH1 0xE5 SHL DUP2 MSTORE PUSH1 0x20 PUSH1 0x4 DUP3 ADD MSTORE PUSH1 0xF PUSH1 0x24 DUP3 ADD MSTORE PUSH15 0x151C985B9CD9995C8811985A5B1959 PUSH1 0x8A SHL PUSH1 0x44 DUP3 ADD MSTORE PUSH1 0x64 ADD PUSH2 0x2DC JUMP JUMPDEST POP JUMPDEST PUSH1 0x40 MLOAD PUSH4 0x131836E7 PUSH1 0xE2 SHL DUP2 MSTORE PUSH1 0x1 PUSH1 0x4 DUP3 ADD MSTORE PUSH1 0x1 PUSH1 0x1 PUSH1 0xA0 SHL SUB DUP3 AND PUSH1 0x24 DUP3 ADD MSTORE PUSH20 0x0 SWAP1 PUSH4 0x4C60DB9C SWAP1 PUSH1 0x44 ADD PUSH2 0xCB0 JUMP JUMPDEST PUSH2 0xF7D PUSH2 0xFEE JUMP JUMPDEST PUSH1 0x1 PUSH1 0x1 PUSH1 0xA0 SHL SUB DUP2 AND PUSH2 0xFE2 JUMPI PUSH1 0x40 MLOAD PUSH3 0x461BCD PUSH1 0xE5 SHL DUP2 MSTORE PUSH1 0x20 PUSH1 0x4 DUP3 ADD MSTORE PUSH1 0x26 PUSH1 0x24 DUP3 ADD MSTORE PUSH32 0x4F776E61626C653A206E6577206F776E657220697320746865207A65726F2061 PUSH1 0x44 DUP3 ADD MSTORE PUSH6 0x646472657373 PUSH1 0xD0 SHL PUSH1 0x64 DUP3 ADD MSTORE PUSH1 0x84 ADD PUSH2 0x2DC JUMP JUMPDEST PUSH2 0xFEB DUP2 PUSH2 0x13D9 JUMP JUMPDEST POP JUMP JUMPDEST PUSH1 0x0 SLOAD PUSH1 0x1 PUSH1 0x1 PUSH1 0xA0 SHL SUB AND CALLER EQ PUSH2 0x61A JUMPI PUSH1 0x40 MLOAD PUSH3 0x461BCD PUSH1 0xE5 SHL DUP2 MSTORE PUSH1 0x20 PUSH1 0x4 DUP3 ADD DUP2 SWAP1 MSTORE PUSH1 0x24 DUP3 ADD MSTORE PUSH32 0x4F776E61626C653A2063616C6C6572206973206E6F7420746865206F776E6572 PUSH1 0x44 DUP3 ADD MSTORE PUSH1 0x64 ADD PUSH2 0x2DC JUMP JUMPDEST PUSH2 0x1050 PUSH2 0x146C JUMP JUMPDEST PUSH1 0x0 DUP1 SLOAD PUSH1 0xFF PUSH1 0xA0 SHL NOT AND SWAP1 SSTORE PUSH32 0x5DB9EE0A495BF2E6FF9C91A7834C1BA4FDD244A5E8AA4E537BD38AEAE4B073AA CALLER JUMPDEST PUSH1 0x40 MLOAD PUSH1 0x1 PUSH1 0x1 PUSH1 0xA0 SHL SUB SWAP1 SWAP2 AND DUP2 MSTORE PUSH1 0x20 ADD PUSH1 0x40 MLOAD DUP1 SWAP2 SUB SWAP1 LOG1 JUMP JUMPDEST PUSH1 0x0 SLOAD PUSH1 0x1 PUSH1 0xA0 SHL SWAP1 DIV PUSH1 0xFF AND ISZERO PUSH2 0x61A JUMPI PUSH1 0x40 MLOAD PUSH3 0x461BCD PUSH1 0xE5 SHL DUP2 MSTORE PUSH1 0x20 PUSH1 0x4 DUP3 ADD MSTORE PUSH1 0x10 PUSH1 0x24 DUP3 ADD MSTORE PUSH16 0x14185D5CD8589B194E881C185D5CD959 PUSH1 0x82 SHL PUSH1 0x44 DUP3 ADD MSTORE PUSH1 0x64 ADD PUSH2 0x2DC JUMP JUMPDEST PUSH1 0x0 DUP1 JUMPDEST DUP4 MLOAD DUP2 LT ISZERO PUSH2 0x1134 JUMPI DUP3 DUP5 DUP3 DUP2 MLOAD DUP2 LT PUSH2 0x110A JUMPI PUSH2 0x110A PUSH2 0x177C JUMP JUMPDEST PUSH1 0x20 MUL PUSH1 0x20 ADD ADD MLOAD EQ ISZERO PUSH2 0x1122 JUMPI PUSH1 0x1 SWAP2 POP POP PUSH2 0xA06 JUMP JUMPDEST DUP1 PUSH2 0x112C DUP2 PUSH2 0x1675 JUMP JUMPDEST SWAP2 POP POP PUSH2 0x10EE JUMP JUMPDEST POP PUSH1 0x0 SWAP4 SWAP3 POP POP POP JUMP JUMPDEST PUSH1 0x6 SLOAD PUSH1 0x40 DUP1 MLOAD PUSH4 0x62720D91 PUSH1 0xE1 SHL DUP2 MSTORE SWAP1 MLOAD PUSH1 0x0 SWAP3 PUSH1 0x1 PUSH1 0x1 PUSH1 0xA0 SHL SUB AND SWAP2 PUSH4 0xC4E41B22 SWAP2 PUSH1 0x4 DUP1 DUP4 ADD SWAP3 PUSH1 0x20 SWAP3 SWAP2 SWAP1 DUP3 SWAP1 SUB ADD DUP2 DUP7 GAS STATICCALL ISZERO DUP1 ISZERO PUSH2 0x1188 JUMPI RETURNDATASIZE PUSH1 0x0 DUP1 RETURNDATACOPY RETURNDATASIZE PUSH1 0x0 REVERT JUMPDEST POP POP POP POP PUSH1 0x40 MLOAD RETURNDATASIZE PUSH1 0x1F NOT PUSH1 0x1F DUP3 ADD AND DUP3 ADD DUP1 PUSH1 0x40 MSTORE POP DUP2 ADD SWAP1 PUSH2 0x11AC SWAP2 SWAP1 PUSH2 0x15AF JUMP JUMPDEST SWAP1 POP PUSH1 0x0 JUMPDEST PUSH1 0x40 MLOAD PUSH4 0x6F59EC4B PUSH1 0xE1 SHL DUP2 MSTORE PUSH1 0x1 PUSH1 0x4 DUP3 ADD MSTORE PUSH20 0x0 SWAP1 PUSH4 0xDEB3D896 SWAP1 PUSH1 0x24 ADD PUSH1 0x20 PUSH1 0x40 MLOAD DUP1 DUP4 SUB DUP2 DUP7 GAS DELEGATECALL ISZERO DUP1 ISZERO PUSH2 0x1201 JUMPI RETURNDATASIZE PUSH1 0x0 DUP1 RETURNDATACOPY RETURNDATASIZE PUSH1 0x0 REVERT JUMPDEST POP POP POP POP PUSH1 0x40 MLOAD RETURNDATASIZE PUSH1 0x1F NOT PUSH1 0x1F DUP3 ADD AND DUP3 ADD DUP1 PUSH1 0x40 MSTORE POP DUP2 ADD SWAP1 PUSH2 0x1225 SWAP2 SWAP1 PUSH2 0x15AF JUMP JUMPDEST DUP2 LT ISZERO PUSH2 0x13D4 JUMPI PUSH1 0x40 MLOAD PUSH4 0x68D54F3F PUSH1 0xE1 SHL DUP2 MSTORE PUSH1 0x1 PUSH1 0x4 DUP3 ADD MSTORE PUSH1 0x24 DUP2 ADD DUP3 SWAP1 MSTORE PUSH1 0x0 SWAP1 PUSH20 0x0 SWAP1 PUSH4 0xD1AA9E7E SWAP1 PUSH1 0x44 ADD PUSH1 0x20 PUSH1 0x40 MLOAD DUP1 DUP4 SUB DUP2 DUP7 GAS DELEGATECALL ISZERO DUP1 ISZERO PUSH2 0x1286 JUMPI RETURNDATASIZE PUSH1 0x0 DUP1 RETURNDATACOPY RETURNDATASIZE PUSH1 0x0 REVERT JUMPDEST POP POP POP POP PUSH1 0x40 MLOAD RETURNDATASIZE PUSH1 0x1F NOT PUSH1 0x1F DUP3 ADD AND DUP3 ADD DUP1 PUSH1 0x40 MSTORE POP DUP2 ADD SWAP1 PUSH2 0x12AA SWAP2 SWAP1 PUSH2 0x15F5 JUMP JUMPDEST PUSH1 0x40 MLOAD PUSH4 0x732A2CCF PUSH1 0xE0 SHL DUP2 MSTORE PUSH1 0x1 PUSH1 0x4 DUP3 ADD MSTORE PUSH1 0x1 PUSH1 0x1 PUSH1 0xA0 SHL SUB DUP3 AND PUSH1 0x24 DUP3 ADD DUP2 SWAP1 MSTORE SWAP2 SWAP3 POP PUSH4 0xA9059CBB SWAP1 CALLER SWAP1 DUP7 SWAP1 PUSH20 0x0 SWAP1 PUSH4 0x732A2CCF SWAP1 PUSH1 0x44 ADD PUSH1 0x20 PUSH1 0x40 MLOAD DUP1 DUP4 SUB DUP2 DUP7 GAS DELEGATECALL ISZERO DUP1 ISZERO PUSH2 0x1318 JUMPI RETURNDATASIZE PUSH1 0x0 DUP1 RETURNDATACOPY RETURNDATASIZE PUSH1 0x0 REVERT JUMPDEST POP POP POP POP PUSH1 0x40 MLOAD RETURNDATASIZE PUSH1 0x1F NOT PUSH1 0x1F DUP3 ADD AND DUP3 ADD DUP1 PUSH1 0x40 MSTORE POP DUP2 ADD SWAP1 PUSH2 0x133C SWAP2 SWAP1 PUSH2 0x15AF JUMP JUMPDEST PUSH2 0x1346 SWAP2 SWAP1 PUSH2 0x1612 JUMP JUMPDEST PUSH2 0x1350 SWAP1 DUP9 PUSH2 0x1634 JUMP JUMPDEST PUSH1 0x40 MLOAD PUSH1 0x1 PUSH1 0x1 PUSH1 0xE0 SHL SUB NOT PUSH1 0xE0 DUP6 SWAP1 SHL AND DUP2 MSTORE PUSH1 0x1 PUSH1 0x1 PUSH1 0xA0 SHL SUB SWAP1 SWAP3 AND PUSH1 0x4 DUP4 ADD MSTORE PUSH1 0x24 DUP3 ADD MSTORE PUSH1 0x44 ADD PUSH1 0x20 PUSH1 0x40 MLOAD DUP1 DUP4 SUB DUP2 PUSH1 0x0 DUP8 GAS CALL ISZERO DUP1 ISZERO PUSH2 0x139B JUMPI RETURNDATASIZE PUSH1 0x0 DUP1 RETURNDATACOPY RETURNDATASIZE PUSH1 0x0 REVERT JUMPDEST POP POP POP POP PUSH1 0x40 MLOAD RETURNDATASIZE PUSH1 0x1F NOT PUSH1 0x1F DUP3 ADD AND DUP3 ADD DUP1 PUSH1 0x40 MSTORE POP DUP2 ADD SWAP1 PUSH2 0x13BF SWAP2 SWAP1 PUSH2 0x1653 JUMP JUMPDEST POP POP DUP1 DUP1 PUSH2 0x13CC SWAP1 PUSH2 0x1675 JUMP JUMPDEST SWAP2 POP POP PUSH2 0x11B1 JUMP JUMPDEST POP POP POP JUMP JUMPDEST PUSH1 0x0 DUP1 SLOAD PUSH1 0x1 PUSH1 0x1 PUSH1 0xA0 SHL SUB DUP4 DUP2 AND PUSH1 0x1 PUSH1 0x1 PUSH1 0xA0 SHL SUB NOT DUP4 AND DUP2 OR DUP5 SSTORE PUSH1 0x40 MLOAD SWAP2 SWAP1 SWAP3 AND SWAP3 DUP4 SWAP2 PUSH32 0x8BE0079C531659141344CD1FD0A4F28419497F9722A3DAAFE3B4186F6B6457E0 SWAP2 SWAP1 LOG3 POP POP JUMP JUMPDEST PUSH2 0x1431 PUSH2 0x109D JUMP JUMPDEST PUSH1 0x0 DUP1 SLOAD PUSH1 0xFF PUSH1 0xA0 SHL NOT AND PUSH1 0x1 PUSH1 0xA0 SHL OR SWAP1 SSTORE PUSH32 0x62E78CEA01BEE320CD4E420270B5EA74000D11B0C9F74754EBDBFC544B05A258 PUSH2 0x1080 CALLER SWAP1 JUMP JUMPDEST PUSH1 0x0 SLOAD PUSH1 0x1 PUSH1 0xA0 SHL SWAP1 DIV PUSH1 0xFF AND PUSH2 0x61A JUMPI PUSH1 0x40 MLOAD PUSH3 0x461BCD PUSH1 0xE5 SHL DUP2 MSTORE PUSH1 0x20 PUSH1 0x4 DUP3 ADD MSTORE PUSH1 0x14 PUSH1 0x24 DUP3 ADD MSTORE PUSH20 0x14185D5CD8589B194E881B9BDD081C185D5CD959 PUSH1 0x62 SHL PUSH1 0x44 DUP3 ADD MSTORE PUSH1 0x64 ADD PUSH2 0x2DC JUMP JUMPDEST PUSH1 0x1 PUSH1 0x1 PUSH1 0xA0 SHL SUB DUP2 AND DUP2 EQ PUSH2 0xFEB JUMPI PUSH1 0x0 DUP1 REVERT JUMPDEST PUSH1 0x0 PUSH1 0x20 DUP3 DUP5 SUB SLT ISZERO PUSH2 0x14E3 JUMPI PUSH1 0x0 DUP1 REVERT JUMPDEST DUP2 CALLDATALOAD PUSH2 0x14EE DUP2 PUSH2 0x14BC JUMP JUMPDEST SWAP4 SWAP3 POP POP POP JUMP JUMPDEST PUSH1 0x0 DUP1 PUSH1 0x40 DUP4 DUP6 SUB SLT ISZERO PUSH2 0x1508 JUMPI PUSH1 0x0 DUP1 REVERT JUMPDEST DUP3 CALLDATALOAD PUSH2 0x1513 DUP2 PUSH2 0x14BC JUMP JUMPDEST SWAP5 PUSH1 0x20 SWAP4 SWAP1 SWAP4 ADD CALLDATALOAD SWAP4 POP POP POP JUMP JUMPDEST PUSH1 0x0 DUP1 PUSH1 0x20 DUP4 DUP6 SUB SLT ISZERO PUSH2 0x1534 JUMPI PUSH1 0x0 DUP1 REVERT JUMPDEST DUP3 CALLDATALOAD PUSH8 0xFFFFFFFFFFFFFFFF DUP1 DUP3 GT ISZERO PUSH2 0x154C JUMPI PUSH1 0x0 DUP1 REVERT JUMPDEST DUP2 DUP6 ADD SWAP2 POP DUP6 PUSH1 0x1F DUP4 ADD SLT PUSH2 0x1560 JUMPI PUSH1 0x0 DUP1 REVERT JUMPDEST DUP2 CALLDATALOAD DUP2 DUP2 GT ISZERO PUSH2 0x156F JUMPI PUSH1 0x0 DUP1 REVERT JUMPDEST DUP7 PUSH1 0x20 DUP3 PUSH1 0x5 SHL DUP6 ADD ADD GT ISZERO PUSH2 0x1584 JUMPI PUSH1 0x0 DUP1 REVERT JUMPDEST PUSH1 0x20 SWAP3 SWAP1 SWAP3 ADD SWAP7 SWAP2 SWAP6 POP SWAP1 SWAP4 POP POP POP POP JUMP JUMPDEST PUSH1 0x0 PUSH1 0x20 DUP3 DUP5 SUB SLT ISZERO PUSH2 0x15A8 JUMPI PUSH1 0x0 DUP1 REVERT JUMPDEST POP CALLDATALOAD SWAP2 SWAP1 POP JUMP JUMPDEST PUSH1 0x0 PUSH1 0x20 DUP3 DUP5 SUB SLT ISZERO PUSH2 0x15C1 JUMPI PUSH1 0x0 DUP1 REVERT JUMPDEST POP MLOAD SWAP2 SWAP1 POP JUMP JUMPDEST PUSH4 0x4E487B71 PUSH1 0xE0 SHL PUSH1 0x0 MSTORE PUSH1 0x11 PUSH1 0x4 MSTORE PUSH1 0x24 PUSH1 0x0 REVERT JUMPDEST PUSH1 0x0 DUP3 DUP3 LT ISZERO PUSH2 0x15F0 JUMPI PUSH2 0x15F0 PUSH2 0x15C8 JUMP JUMPDEST POP SUB SWAP1 JUMP JUMPDEST PUSH1 0x0 PUSH1 0x20 DUP3 DUP5 SUB SLT ISZERO PUSH2 0x1607 JUMPI PUSH1 0x0 DUP1 REVERT JUMPDEST DUP2 MLOAD PUSH2 0x14EE DUP2 PUSH2 0x14BC JUMP JUMPDEST PUSH1 0x0 DUP3 PUSH2 0x162F JUMPI PUSH4 0x4E487B71 PUSH1 0xE0 SHL PUSH1 0x0 MSTORE PUSH1 0x12 PUSH1 0x4 MSTORE PUSH1 0x24 PUSH1 0x0 REVERT JUMPDEST POP DIV SWAP1 JUMP JUMPDEST PUSH1 0x0 DUP2 PUSH1 0x0 NOT DIV DUP4 GT DUP3 ISZERO ISZERO AND ISZERO PUSH2 0x164E JUMPI PUSH2 0x164E PUSH2 0x15C8 JUMP JUMPDEST POP MUL SWAP1 JUMP JUMPDEST PUSH1 0x0 PUSH1 0x20 DUP3 DUP5 SUB SLT ISZERO PUSH2 0x1665 JUMPI PUSH1 0x0 DUP1 REVERT JUMPDEST DUP2 MLOAD DUP1 ISZERO ISZERO DUP2 EQ PUSH2 0x14EE JUMPI PUSH1 0x0 DUP1 REVERT JUMPDEST PUSH1 0x0 PUSH1 0x0 NOT DUP3 EQ ISZERO PUSH2 0x1689 JUMPI PUSH2 0x1689 PUSH2 0x15C8 JUMP JUMPDEST POP PUSH1 0x1 ADD SWAP1 JUMP JUMPDEST PUSH1 0x0 DUP3 NOT DUP3 GT ISZERO PUSH2 0x16A3 JUMPI PUSH2 0x16A3 PUSH2 0x15C8 JUMP JUMPDEST POP ADD SWAP1 JUMP JUMPDEST PUSH4 0x4E487B71 PUSH1 0xE0 SHL PUSH1 0x0 MSTORE PUSH1 0x41 PUSH1 0x4 MSTORE PUSH1 0x24 PUSH1 0x0 REVERT JUMPDEST PUSH1 0x0 PUSH1 0x20 DUP1 DUP4 DUP6 SUB SLT ISZERO PUSH2 0x16D1 JUMPI PUSH1 0x0 DUP1 REVERT JUMPDEST DUP3 MLOAD PUSH8 0xFFFFFFFFFFFFFFFF DUP1 DUP3 GT ISZERO PUSH2 0x16E9 JUMPI PUSH1 0x0 DUP1 REVERT JUMPDEST DUP2 DUP6 ADD SWAP2 POP DUP6 PUSH1 0x1F DUP4 ADD SLT PUSH2 0x16FD JUMPI PUSH1 0x0 DUP1 REVERT JUMPDEST DUP2 MLOAD DUP2 DUP2 GT ISZERO PUSH2 0x170F JUMPI PUSH2 0x170F PUSH2 0x16A8 JUMP JUMPDEST DUP1 PUSH1 0x5 SHL PUSH1 0x40 MLOAD PUSH1 0x1F NOT PUSH1 0x3F DUP4 ADD AND DUP2 ADD DUP2 DUP2 LT DUP6 DUP3 GT OR ISZERO PUSH2 0x1734 JUMPI PUSH2 0x1734 PUSH2 0x16A8 JUMP JUMPDEST PUSH1 0x40 MSTORE SWAP2 DUP3 MSTORE DUP5 DUP3 ADD SWAP3 POP DUP4 DUP2 ADD DUP6 ADD SWAP2 DUP9 DUP4 GT ISZERO PUSH2 0x1752 JUMPI PUSH1 0x0 DUP1 REVERT JUMPDEST SWAP4 DUP6 ADD SWAP4 JUMPDEST DUP3 DUP6 LT ISZERO PUSH2 0x1770 JUMPI DUP5 MLOAD DUP5 MSTORE SWAP4 DUP6 ADD SWAP4 SWAP3 DUP6 ADD SWAP3 PUSH2 0x1757 JUMP JUMPDEST SWAP9 SWAP8 POP POP POP POP POP POP POP POP JUMP JUMPDEST PUSH4 0x4E487B71 PUSH1 0xE0 SHL PUSH1 0x0 MSTORE PUSH1 0x32 PUSH1 0x4 MSTORE PUSH1 0x24 PUSH1 0x0 REVERT INVALID LOG2 PUSH5 0x6970667358 0x22 SLT KECCAK256 0xBD REVERT JUMPDEST MSTORE8 MSTORE CREATE 0xC PUSH25 0x1E0BBEDB000112F3CF20FA082502BC8E9D504D76792A02C064 PUSH20 0x6F6C634300080B00330000000000000000000000 "},"methodIdentifiers":{"approveAsset(address)":"a75995e4","claim(uint256[])":"6ba4c138","deposit(address,uint256)":"47e7ef24","destroySmartContract(address)":"39df43ff","disapproveAsset(address)":"ba3a0f6c","getAssetBalance(address)":"5373433f","isAssetApproved(address)":"8a009e95","lockTime()":"0d668087","owner()":"8da5cb5b","pause()":"8456cb59","paused()":"5c975abb","renounceOwnership()":"715018a6","setLockTime(uint256)":"ae04d45d","setSugarNFT(address)":"66cc4177","sugarNFT()":"34563f2b","transferOwnership(address)":"f2fde38b","unpause()":"3f4ba83a","withdraw()":"3ccfd60b"}}}}}