{
  "_format": "hh-sol-artifact-1",
  "contractName": "TestNFT",
  "sourceName": "contracts/NFT.sol",
  "abi": [
    {
      "inputs": [
        {
          "internalType": "string",
          "name": "name",
          "type": "string"
        },
        {
          "internalType": "string",
          "name": "symbol",
          "type": "string"
        },
        {
          "internalType": "address",
          "name": "chadinu",
          "type": "address"
        },
        {
          "internalType": "address",
          "name": "dvda",
          "type": "address"
        },
        {
          "internalType": "uint256",
          "name": "nftPrice",
          "type": "uint256"
        }
      ],
      "stateMutability": "nonpayable",
      "type": "constructor"
    },
    {
      "anonymous": false,
      "inputs": [
        {
          "indexed": true,
          "internalType": "address",
          "name": "owner",
          "type": "address"
        },
        {
          "indexed": true,
          "internalType": "address",
          "name": "approved",
          "type": "address"
        },
        {
          "indexed": true,
          "internalType": "uint256",
          "name": "tokenId",
          "type": "uint256"
        }
      ],
      "name": "Approval",
      "type": "event"
    },
    {
      "anonymous": false,
      "inputs": [
        {
          "indexed": true,
          "internalType": "address",
          "name": "owner",
          "type": "address"
        },
        {
          "indexed": true,
          "internalType": "address",
          "name": "operator",
          "type": "address"
        },
        {
          "indexed": false,
          "internalType": "bool",
          "name": "approved",
          "type": "bool"
        }
      ],
      "name": "ApprovalForAll",
      "type": "event"
    },
    {
      "anonymous": false,
      "inputs": [
        {
          "indexed": true,
          "internalType": "address",
          "name": "previousOwner",
          "type": "address"
        },
        {
          "indexed": true,
          "internalType": "address",
          "name": "newOwner",
          "type": "address"
        }
      ],
      "name": "OwnershipTransferred",
      "type": "event"
    },
    {
      "anonymous": false,
      "inputs": [
        {
          "indexed": false,
          "internalType": "address",
          "name": "account",
          "type": "address"
        }
      ],
      "name": "Paused",
      "type": "event"
    },
    {
      "anonymous": false,
      "inputs": [
        {
          "indexed": true,
          "internalType": "address",
          "name": "from",
          "type": "address"
        },
        {
          "indexed": true,
          "internalType": "address",
          "name": "to",
          "type": "address"
        },
        {
          "indexed": true,
          "internalType": "uint256",
          "name": "tokenId",
          "type": "uint256"
        }
      ],
      "name": "Transfer",
      "type": "event"
    },
    {
      "anonymous": false,
      "inputs": [
        {
          "indexed": false,
          "internalType": "address",
          "name": "account",
          "type": "address"
        }
      ],
      "name": "Unpaused",
      "type": "event"
    },
    {
      "inputs": [],
      "name": "ChadinuVip",
      "outputs": [
        {
          "internalType": "contract IChadInuVIPClub",
          "name": "",
          "type": "address"
        }
      ],
      "stateMutability": "view",
      "type": "function"
    },
    {
      "inputs": [],
      "name": "DVDA",
      "outputs": [
        {
          "internalType": "contract IERC721",
          "name": "",
          "type": "address"
        }
      ],
      "stateMutability": "view",
      "type": "function"
    },
    {
      "inputs": [],
      "name": "TOTAL_SUPPLY",
      "outputs": [
        {
          "internalType": "uint256",
          "name": "",
          "type": "uint256"
        }
      ],
      "stateMutability": "view",
      "type": "function"
    },
    {
      "inputs": [
        {
          "internalType": "address[]",
          "name": "_minters",
          "type": "address[]"
        },
        {
          "internalType": "bool",
          "name": "_flag",
          "type": "bool"
        }
      ],
      "name": "addEarlyMinters",
      "outputs": [],
      "stateMutability": "nonpayable",
      "type": "function"
    },
    {
      "inputs": [
        {
          "internalType": "address[]",
          "name": "_minters",
          "type": "address[]"
        },
        {
          "internalType": "uint32[]",
          "name": "_amounts",
          "type": "uint32[]"
        }
      ],
      "name": "addFreeMinters",
      "outputs": [],
      "stateMutability": "nonpayable",
      "type": "function"
    },
    {
      "inputs": [
        {
          "internalType": "address",
          "name": "to",
          "type": "address"
        },
        {
          "internalType": "uint256",
          "name": "tokenId",
          "type": "uint256"
        }
      ],
      "name": "approve",
      "outputs": [],
      "stateMutability": "nonpayable",
      "type": "function"
    },
    {
      "inputs": [
        {
          "internalType": "address",
          "name": "owner",
          "type": "address"
        }
      ],
      "name": "balanceOf",
      "outputs": [
        {
          "internalType": "uint256",
          "name": "",
          "type": "uint256"
        }
      ],
      "stateMutability": "view",
      "type": "function"
    },
    {
      "inputs": [],
      "name": "baseTokenURI",
      "outputs": [
        {
          "internalType": "string",
          "name": "",
          "type": "string"
        }
      ],
      "stateMutability": "view",
      "type": "function"
    },
    {
      "inputs": [
        {
          "internalType": "uint32",
          "name": "_amount",
          "type": "uint32"
        }
      ],
      "name": "buyNFTEarly",
      "outputs": [],
      "stateMutability": "payable",
      "type": "function"
    },
    {
      "inputs": [],
      "name": "buyNFTForFree",
      "outputs": [],
      "stateMutability": "nonpayable",
      "type": "function"
    },
    {
      "inputs": [],
      "name": "buyNFTWithChadinu",
      "outputs": [],
      "stateMutability": "nonpayable",
      "type": "function"
    },
    {
      "inputs": [
        {
          "internalType": "uint32",
          "name": "_amount",
          "type": "uint32"
        }
      ],
      "name": "buyNFTsInPublic",
      "outputs": [],
      "stateMutability": "payable",
      "type": "function"
    },
    {
      "inputs": [],
      "name": "currentPhase",
      "outputs": [
        {
          "internalType": "enum TestNFT.Phase",
          "name": "",
          "type": "uint8"
        }
      ],
      "stateMutability": "view",
      "type": "function"
    },
    {
      "inputs": [
        {
          "internalType": "address payable",
          "name": "_to",
          "type": "address"
        }
      ],
      "name": "destroySmartContract",
      "outputs": [],
      "stateMutability": "nonpayable",
      "type": "function"
    },
    {
      "inputs": [
        {
          "internalType": "address",
          "name": "",
          "type": "address"
        }
      ],
      "name": "freeMinters",
      "outputs": [
        {
          "internalType": "uint32",
          "name": "",
          "type": "uint32"
        }
      ],
      "stateMutability": "view",
      "type": "function"
    },
    {
      "inputs": [
        {
          "internalType": "uint256",
          "name": "tokenId",
          "type": "uint256"
        }
      ],
      "name": "getApproved",
      "outputs": [
        {
          "internalType": "address",
          "name": "",
          "type": "address"
        }
      ],
      "stateMutability": "view",
      "type": "function"
    },
    {
      "inputs": [],
      "name": "getCurrentTokenId",
      "outputs": [
        {
          "internalType": "uint256",
          "name": "",
          "type": "uint256"
        }
      ],
      "stateMutability": "view",
      "type": "function"
    },
    {
      "inputs": [],
      "name": "getPrice",
      "outputs": [
        {
          "internalType": "uint256",
          "name": "",
          "type": "uint256"
        }
      ],
      "stateMutability": "view",
      "type": "function"
    },
    {
      "inputs": [
        {
          "internalType": "address",
          "name": "owner",
          "type": "address"
        }
      ],
      "name": "getTokenIdsOf",
      "outputs": [
        {
          "internalType": "uint256[]",
          "name": "",
          "type": "uint256[]"
        }
      ],
      "stateMutability": "view",
      "type": "function"
    },
    {
      "inputs": [],
      "name": "getTotalSupply",
      "outputs": [
        {
          "internalType": "uint256",
          "name": "",
          "type": "uint256"
        }
      ],
      "stateMutability": "pure",
      "type": "function"
    },
    {
      "inputs": [
        {
          "internalType": "address",
          "name": "owner",
          "type": "address"
        },
        {
          "internalType": "address",
          "name": "operator",
          "type": "address"
        }
      ],
      "name": "isApprovedForAll",
      "outputs": [
        {
          "internalType": "bool",
          "name": "",
          "type": "bool"
        }
      ],
      "stateMutability": "view",
      "type": "function"
    },
    {
      "inputs": [
        {
          "internalType": "address",
          "name": "",
          "type": "address"
        }
      ],
      "name": "isEarlyMinter",
      "outputs": [
        {
          "internalType": "bool",
          "name": "",
          "type": "bool"
        }
      ],
      "stateMutability": "view",
      "type": "function"
    },
    {
      "inputs": [],
      "name": "name",
      "outputs": [
        {
          "internalType": "string",
          "name": "",
          "type": "string"
        }
      ],
      "stateMutability": "view",
      "type": "function"
    },
    {
      "inputs": [],
      "name": "owner",
      "outputs": [
        {
          "internalType": "address",
          "name": "",
          "type": "address"
        }
      ],
      "stateMutability": "view",
      "type": "function"
    },
    {
      "inputs": [
        {
          "internalType": "uint256",
          "name": "tokenId",
          "type": "uint256"
        }
      ],
      "name": "ownerOf",
      "outputs": [
        {
          "internalType": "address",
          "name": "",
          "type": "address"
        }
      ],
      "stateMutability": "view",
      "type": "function"
    },
    {
      "inputs": [],
      "name": "pause",
      "outputs": [],
      "stateMutability": "nonpayable",
      "type": "function"
    },
    {
      "inputs": [],
      "name": "paused",
      "outputs": [
        {
          "internalType": "bool",
          "name": "",
          "type": "bool"
        }
      ],
      "stateMutability": "view",
      "type": "function"
    },
    {
      "inputs": [],
      "name": "renounceOwnership",
      "outputs": [],
      "stateMutability": "nonpayable",
      "type": "function"
    },
    {
      "inputs": [
        {
          "internalType": "address",
          "name": "_from",
          "type": "address"
        },
        {
          "internalType": "address",
          "name": "_to",
          "type": "address"
        },
        {
          "internalType": "uint256",
          "name": "_tokenId",
          "type": "uint256"
        }
      ],
      "name": "safeTransferFrom",
      "outputs": [],
      "stateMutability": "nonpayable",
      "type": "function"
    },
    {
      "inputs": [
        {
          "internalType": "address",
          "name": "_from",
          "type": "address"
        },
        {
          "internalType": "address",
          "name": "_to",
          "type": "address"
        },
        {
          "internalType": "uint256",
          "name": "_tokenId",
          "type": "uint256"
        },
        {
          "internalType": "bytes",
          "name": "_data",
          "type": "bytes"
        }
      ],
      "name": "safeTransferFrom",
      "outputs": [],
      "stateMutability": "nonpayable",
      "type": "function"
    },
    {
      "inputs": [
        {
          "internalType": "address",
          "name": "operator",
          "type": "address"
        },
        {
          "internalType": "bool",
          "name": "approved",
          "type": "bool"
        }
      ],
      "name": "setApprovalForAll",
      "outputs": [],
      "stateMutability": "nonpayable",
      "type": "function"
    },
    {
      "inputs": [
        {
          "internalType": "string",
          "name": "baseURI",
          "type": "string"
        }
      ],
      "name": "setBaseURI",
      "outputs": [],
      "stateMutability": "nonpayable",
      "type": "function"
    },
    {
      "inputs": [
        {
          "internalType": "uint32",
          "name": "_phase",
          "type": "uint32"
        }
      ],
      "name": "setPhase",
      "outputs": [],
      "stateMutability": "nonpayable",
      "type": "function"
    },
    {
      "inputs": [
        {
          "internalType": "uint256",
          "name": "_price",
          "type": "uint256"
        }
      ],
      "name": "setPrice",
      "outputs": [],
      "stateMutability": "nonpayable",
      "type": "function"
    },
    {
      "inputs": [
        {
          "internalType": "bytes4",
          "name": "interfaceId",
          "type": "bytes4"
        }
      ],
      "name": "supportsInterface",
      "outputs": [
        {
          "internalType": "bool",
          "name": "",
          "type": "bool"
        }
      ],
      "stateMutability": "view",
      "type": "function"
    },
    {
      "inputs": [],
      "name": "symbol",
      "outputs": [
        {
          "internalType": "string",
          "name": "",
          "type": "string"
        }
      ],
      "stateMutability": "view",
      "type": "function"
    },
    {
      "inputs": [
        {
          "internalType": "uint256",
          "name": "tokenId",
          "type": "uint256"
        }
      ],
      "name": "tokenURI",
      "outputs": [
        {
          "internalType": "string",
          "name": "",
          "type": "string"
        }
      ],
      "stateMutability": "view",
      "type": "function"
    },
    {
      "inputs": [
        {
          "internalType": "address",
          "name": "_from",
          "type": "address"
        },
        {
          "internalType": "address",
          "name": "_to",
          "type": "address"
        },
        {
          "internalType": "uint256",
          "name": "_tokenId",
          "type": "uint256"
        }
      ],
      "name": "transferFrom",
      "outputs": [],
      "stateMutability": "nonpayable",
      "type": "function"
    },
    {
      "inputs": [
        {
          "internalType": "address",
          "name": "newOwner",
          "type": "address"
        }
      ],
      "name": "transferOwnership",
      "outputs": [],
      "stateMutability": "nonpayable",
      "type": "function"
    },
    {
      "inputs": [],
      "name": "unpause",
      "outputs": [],
      "stateMutability": "nonpayable",
      "type": "function"
    },
    {
      "inputs": [],
      "name": "withdraw",
      "outputs": [],
      "stateMutability": "nonpayable",
      "type": "function"
    },
    {
      "stateMutability": "payable",
      "type": "receive"
    }
  ],
  "bytecode": "0x60806040523480156200001157600080fd5b5060405162003182380380620031828339810160408190526200003491620002b5565b8451859085906200004d90600090602085019062000125565b5080516200006390600190602084019062000125565b505050620000806200007a620000cf60201b60201c565b620000d3565b6007805460ff60a01b19169055600955600a8054610100600160a81b0319166101006001600160a01b0394851602179055600b80546001600160a01b03191691909216179055506200038b9050565b3390565b600780546001600160a01b038381166001600160a01b0319831681179093556040519116919082907f8be0079c531659141344cd1fd0a4f28419497f9722a3daafe3b4186f6b6457e090600090a35050565b82805462000133906200034e565b90600052602060002090601f016020900481019282620001575760008555620001a2565b82601f106200017257805160ff1916838001178555620001a2565b82800160010185558215620001a2579182015b82811115620001a257825182559160200191906001019062000185565b50620001b0929150620001b4565b5090565b5b80821115620001b05760008155600101620001b5565b634e487b7160e01b600052604160045260246000fd5b600082601f830112620001f357600080fd5b81516001600160401b0380821115620002105762000210620001cb565b604051601f8301601f19908116603f011681019082821181831017156200023b576200023b620001cb565b816040528381526020925086838588010111156200025857600080fd5b600091505b838210156200027c57858201830151818301840152908201906200025d565b838211156200028e5760008385830101525b9695505050505050565b80516001600160a01b0381168114620002b057600080fd5b919050565b600080600080600060a08688031215620002ce57600080fd5b85516001600160401b0380821115620002e657600080fd5b620002f489838a01620001e1565b965060208801519150808211156200030b57600080fd5b506200031a88828901620001e1565b9450506200032b6040870162000298565b92506200033b6060870162000298565b9150608086015190509295509295909350565b600181811c908216806200036357607f821691505b602082108114156200038557634e487b7160e01b600052602260045260246000fd5b50919050565b612de7806200039b6000396000f3fe6080604052600436106102495760003560e01c80636352211e11610139578063a22cb465116100b6578063d547cfb71161007a578063d547cfb71461068c578063e985e9c5146106a1578063f2fde38b146106ea578063f6e8fe1f1461070a578063f7bb0f4b1461071f578063f8b087121461074457600080fd5b8063a22cb46514610605578063b88d4fde14610625578063c4e41b2214610645578063c87b56dd14610659578063c8866d941461067957600080fd5b80638da5cb5b116100fd5780638da5cb5b14610588578063902d55a5146105a657806391b7f5ed146105bb57806395d89b41146105db57806398d5fdca146105f057600080fd5b80636352211e1461050957806370a0823114610529578063715018a614610549578063821bca771461055e5780638456cb591461057357600080fd5b806323b872dd116101c757806342842e0e1161018b57806342842e0e1461045a5780635324f9aa1461047a57806355f804b3146104a757806356189236146104c75780635c975abb146104ea57600080fd5b806323b872dd146103d0578063278f1ffb146103f057806339df43ff146104105780633ccfd60b146104305780633f4ba83a1461044557600080fd5b8063095ea7b31161020e578063095ea7b31461033b57806317dc55c21461035d5780631f4730321461037d57806320aa8c1914610390578063214bb348146103b057600080fd5b8062453a981461025557806301ffc9a71461029a578063055ad42e146102ba57806306fdde03146102e1578063081812fc1461030357600080fd5b3661025057005b600080fd5b34801561026157600080fd5b50610285610270366004612591565b600f6020526000908152604090205460ff1681565b60405190151581526020015b60405180910390f35b3480156102a657600080fd5b506102856102b53660046125cb565b61078c565b3480156102c657600080fd5b50600a546102d49060ff1681565b60405161029191906125fe565b3480156102ed57600080fd5b506102f661079d565b604051610291919061267e565b34801561030f57600080fd5b5061032361031e366004612691565b61082f565b6040516001600160a01b039091168152602001610291565b34801561034757600080fd5b5061035b6103563660046126aa565b610856565b005b34801561036957600080fd5b5061035b610378366004612737565b610971565b61035b61038b36600461278b565b6109f0565b34801561039c57600080fd5b5061035b6103ab36600461278b565b610b63565b3480156103bc57600080fd5b50600b54610323906001600160a01b031681565b3480156103dc57600080fd5b5061035b6103eb3660046127b1565b610bd0565b3480156103fc57600080fd5b5061035b61040b3660046127f2565b610c15565b34801561041c57600080fd5b5061035b61042b366004612591565b610d04565b34801561043c57600080fd5b5061035b610d10565b34801561045157600080fd5b5061035b610d51565b34801561046657600080fd5b5061035b6104753660046127b1565b610d63565b34801561048657600080fd5b5061049a610495366004612591565b610d7e565b604051610291919061285e565b3480156104b357600080fd5b5061035b6104c236600461292e565b610dea565b3480156104d357600080fd5b506104dc610e09565b604051908152602001610291565b3480156104f657600080fd5b50600754600160a01b900460ff16610285565b34801561051557600080fd5b50610323610524366004612691565b610e19565b34801561053557600080fd5b506104dc610544366004612591565b610e79565b34801561055557600080fd5b5061035b610eff565b34801561056a57600080fd5b5061035b610f11565b34801561057f57600080fd5b5061035b611178565b34801561059457600080fd5b506007546001600160a01b0316610323565b3480156105b257600080fd5b506104dc601181565b3480156105c757600080fd5b5061035b6105d6366004612691565b611188565b3480156105e757600080fd5b506102f6611195565b3480156105fc57600080fd5b506009546104dc565b34801561061157600080fd5b5061035b610620366004612977565b6111a4565b34801561063157600080fd5b5061035b6106403660046129ac565b6111af565b34801561065157600080fd5b5060116104dc565b34801561066557600080fd5b506102f6610674366004612691565b6111cf565b61035b61068736600461278b565b611280565b34801561069857600080fd5b506102f66114b8565b3480156106ad57600080fd5b506102856106bc366004612a2c565b6001600160a01b03918216600090815260056020908152604080832093909416825291909152205460ff1690565b3480156106f657600080fd5b5061035b610705366004612591565b611546565b34801561071657600080fd5b5061035b6115bc565b34801561072b57600080fd5b50600a546103239061010090046001600160a01b031681565b34801561075057600080fd5b5061077761075f366004612591565b600e6020526000908152604090205463ffffffff1681565b60405163ffffffff9091168152602001610291565b6000610797826117a1565b92915050565b6060600080546107ac90612a65565b80601f01602080910402602001604051908101604052809291908181526020018280546107d890612a65565b80156108255780601f106107fa57610100808354040283529160200191610825565b820191906000526020600020905b81548152906001019060200180831161080857829003601f168201915b5050505050905090565b600061083a826117f1565b506000908152600460205260409020546001600160a01b031690565b600061086182610e19565b9050806001600160a01b0316836001600160a01b031614156108d45760405162461bcd60e51b815260206004820152602160248201527f4552433732313a20617070726f76616c20746f2063757272656e74206f776e656044820152603960f91b60648201526084015b60405180910390fd5b336001600160a01b03821614806108f057506108f081336106bc565b6109625760405162461bcd60e51b815260206004820152603d60248201527f4552433732313a20617070726f76652063616c6c6572206973206e6f7420746f60448201527f6b656e206f776e6572206f7220617070726f76656420666f7220616c6c00000060648201526084016108cb565b61096c8383611850565b505050565b6109796118be565b60005b828110156109ea5781600f600086868581811061099b5761099b612aa0565b90506020020160208101906109b09190612591565b6001600160a01b031681526020810191909152604001600020805460ff1916911515919091179055806109e281612acc565b91505061097c565b50505050565b8060038163ffffffff1611158015610a0e575060008163ffffffff16115b610a4b5760405162461bcd60e51b815260206004820152600e60248201526d125b9d985b1a5908185b5bdd5b9d60921b60448201526064016108cb565b6002600a5460ff166002811115610a6457610a646125e8565b14610aa25760405162461bcd60e51b815260206004820152600e60248201526d4e6f205075626c69632053616c6560901b60448201526064016108cb565b346009548363ffffffff16610ab79190612ae7565b14610af75760405162461bcd60e51b815260206004820152601060248201526f125b9cdd59999a58d95b9d08119d5b9960821b60448201526064016108cb565b60118263ffffffff16610b0960085490565b610b139190612b06565b1115610b315760405162461bcd60e51b81526004016108cb90612b1e565b60005b8263ffffffff168163ffffffff16101561096c57610b5133611918565b80610b5b81612b46565b915050610b34565b610b6b6118be565b63ffffffff8116610b8e57600a80546000919060ff19166001835b021790555050565b8063ffffffff1660011415610bb057600a80546001919060ff19168280610b86565b8063ffffffff1660021415610bcd57600a805460ff191660021790555b50565b6001600160a01b038316610be357600080fd5b6001600160a01b038216610bf657600080fd5b610c0183838361194a565b610c0b838261197b565b61096c8282611b2b565b610c1d6118be565b828114610c5d5760405162461bcd60e51b815260206004820152600e60248201526d496e76616c696420496e7075747360901b60448201526064016108cb565b60005b83811015610cfd57828282818110610c7a57610c7a612aa0565b9050602002016020810190610c8f919061278b565b600e6000878785818110610ca557610ca5612aa0565b9050602002016020810190610cba9190612591565b6001600160a01b031681526020810191909152604001600020805463ffffffff191663ffffffff9290921691909117905580610cf581612acc565b915050610c60565b5050505050565b806001600160a01b0316ff5b610d186118be565b6007546040516001600160a01b03909116904780156108fc02916000818181858888f19350505050158015610bcd573d6000803e3d6000fd5b610d596118be565b610d61611b57565b565b61096c838383604051806020016040528060008152506111af565b6001600160a01b0381166000908152600d6020908152604091829020805483518184028101840190945280845260609392830182828015610dde57602002820191906000526020600020905b815481526020019060010190808311610dca575b50505050509050919050565b610df26118be565b8051610e0590600c9060208401906124e3565b5050565b6000610e1460085490565b905090565b6000818152600260205260408120546001600160a01b0316806107975760405162461bcd60e51b8152602060048201526018602482015277115490cdcc8c4e881a5b9d985b1a59081d1bdad95b88125160421b60448201526064016108cb565b60006001600160a01b038216610ee35760405162461bcd60e51b815260206004820152602960248201527f4552433732313a2061646472657373207a65726f206973206e6f7420612076616044820152683634b21037bbb732b960b91b60648201526084016108cb565b506001600160a01b031660009081526003602052604090205490565b610f076118be565b610d616000611bac565b6000600a5460ff166002811115610f2a57610f2a6125e8565b14610f665760405162461bcd60e51b815260206004820152600c60248201526b4e6f20467265652053616c6560a01b60448201526064016108cb565b336000908152600e602052604090205460119063ffffffff16610f8860085490565b610f929190612b06565b1115610fb05760405162461bcd60e51b81526004016108cb90612b1e565b336000908152600e602052604090205463ffffffff166110045760405162461bcd60e51b815260206004820152600f60248201526e139bdd0815da1a5d195b1a5cdd1959608a1b60448201526064016108cb565b600a546040516370a0823160e01b815233600482015260009161010090046001600160a01b0316906370a0823190602401602060405180830381865afa158015611052573d6000803e3d6000fd5b505050506040513d601f19601f820116820180604052508101906110769190612b6a565b11611082576000611085565b60015b6040516370a0823160e01b815233600482015260ff919091169030906370a0823190602401602060405180830381865afa1580156110c7573d6000803e3d6000fd5b505050506040513d601f19601f820116820180604052508101906110eb9190612b6a565b11156111395760405162461bcd60e51b815260206004820152601860248201527f416c7265616479206d696e7465642066726565204e465473000000000000000060448201526064016108cb565b60005b336000908152600e602052604090205463ffffffff9081169082161015610bcd5761116633611918565b8061117081612b46565b91505061113c565b6111806118be565b610d61611bfe565b6111906118be565b600955565b6060600180546107ac90612a65565b610e05338383611c41565b6111bb84848484611d10565b6111c5848361197b565b6109ea8383611b2b565b6000818152600260205260409020546060906001600160a01b031661124e5760405162461bcd60e51b815260206004820152602f60248201527f4552433732314d657461646174613a2055524920717565727920666f72206e6f60448201526e3732bc34b9ba32b73a103a37b5b2b760891b60648201526084016108cb565b600c61125983611d42565b60405160200161126a929190612b9f565b6040516020818303038152906040529050919050565b8060038163ffffffff161115801561129e575060008163ffffffff16115b6112db5760405162461bcd60e51b815260206004820152600e60248201526d125b9d985b1a5908185b5bdd5b9d60921b60448201526064016108cb565b6001600a5460ff1660028111156112f4576112f46125e8565b146113315760405162461bcd60e51b815260206004820152600d60248201526c4e6f204561726c792053616c6560981b60448201526064016108cb565b346009548363ffffffff166113469190612ae7565b146113865760405162461bcd60e51b815260206004820152601060248201526f125b9cdd59999a58d95b9d08119d5b9960821b60448201526064016108cb565b60118263ffffffff1661139860085490565b6113a29190612b06565b11156113c05760405162461bcd60e51b81526004016108cb90612b1e565b600b546040516370a0823160e01b81523360048201526000916001600160a01b0316906370a0823190602401602060405180830381865afa158015611409573d6000803e3d6000fd5b505050506040513d601f19601f8201168201806040525081019061142d9190612b6a565b11806114485750336000908152600f602052604090205460ff165b6114865760405162461bcd60e51b815260206004820152600f60248201526e139bdd0815da1a5d195b1a5cdd1959608a1b60448201526064016108cb565b60005b8263ffffffff168163ffffffff16101561096c576114a633611918565b806114b081612b46565b915050611489565b600c80546114c590612a65565b80601f01602080910402602001604051908101604052809291908181526020018280546114f190612a65565b801561153e5780601f106115135761010080835404028352916020019161153e565b820191906000526020600020905b81548152906001019060200180831161152157829003601f168201915b505050505081565b61154e6118be565b6001600160a01b0381166115b35760405162461bcd60e51b815260206004820152602660248201527f4f776e61626c653a206e6577206f776e657220697320746865207a65726f206160448201526564647265737360d01b60648201526084016108cb565b610bcd81611bac565b6040516370a0823160e01b815233600482015230906370a0823190602401602060405180830381865afa1580156115f7573d6000803e3d6000fd5b505050506040513d601f19601f8201168201806040525081019061161b9190612b6a565b1561165f5760405162461bcd60e51b81526020600482015260146024820152734f6e6c79206f6e65204e4654206973206672656560601b60448201526064016108cb565b6000600a5460ff166002811115611678576116786125e8565b146116b45760405162461bcd60e51b815260206004820152600c60248201526b4e6f20467265652053616c6560a01b60448201526064016108cb565b60116116bf60085490565b6116ca906001612b06565b11156116e85760405162461bcd60e51b81526004016108cb90612b1e565b600a546040516370a0823160e01b815233600482015260009161010090046001600160a01b0316906370a0823190602401602060405180830381865afa158015611736573d6000803e3d6000fd5b505050506040513d601f19601f8201168201806040525081019061175a9190612b6a565b116117985760405162461bcd60e51b815260206004820152600e60248201526d04e6f2043686164696e75205649560941b60448201526064016108cb565b610d6133611918565b60006001600160e01b031982166380ac58cd60e01b14806117d257506001600160e01b03198216635b5e139f60e01b145b8061079757506301ffc9a760e01b6001600160e01b0319831614610797565b6000818152600260205260409020546001600160a01b0316610bcd5760405162461bcd60e51b8152602060048201526018602482015277115490cdcc8c4e881a5b9d985b1a59081d1bdad95b88125160421b60448201526064016108cb565b600081815260046020526040902080546001600160a01b0319166001600160a01b038416908117909155819061188582610e19565b6001600160a01b03167f8c5be1e5ebec7d5bd14f71427d1e84f3dd0314c0f7b2291e5b200ac8c7c3b92560405160405180910390a45050565b6007546001600160a01b03163314610d615760405162461bcd60e51b815260206004820181905260248201527f4f776e61626c653a2063616c6c6572206973206e6f7420746865206f776e657260448201526064016108cb565b61192a8161192560085490565b611ddf565b61193c3361193760085490565b611b2b565b610bcd600880546001019055565b6119543382611df9565b6119705760405162461bcd60e51b81526004016108cb90612c46565b61096c838383611e78565b6001600160a01b0382166000908152600d60209081526040808320805482518185028101850190935280835284938301828280156119d857602002820191906000526020600020905b8154815260200190600101908083116119c4575b5050505050905060005b81518163ffffffff161015611a385783828263ffffffff1681518110611a0a57611a0a612aa0565b60200260200101511415611a26578063ffffffff169250611a38565b80611a3081612b46565b9150506119e2565b50600060018251611a499190612c93565b90506000828281518110611a5f57611a5f612aa0565b6020026020010151905080600d6000886001600160a01b03166001600160a01b031681526020019081526020016000208581548110611aa057611aa0612aa0565b60009182526020808320909101929092556001600160a01b0388168152600d90915260408120805484908110611ad857611ad8612aa0565b60009182526020808320909101929092556001600160a01b0388168152600d90915260409020805480611b0d57611b0d612caa565b60019003818190600052602060002001600090559055505050505050565b6001600160a01b039091166000908152600d602090815260408220805460018101825590835291200155565b611b5f611fe9565b6007805460ff60a01b191690557f5db9ee0a495bf2e6ff9c91a7834c1ba4fdd244a5e8aa4e537bd38aeae4b073aa335b6040516001600160a01b03909116815260200160405180910390a1565b600780546001600160a01b038381166001600160a01b0319831681179093556040519116919082907f8be0079c531659141344cd1fd0a4f28419497f9722a3daafe3b4186f6b6457e090600090a35050565b611c06612039565b6007805460ff60a01b1916600160a01b1790557f62e78cea01bee320cd4e420270b5ea74000d11b0c9f74754ebdbfc544b05a258611b8f3390565b816001600160a01b0316836001600160a01b03161415611ca35760405162461bcd60e51b815260206004820152601960248201527f4552433732313a20617070726f766520746f2063616c6c65720000000000000060448201526064016108cb565b6001600160a01b03838116600081815260056020908152604080832094871680845294825291829020805460ff191686151590811790915591519182527f17307eab39ab6107e8899845ad3d59bd9653f200f220920489ca2b5937696c31910160405180910390a3505050565b611d1a3383611df9565b611d365760405162461bcd60e51b81526004016108cb90612c46565b6109ea84848484612086565b60606000611d4f836120b9565b600101905060008167ffffffffffffffff811115611d6f57611d6f6128a2565b6040519080825280601f01601f191660200182016040528015611d99576020820181803683370190505b5090508181016020015b600019016f181899199a1a9b1b9c1cb0b131b232b360811b600a86061a8153600a8504945084611dd257611dd7565b611da3565b509392505050565b610e05828260405180602001604052806000815250612191565b600080611e0583610e19565b9050806001600160a01b0316846001600160a01b03161480611e4c57506001600160a01b0380821660009081526005602090815260408083209388168352929052205460ff165b80611e705750836001600160a01b0316611e658461082f565b6001600160a01b0316145b949350505050565b826001600160a01b0316611e8b82610e19565b6001600160a01b031614611eb15760405162461bcd60e51b81526004016108cb90612cc0565b6001600160a01b038216611f135760405162461bcd60e51b8152602060048201526024808201527f4552433732313a207472616e7366657220746f20746865207a65726f206164646044820152637265737360e01b60648201526084016108cb565b611f2083838360016121c4565b826001600160a01b0316611f3382610e19565b6001600160a01b031614611f595760405162461bcd60e51b81526004016108cb90612cc0565b600081815260046020908152604080832080546001600160a01b03199081169091556001600160a01b0387811680865260038552838620805460001901905590871680865283862080546001019055868652600290945282852080549092168417909155905184937fddf252ad1be2c89b69c2b068fc378daa952ba7f163c4a11628f55a4df523b3ef91a4505050565b600754600160a01b900460ff16610d615760405162461bcd60e51b815260206004820152601460248201527314185d5cd8589b194e881b9bdd081c185d5cd95960621b60448201526064016108cb565b600754600160a01b900460ff1615610d615760405162461bcd60e51b815260206004820152601060248201526f14185d5cd8589b194e881c185d5cd95960821b60448201526064016108cb565b612091848484611e78565b61209d8484848461224c565b6109ea5760405162461bcd60e51b81526004016108cb90612d05565b60008072184f03e93ff9f4daa797ed6e38ed64bf6a1f0160401b83106120f85772184f03e93ff9f4daa797ed6e38ed64bf6a1f0160401b830492506040015b6d04ee2d6d415b85acef81000000008310612124576d04ee2d6d415b85acef8100000000830492506020015b662386f26fc10000831061214257662386f26fc10000830492506010015b6305f5e100831061215a576305f5e100830492506008015b612710831061216e57612710830492506004015b60648310612180576064830492506002015b600a83106107975760010192915050565b61219b838361234a565b6121a8600084848461224c565b61096c5760405162461bcd60e51b81526004016108cb90612d05565b60018111156109ea576001600160a01b0384161561220a576001600160a01b03841660009081526003602052604081208054839290612204908490612c93565b90915550505b6001600160a01b038316156109ea576001600160a01b03831660009081526003602052604081208054839290612241908490612b06565b909155505050505050565b60006001600160a01b0384163b1561233f57604051630a85bd0160e11b81526001600160a01b0385169063150b7a0290612290903390899088908890600401612d57565b6020604051808303816000875af19250505080156122cb575060408051601f3d908101601f191682019092526122c891810190612d94565b60015b612325573d8080156122f9576040519150601f19603f3d011682016040523d82523d6000602084013e6122fe565b606091505b50805161231d5760405162461bcd60e51b81526004016108cb90612d05565b805181602001fd5b6001600160e01b031916630a85bd0160e11b149050611e70565b506001949350505050565b6001600160a01b0382166123a05760405162461bcd60e51b815260206004820181905260248201527f4552433732313a206d696e7420746f20746865207a65726f206164647265737360448201526064016108cb565b6000818152600260205260409020546001600160a01b0316156124055760405162461bcd60e51b815260206004820152601c60248201527f4552433732313a20746f6b656e20616c7265616479206d696e7465640000000060448201526064016108cb565b6124136000838360016121c4565b6000818152600260205260409020546001600160a01b0316156124785760405162461bcd60e51b815260206004820152601c60248201527f4552433732313a20746f6b656e20616c7265616479206d696e7465640000000060448201526064016108cb565b6001600160a01b038216600081815260036020908152604080832080546001019055848352600290915280822080546001600160a01b0319168417905551839291907fddf252ad1be2c89b69c2b068fc378daa952ba7f163c4a11628f55a4df523b3ef908290a45050565b8280546124ef90612a65565b90600052602060002090601f0160209004810192826125115760008555612557565b82601f1061252a57805160ff1916838001178555612557565b82800160010185558215612557579182015b8281111561255757825182559160200191906001019061253c565b50612563929150612567565b5090565b5b808211156125635760008155600101612568565b6001600160a01b0381168114610bcd57600080fd5b6000602082840312156125a357600080fd5b81356125ae8161257c565b9392505050565b6001600160e01b031981168114610bcd57600080fd5b6000602082840312156125dd57600080fd5b81356125ae816125b5565b634e487b7160e01b600052602160045260246000fd5b602081016003831061262057634e487b7160e01b600052602160045260246000fd5b91905290565b60005b83811015612641578181015183820152602001612629565b838111156109ea5750506000910152565b6000815180845261266a816020860160208601612626565b601f01601f19169290920160200192915050565b6020815260006125ae6020830184612652565b6000602082840312156126a357600080fd5b5035919050565b600080604083850312156126bd57600080fd5b82356126c88161257c565b946020939093013593505050565b60008083601f8401126126e857600080fd5b50813567ffffffffffffffff81111561270057600080fd5b6020830191508360208260051b850101111561271b57600080fd5b9250929050565b8035801515811461273257600080fd5b919050565b60008060006040848603121561274c57600080fd5b833567ffffffffffffffff81111561276357600080fd5b61276f868287016126d6565b9094509250612782905060208501612722565b90509250925092565b60006020828403121561279d57600080fd5b813563ffffffff811681146125ae57600080fd5b6000806000606084860312156127c657600080fd5b83356127d18161257c565b925060208401356127e18161257c565b929592945050506040919091013590565b6000806000806040858703121561280857600080fd5b843567ffffffffffffffff8082111561282057600080fd5b61282c888389016126d6565b9096509450602087013591508082111561284557600080fd5b50612852878288016126d6565b95989497509550505050565b6020808252825182820181905260009190848201906040850190845b818110156128965783518352928401929184019160010161287a565b50909695505050505050565b634e487b7160e01b600052604160045260246000fd5b600067ffffffffffffffff808411156128d3576128d36128a2565b604051601f8501601f19908116603f011681019082821181831017156128fb576128fb6128a2565b8160405280935085815286868601111561291457600080fd5b858560208301376000602087830101525050509392505050565b60006020828403121561294057600080fd5b813567ffffffffffffffff81111561295757600080fd5b8201601f8101841361296857600080fd5b611e70848235602084016128b8565b6000806040838503121561298a57600080fd5b82356129958161257c565b91506129a360208401612722565b90509250929050565b600080600080608085870312156129c257600080fd5b84356129cd8161257c565b935060208501356129dd8161257c565b925060408501359150606085013567ffffffffffffffff811115612a0057600080fd5b8501601f81018713612a1157600080fd5b612a20878235602084016128b8565b91505092959194509250565b60008060408385031215612a3f57600080fd5b8235612a4a8161257c565b91506020830135612a5a8161257c565b809150509250929050565b600181811c90821680612a7957607f821691505b60208210811415612a9a57634e487b7160e01b600052602260045260246000fd5b50919050565b634e487b7160e01b600052603260045260246000fd5b634e487b7160e01b600052601160045260246000fd5b6000600019821415612ae057612ae0612ab6565b5060010190565b6000816000190483118215151615612b0157612b01612ab6565b500290565b60008219821115612b1957612b19612ab6565b500190565b6020808252600e908201526d4e6f20456e6f677568204e46547360901b604082015260600190565b600063ffffffff80831681811415612b6057612b60612ab6565b6001019392505050565b600060208284031215612b7c57600080fd5b5051919050565b60008151612b95818560208601612626565b9290920192915050565b600080845481600182811c915080831680612bbb57607f831692505b6020808410821415612bdb57634e487b7160e01b86526022600452602486fd5b818015612bef5760018114612c0057612c2d565b60ff19861689528489019650612c2d565b60008b81526020902060005b86811015612c255781548b820152908501908301612c0c565b505084890196505b505050505050612c3d8185612b83565b95945050505050565b6020808252602d908201527f4552433732313a2063616c6c6572206973206e6f7420746f6b656e206f776e6560408201526c1c881bdc88185c1c1c9bdd9959609a1b606082015260800190565b600082821015612ca557612ca5612ab6565b500390565b634e487b7160e01b600052603160045260246000fd5b60208082526025908201527f4552433732313a207472616e736665722066726f6d20696e636f72726563742060408201526437bbb732b960d91b606082015260800190565b60208082526032908201527f4552433732313a207472616e7366657220746f206e6f6e20455243373231526560408201527131b2b4bb32b91034b6b83632b6b2b73a32b960711b606082015260800190565b6001600160a01b0385811682528416602082015260408101839052608060608201819052600090612d8a90830184612652565b9695505050505050565b600060208284031215612da657600080fd5b81516125ae816125b556fea2646970667358221220898b541e4e637f510be3205ec91eca0e6c6d7646db8e020dff869a8e0ba5344b64736f6c634300080b0033",
  "linkReferences": {},
  "deployedLinkReferences": {}
}