{
  "_format": "hh-sol-artifact-1",
  "contractName": "TestLock",
  "sourceName": "contracts/AssetLock.sol",
  "abi": [
    {
      "inputs": [
        {
          "internalType": "address",
          "name": "_sugarNFT",
          "type": "address"
        }
      ],
      "stateMutability": "nonpayable",
      "type": "constructor"
    },
    {
      "anonymous": false,
      "inputs": [
        {
          "indexed": false,
          "internalType": "address",
          "name": "asset",
          "type": "address"
        },
        {
          "indexed": false,
          "internalType": "uint256",
          "name": "amount",
          "type": "uint256"
        }
      ],
      "name": "AssetDeposited",
      "type": "event"
    },
    {
      "anonymous": false,
      "inputs": [
        {
          "indexed": true,
          "internalType": "address",
          "name": "previousOwner",
          "type": "address"
        },
        {
          "indexed": true,
          "internalType": "address",
          "name": "newOwner",
          "type": "address"
        }
      ],
      "name": "OwnershipTransferred",
      "type": "event"
    },
    {
      "anonymous": false,
      "inputs": [
        {
          "indexed": false,
          "internalType": "address",
          "name": "account",
          "type": "address"
        }
      ],
      "name": "Paused",
      "type": "event"
    },
    {
      "anonymous": false,
      "inputs": [
        {
          "indexed": false,
          "internalType": "address",
          "name": "account",
          "type": "address"
        }
      ],
      "name": "Unpaused",
      "type": "event"
    },
    {
      "inputs": [
        {
          "internalType": "address",
          "name": "_asset",
          "type": "address"
        }
      ],
      "name": "approveAsset",
      "outputs": [],
      "stateMutability": "nonpayable",
      "type": "function"
    },
    {
      "inputs": [
        {
          "internalType": "uint256[]",
          "name": "tokenIds",
          "type": "uint256[]"
        }
      ],
      "name": "claim",
      "outputs": [],
      "stateMutability": "nonpayable",
      "type": "function"
    },
    {
      "inputs": [
        {
          "internalType": "address",
          "name": "_asset",
          "type": "address"
        },
        {
          "internalType": "uint256",
          "name": "_amount",
          "type": "uint256"
        }
      ],
      "name": "deposit",
      "outputs": [],
      "stateMutability": "nonpayable",
      "type": "function"
    },
    {
      "inputs": [
        {
          "internalType": "address payable",
          "name": "_to",
          "type": "address"
        }
      ],
      "name": "destroySmartContract",
      "outputs": [],
      "stateMutability": "nonpayable",
      "type": "function"
    },
    {
      "inputs": [
        {
          "internalType": "address",
          "name": "_asset",
          "type": "address"
        }
      ],
      "name": "disapproveAsset",
      "outputs": [],
      "stateMutability": "nonpayable",
      "type": "function"
    },
    {
      "inputs": [
        {
          "internalType": "address",
          "name": "_asset",
          "type": "address"
        }
      ],
      "name": "getAssetBalance",
      "outputs": [
        {
          "internalType": "uint256",
          "name": "",
          "type": "uint256"
        }
      ],
      "stateMutability": "view",
      "type": "function"
    },
    {
      "inputs": [
        {
          "internalType": "address",
          "name": "_asset",
          "type": "address"
        }
      ],
      "name": "isAssetApproved",
      "outputs": [
        {
          "internalType": "bool",
          "name": "",
          "type": "bool"
        }
      ],
      "stateMutability": "view",
      "type": "function"
    },
    {
      "inputs": [],
      "name": "lockTime",
      "outputs": [
        {
          "internalType": "uint256",
          "name": "",
          "type": "uint256"
        }
      ],
      "stateMutability": "view",
      "type": "function"
    },
    {
      "inputs": [],
      "name": "owner",
      "outputs": [
        {
          "internalType": "address",
          "name": "",
          "type": "address"
        }
      ],
      "stateMutability": "view",
      "type": "function"
    },
    {
      "inputs": [],
      "name": "pause",
      "outputs": [],
      "stateMutability": "nonpayable",
      "type": "function"
    },
    {
      "inputs": [],
      "name": "paused",
      "outputs": [
        {
          "internalType": "bool",
          "name": "",
          "type": "bool"
        }
      ],
      "stateMutability": "view",
      "type": "function"
    },
    {
      "inputs": [],
      "name": "renounceOwnership",
      "outputs": [],
      "stateMutability": "nonpayable",
      "type": "function"
    },
    {
      "inputs": [
        {
          "internalType": "uint256",
          "name": "timeInDay",
          "type": "uint256"
        }
      ],
      "name": "setLockTime",
      "outputs": [],
      "stateMutability": "nonpayable",
      "type": "function"
    },
    {
      "inputs": [
        {
          "internalType": "address",
          "name": "_sugarNFT",
          "type": "address"
        }
      ],
      "name": "setSugarNFT",
      "outputs": [],
      "stateMutability": "nonpayable",
      "type": "function"
    },
    {
      "inputs": [],
      "name": "sugarNFT",
      "outputs": [
        {
          "internalType": "contract ISugarNFT",
          "name": "",
          "type": "address"
        }
      ],
      "stateMutability": "view",
      "type": "function"
    },
    {
      "inputs": [
        {
          "internalType": "address",
          "name": "newOwner",
          "type": "address"
        }
      ],
      "name": "transferOwnership",
      "outputs": [],
      "stateMutability": "nonpayable",
      "type": "function"
    },
    {
      "inputs": [],
      "name": "unpause",
      "outputs": [],
      "stateMutability": "nonpayable",
      "type": "function"
    },
    {
      "inputs": [],
      "name": "withdraw",
      "outputs": [],
      "stateMutability": "nonpayable",
      "type": "function"
    }
  ],
  "bytecode": "0x608060405234801561001057600080fd5b506040516118c13803806118c183398101604081905261002f916100ba565b6100383361006a565b6000805460ff60a01b19169055600680546001600160a01b0319166001600160a01b03929092169190911790556100ea565b600080546001600160a01b038381166001600160a01b0319831681178455604051919092169283917f8be0079c531659141344cd1fd0a4f28419497f9722a3daafe3b4186f6b6457e09190a35050565b6000602082840312156100cc57600080fd5b81516001600160a01b03811681146100e357600080fd5b9392505050565b6117c8806100f96000396000f3fe608060405234801561001057600080fd5b50600436106101165760003560e01c80636ba4c138116100a25780638da5cb5b116100715780638da5cb5b1461022d578063a75995e41461023e578063ae04d45d14610251578063ba3a0f6c14610264578063f2fde38b1461027757600080fd5b80636ba4c138146101de578063715018a6146101f15780638456cb59146101f95780638a009e951461020157600080fd5b80633f4ba83a116100e95780633f4ba83a1461017f57806347e7ef24146101875780635373433f1461019a5780635c975abb146101ad57806366cc4177146101cb57600080fd5b80630d6680871461011b57806334563f2b1461013757806339df43ff146101625780633ccfd60b14610177575b600080fd5b61012460055481565b6040519081526020015b60405180910390f35b60065461014a906001600160a01b031681565b6040516001600160a01b03909116815260200161012e565b6101756101703660046114d1565b61028a565b005b610175610296565b61017561060a565b6101756101953660046114f5565b61061c565b6101246101a83660046114d1565b61092c565b600054600160a01b900460ff165b604051901515815260200161012e565b6101756101d93660046114d1565b610a0c565b6101756101ec366004611521565b610a36565b610175610c3c565b610175610c4e565b6101bb61020f3660046114d1565b6001600160a01b031660009081526004602052604090205460ff1690565b6000546001600160a01b031661014a565b61017561024c3660046114d1565b610c5e565b61017561025f366004611596565b610ce3565b6101756102723660046114d1565b610d58565b6101756102853660046114d1565b610f75565b806001600160a01b0316ff5b61029e610fee565b60055442116102e55760405162461bcd60e51b815260206004820152600e60248201526d131bd8dada5b99c814195c9a5bd960921b60448201526064015b60405180910390fd5b600654604080516362720d9160e11b815290516000926001600160a01b03169163c4e41b229160048083019260209291908290030181865afa15801561032f573d6000803e3d6000fd5b505050506040513d601f19601f8201168201806040525081019061035391906115af565b90506000600660009054906101000a90046001600160a01b03166001600160a01b031663561892366040518163ffffffff1660e01b8152600401602060405180830381865afa1580156103aa573d6000803e3d6000fd5b505050506040513d601f19601f820116820180604052508101906103ce91906115af565b905060006103dc82846115de565b905060005b604051636f59ec4b60e11b81526001600482015273__$9fb44ff2c34f190f83e05881311175c942$__9063deb3d89690602401602060405180830381865af4158015610431573d6000803e3d6000fd5b505050506040513d601f19601f8201168201806040525081019061045591906115af565b811015610604576040516368d54f3f60e11b8152600160048201526024810182905260009073__$9fb44ff2c34f190f83e05881311175c942$__9063d1aa9e7e90604401602060405180830381865af41580156104b6573d6000803e3d6000fd5b505050506040513d601f19601f820116820180604052508101906104da91906115f5565b60405163732a2ccf60e01b8152600160048201526001600160a01b0382166024820181905291925063a9059cbb903390889073__$9fb44ff2c34f190f83e05881311175c942$__9063732a2ccf90604401602060405180830381865af4158015610548573d6000803e3d6000fd5b505050506040513d601f19601f8201168201806040525081019061056c91906115af565b6105769190611612565b6105809087611634565b6040516001600160e01b031960e085901b1681526001600160a01b03909216600483015260248201526044016020604051808303816000875af11580156105cb573d6000803e3d6000fd5b505050506040513d601f19601f820116820180604052508101906105ef9190611653565b505080806105fc90611675565b9150506103e1565b50505050565b610612610fee565b61061a611048565b565b6001600160a01b03821660009081526004602052604090205460ff1661067c5760405162461bcd60e51b8152602060048201526015602482015274105cdcd95d081a5cc81b9bdd08185c1c1c9bdd9959605a1b60448201526064016102dc565b6040516370a0823160e01b815233600482015281906001600160a01b038416906370a0823190602401602060405180830381865afa1580156106c2573d6000803e3d6000fd5b505050506040513d601f19601f820116820180604052508101906106e691906115af565b10156107295760405162461bcd60e51b8152602060048201526012602482015271125b9cdd59999a58da595b9d08105cdcd95d60721b60448201526064016102dc565b6040516323b872dd60e01b8152336004820152306024820152604481018290526000906001600160a01b038416906323b872dd906064016020604051808303816000875af115801561077f573d6000803e3d6000fd5b505050506040513d601f19601f820116820180604052508101906107a39190611653565b9050806107e45760405162461bcd60e51b815260206004820152600f60248201526e151c985b9cd9995c8811985a5b1959608a1b60448201526064016102dc565b60405163732a2ccf60e01b81526001600482018190526001600160a01b038516602483015273__$9fb44ff2c34f190f83e05881311175c942$__9163bc2b405c919086908690859063732a2ccf90604401602060405180830381865af4158015610852573d6000803e3d6000fd5b505050506040513d601f19601f8201168201806040525081019061087691906115af565b6108809190611690565b6040516001600160e01b031960e086901b16815260048101939093526001600160a01b039091166024830152604482015260640160006040518083038186803b1580156108cc57600080fd5b505af41580156108e0573d6000803e3d6000fd5b5050604080516001600160a01b0387168152602081018690527fddc69a07b5bfcee2b68a56a2e28e712c83e6b1372b06f80aaab04dbaca91020f935001905060405180910390a1505050565b6001600160a01b03811660009081526004602052604081205460ff166109835760405162461bcd60e51b815260206004820152600c60248201526b139bdd08185c1c1c9bdd995960a21b60448201526064016102dc565b60405163732a2ccf60e01b8152600160048201526001600160a01b038316602482015273__$9fb44ff2c34f190f83e05881311175c942$__9063732a2ccf90604401602060405180830381865af41580156109e2573d6000803e3d6000fd5b505050506040513d601f19601f82011682018060405250810190610a0691906115af565b92915050565b610a14610fee565b600680546001600160a01b0319166001600160a01b0392909216919091179055565b610a3e61109d565b6005544211610a805760405162461bcd60e51b815260206004820152600e60248201526d131bd8dada5b99c814195c9a5bd960921b60448201526064016102dc565b60005b81811015610bcb576006546040516329927cd560e11b81523360048201526000916001600160a01b031690635324f9aa90602401600060405180830381865afa158015610ad4573d6000803e3d6000fd5b505050506040513d6000823e601f3d908101601f19168201604052610afc91908101906116be565b905060076000858585818110610b1457610b1461177c565b602090810292909201358352508101919091526040016000205460ff16158015610b5b5750610b5b81858585818110610b4f57610b4f61177c565b905060200201356110ea565b610bb85760405162461bcd60e51b815260206004820152602860248201527f4e6f74206f776e6572206f6620746f6b656e206964206f7220616c72656164796044820152670818db185a5b595960c21b60648201526084016102dc565b5080610bc381611675565b915050610a83565b5060005b81811015610c2e57600160076000858585818110610bef57610bef61177c565b90506020020135815260200190815260200160002060006101000a81548160ff0219169083151502179055508080610c2690611675565b915050610bcf565b50610c388161113e565b5050565b610c44610fee565b61061a60006113d9565b610c56610fee565b61061a611429565b610c66610fee565b604051632f0ad01760e21b8152600160048201526001600160a01b03821660248201526000604482015273__$9fb44ff2c34f190f83e05881311175c942$__9063bc2b405c906064015b60006040518083038186803b158015610cc857600080fd5b505af4158015610cdc573d6000803e3d6000fd5b5050505050565b610ceb610fee565b60055415610d3b5760405162461bcd60e51b815260206004820152601860248201527f4c6f636b2074696d6520697320616c726561647920736574000000000000000060448201526064016102dc565b610d488162015180611634565b610d529042611690565b60055550565b610d60610fee565b60405163732a2ccf60e01b8152600160048201526001600160a01b038216602482015260009073__$9fb44ff2c34f190f83e05881311175c942$__9063732a2ccf90604401602060405180830381865af4158015610dc2573d6000803e3d6000fd5b505050506040513d601f19601f82011682018060405250810190610de691906115af565b1115610f2e5760405163732a2ccf60e01b8152600160048201526001600160a01b0382166024820181905260009163a9059cbb90339073__$9fb44ff2c34f190f83e05881311175c942$__9063732a2ccf90604401602060405180830381865af4158015610e58573d6000803e3d6000fd5b505050506040513d601f19601f82011682018060405250810190610e7c91906115af565b6040516001600160e01b031960e085901b1681526001600160a01b03909216600483015260248201526044016020604051808303816000875af1158015610ec7573d6000803e3d6000fd5b505050506040513d601f19601f82011682018060405250810190610eeb9190611653565b905080610f2c5760405162461bcd60e51b815260206004820152600f60248201526e151c985b9cd9995c8811985a5b1959608a1b60448201526064016102dc565b505b60405163131836e760e21b8152600160048201526001600160a01b038216602482015273__$9fb44ff2c34f190f83e05881311175c942$__90634c60db9c90604401610cb0565b610f7d610fee565b6001600160a01b038116610fe25760405162461bcd60e51b815260206004820152602660248201527f4f776e61626c653a206e6577206f776e657220697320746865207a65726f206160448201526564647265737360d01b60648201526084016102dc565b610feb816113d9565b50565b6000546001600160a01b0316331461061a5760405162461bcd60e51b815260206004820181905260248201527f4f776e61626c653a2063616c6c6572206973206e6f7420746865206f776e657260448201526064016102dc565b61105061146c565b6000805460ff60a01b191690557f5db9ee0a495bf2e6ff9c91a7834c1ba4fdd244a5e8aa4e537bd38aeae4b073aa335b6040516001600160a01b03909116815260200160405180910390a1565b600054600160a01b900460ff161561061a5760405162461bcd60e51b815260206004820152601060248201526f14185d5cd8589b194e881c185d5cd95960821b60448201526064016102dc565b6000805b8351811015611134578284828151811061110a5761110a61177c565b60200260200101511415611122576001915050610a06565b8061112c81611675565b9150506110ee565b5060009392505050565b600654604080516362720d9160e11b815290516000926001600160a01b03169163c4e41b229160048083019260209291908290030181865afa158015611188573d6000803e3d6000fd5b505050506040513d601f19601f820116820180604052508101906111ac91906115af565b905060005b604051636f59ec4b60e11b81526001600482015273__$9fb44ff2c34f190f83e05881311175c942$__9063deb3d89690602401602060405180830381865af4158015611201573d6000803e3d6000fd5b505050506040513d601f19601f8201168201806040525081019061122591906115af565b8110156113d4576040516368d54f3f60e11b8152600160048201526024810182905260009073__$9fb44ff2c34f190f83e05881311175c942$__9063d1aa9e7e90604401602060405180830381865af4158015611286573d6000803e3d6000fd5b505050506040513d601f19601f820116820180604052508101906112aa91906115f5565b60405163732a2ccf60e01b8152600160048201526001600160a01b0382166024820181905291925063a9059cbb903390869073__$9fb44ff2c34f190f83e05881311175c942$__9063732a2ccf90604401602060405180830381865af4158015611318573d6000803e3d6000fd5b505050506040513d601f19601f8201168201806040525081019061133c91906115af565b6113469190611612565b6113509088611634565b6040516001600160e01b031960e085901b1681526001600160a01b03909216600483015260248201526044016020604051808303816000875af115801561139b573d6000803e3d6000fd5b505050506040513d601f19601f820116820180604052508101906113bf9190611653565b505080806113cc90611675565b9150506111b1565b505050565b600080546001600160a01b038381166001600160a01b0319831681178455604051919092169283917f8be0079c531659141344cd1fd0a4f28419497f9722a3daafe3b4186f6b6457e09190a35050565b61143161109d565b6000805460ff60a01b1916600160a01b1790557f62e78cea01bee320cd4e420270b5ea74000d11b0c9f74754ebdbfc544b05a2586110803390565b600054600160a01b900460ff1661061a5760405162461bcd60e51b815260206004820152601460248201527314185d5cd8589b194e881b9bdd081c185d5cd95960621b60448201526064016102dc565b6001600160a01b0381168114610feb57600080fd5b6000602082840312156114e357600080fd5b81356114ee816114bc565b9392505050565b6000806040838503121561150857600080fd5b8235611513816114bc565b946020939093013593505050565b6000806020838503121561153457600080fd5b823567ffffffffffffffff8082111561154c57600080fd5b818501915085601f83011261156057600080fd5b81358181111561156f57600080fd5b8660208260051b850101111561158457600080fd5b60209290920196919550909350505050565b6000602082840312156115a857600080fd5b5035919050565b6000602082840312156115c157600080fd5b5051919050565b634e487b7160e01b600052601160045260246000fd5b6000828210156115f0576115f06115c8565b500390565b60006020828403121561160757600080fd5b81516114ee816114bc565b60008261162f57634e487b7160e01b600052601260045260246000fd5b500490565b600081600019048311821515161561164e5761164e6115c8565b500290565b60006020828403121561166557600080fd5b815180151581146114ee57600080fd5b6000600019821415611689576116896115c8565b5060010190565b600082198211156116a3576116a36115c8565b500190565b634e487b7160e01b600052604160045260246000fd5b600060208083850312156116d157600080fd5b825167ffffffffffffffff808211156116e957600080fd5b818501915085601f8301126116fd57600080fd5b81518181111561170f5761170f6116a8565b8060051b604051601f19603f83011681018181108582111715611734576117346116a8565b60405291825284820192508381018501918883111561175257600080fd5b938501935b8285101561177057845184529385019392850192611757565b98975050505050505050565b634e487b7160e01b600052603260045260246000fdfea2646970667358221220bdfd5b5352f00c781e0bbedb000112f3cf20fa082502bc8e9d504d76792a02c064736f6c634300080b0033",
  "linkReferences": {
    "contracts/AssetLock.sol": {
      "IterableMapping": [
        {
          "length": 20,
          "start": 1264
        },
        {
          "length": 20,
          "start": 1397
        },
        {
          "length": 20,
          "start": 1543
        },
        {
          "length": 20,
          "start": 2308
        },
        {
          "length": 20,
          "start": 2721
        },
        {
          "length": 20,
          "start": 3467
        },
        {
          "length": 20,
          "start": 3713
        },
        {
          "length": 20,
          "start": 3863
        },
        {
          "length": 20,
          "start": 4172
        },
        {
          "length": 20,
          "start": 4800
        },
        {
          "length": 20,
          "start": 4933
        },
        {
          "length": 20,
          "start": 5079
        }
      ]
    }
  },
  "deployedLinkReferences": {
    "contracts/AssetLock.sol": {
      "IterableMapping": [
        {
          "length": 20,
          "start": 1015
        },
        {
          "length": 20,
          "start": 1148
        },
        {
          "length": 20,
          "start": 1294
        },
        {
          "length": 20,
          "start": 2059
        },
        {
          "length": 20,
          "start": 2472
        },
        {
          "length": 20,
          "start": 3218
        },
        {
          "length": 20,
          "start": 3464
        },
        {
          "length": 20,
          "start": 3614
        },
        {
          "length": 20,
          "start": 3923
        },
        {
          "length": 20,
          "start": 4551
        },
        {
          "length": 20,
          "start": 4684
        },
        {
          "length": 20,
          "start": 4830
        }
      ]
    }
  }
}